:020000040000FA
:10180000C01A0020C1180000754F0000613D0000A3
:10181000FFFFFFFFFFFFFFFFFFFFFFFFFFFFFFFFD8
:10182000FFFFFFFFFFFFFFFFFFFFFFFF2953000048
:10183000FFFFFFFFFFFFFFFF995000009D560000D4
:1018400035190000F9510000351900003519000064
:101850003519000035190000351900003519000050
:10186000112B000035190000351900004D580000FB
:101870007D3B00007552000035190000351900004D
:1018800035190000D52C000035190000A53E0000D8
:10189000A541000035190000351900003519000078
:1018A000356C000081690000351900003519000011
:1018B00035190000D14C0000351900003519000021
:1018C0001D4880471D4880471D4800471D48016945
:1018D000002908D14169002905D18169002902D177
:1018E000C169002909D01848C1680901090D0029FA
:1018F0000ED005290CD006290AD0BFF34F8F13480C
:101900001349016013491248C860BFF34F8FFEE7C7
:101910000E4801680E48884200D070470E480F49B3
:1019200001600A480E4901607047FEE7FEE7FEE7E6
:10193000FEE7FEE7FEE70000CD180000A15600001C
:1019400065190000000308408001084000000020E5
:101950000400FA0500ED00E00081084001000000ED
:10196000000000000448854600F080FE0048004763
:10197000319C0000C046C046C01A002030B50B465E
:10198000014600202022012409E00D46D5409D4259
:1019900005D31D469540491B2546954040191546DF
:1019A000521E002DF1DC30BD70B500242546002804
:1019B00001DA01244042002901DA01254942FFF7FA
:1019C000DDFFAC4200D04042002C00D0494270BD47
:1019D000F8B500242546002904DA0E46012400212A
:1019E0004042B141002B04DA1E4600235242012539
:1019F000B34100F091FC8C4617461E46AC4203D022
:101A0000002540428D41AC46002C02D000265742B2
:101A10009E4161463A46334601B0F0BD00487047EA
:101A200010D2000010B50446FFF7F8FF0068005D13
:101A3000C007C00F10BD01466139192900D82038F0
:101A40007047000038B50446C0681821401E48435E
:101A5000A16840183C214843616840183C21484334
:101A60002168451860690C214843216940186921A3
:101A7000C900401A3021FFF797FF114A504342191D
:101A8000084600921A2902DB0E49511800910C21D8
:101A9000FFF78AFF0C4A5043009A801800900B48C9
:101AA00006E0491E425C074B5A43009BD218009245
:101AB0000029F6DC2146684600F082FC009838BD1B
:101AC000801F8607805101008033E10114D200009D
:101AD00003460B439B0703D009E008C9121F08C047
:101AE000042AFAD203E00B780370401C491C521EF2
:101AF000F9D27047D2B201E00270401C491EFBD2FD
:101B000070470022F6E710B513460A460446194608
:101B1000FFF7F0FF204610BD30B505462A460B46BC
:101B200010781C78521C5B1C002801D0A042F7D012
:101B3000002C03D0002802D06D1CEFE7284630BDF2
:101B400010B5044605E00B780370401C002B00D054
:101B5000491C521EF7D2204610BD421C0178401C81
:101B60000029FBD1801A704710B5002200E0521CFA
:101B7000835C8C5CA34201D1002BF8D1D8B2E1B2D6
:101B8000401A10BD70B5104D002800D128680024FF
:101B900014E00A4602E09E4203D0521C1378002B48
:101BA000F9D1DAB2224307D0002B06D0002C04D0A2
:101BB00000210170401C04E00446401C0678002E01
:101BC000E7D12860204670BD3005002010B508E040
:101BD0000A4602E0A34208D0521C1378002BF9D128
:101BE000401C0478002CF3D1002010BD0FB400B5C8
:101BF0008DB009900B9010A900200091C0430A906D
:101C000000200C9006480690064807906A4609A8EE
:101C10000F9900F025FC0DB008BC04B01847000077
:101C200081240000A1240000FFB50027FF4383B0FA
:101C300000205C6801909E681D46A9697F1C04987D
:101C400088470090296A88470028F6D10098401CF0
:101C50000CD0032040028443002E19DD600614D509
:101C600000982B2809D02D280FD103E00020C04375
:101C700007B0F0BD012080020443A9697F1C0498CD
:101C80008847761E0090002E02DD0098302803D091
:101C90000598002825D035E0012040020443A969B9
:101CA000761E7F1C049888470090002E03DD78285C
:101CB00005D0582803D00598002810D022E00598B8
:101CC000002801D010281DD1012040028443A969B9
:101CD000761E7F1C049888470090102002E00820A0
:101CE00000E00A2005900DE0012149020C43059A0D
:101CF0000199761E514308180190A9697F1C049828
:101D000088470090002E05DD0599009800F092FBB1
:101D10000028E9DAE96904988847A00502D401207F
:101D2000C043A5E7E00722D1600611D56005019800
:101D300000D5404229680A1D2A600968220501D59C
:101D4000087014E0220701D5088010E008600EE05A
:101D50002868011D29600068210502D501990170DC
:101D600005E02107019901D5018000E001603846B6
:101D70007EE7F8B502464A40D40F42004B005208B5
:101D80005B089A4202D20246084611464A0023D016
:101D9000C30D4A00DDB2120EAD1A202D35DA49020C
:101DA0000126490AF6058A19002C00D0524220214A
:101DB0004F1B1146B9402A411018C20D9A4221D03A
:101DC000002C17D0012D08DCDA05801AD20F8019FB
:101DD000D207DBB200F07EFBF8BDDA05801A0123E2
:101DE00040001B06C01880185A428018CA0F1043C2
:101DF000490007E04908C2071143DA05801A801933
:101E00004008801800F05EFBF8BD61000122511A05
:101E1000001BF7E70122D2075140AAE70122D207AF
:101E20005040A6E7024670B54A40D30FDB0740009A
:101E30002DD04A002AD0010E140E000212020919F8
:101E4000400A520A8418E50104465443000A120A63
:101E50002E045043A4194219200CC543AA18120C91
:101E60000125AD03521C521912047F39240400D0FD
:101E7000521C104301D44000491EC2B20C06C009D6
:101E80002018401C4008802A02D003E0002070BDCA
:101E900040084000002900DA0020184370BD70B5EA
:101EA00002464A40D50F40004A00ED07400852085C
:101EB000002814D0002A12D0C40DD30D41020120F5
:101EC000C0055202490A520AE41A091812187D3450
:101ED000914201D3641C00E04900002C01DA00208B
:101EE00070BD0023914201D3891A03434008490081
:101EF0000028F7D100290AD0914202D10121C90757
:101F000005E0914201D2012101E00121C943E00530
:101F1000C018401900F0D6FA70BD0000F0B50746B1
:101F20000846584087B0C00F049048000E4659003C
:101F300040084908BC1A884105D2384631461E4639
:101F400017460B4602465800400810434DD0300D4E
:101F5000039040055900400D490D0590401A02902C
:101F6000402873DA18030121000B0905084301908A
:101F700004980092002806D01146019A4942002098
:101F8000904100910190029840210A1A019900980D
:101F900000F0F2F905460C466B4607CB00F0FCF961
:101FA000C0197141039A0E0D0023D71756401A46E7
:101FB0007A40164344D0049A002A2DD0029A012A6E
:101FC000039A15DC1205C01A914101263605001C42
:101FD0007141D20F059ED2070093019202962A46C4
:101FE000234600F0BDFA07B0F0BD38463146FAE7A7
:101FF0001605234A0F46B218C01AB7410121090538
:10200000001C4F4100187F41114618187941E20F1A
:1020100010436D19644113E0E2076D08154364082D
:10202000C2071443039A01261205C01A91413605CE
:10203000001C7141CE07400830434908C018514187
:102040002A46234600F07FFACDE7FFE704980122F5
:102050004000C117121A00238B4104983146C4175F
:10206000381AA141EEE730B40124E407634030BCE4
:1020700054E730B40124E407614030BC4EE700006F
:102080000000E0FFF0B51FB488B00B990998002458
:1020900048400999C00F490049080991C0070B99A8
:1020A0000090490049080B9109990898A6460843F1
:1020B0001CD00B990A98084318D0099801244000B5
:1020C000420D4800410D099824050003000B2043F0
:1020D00009900B980003000B20430B9050181C49EB
:1020E0004018002201901446104605E000200146E9
:1020F0000DB0F0BD032801DA034600E003239C463F
:10210000C11A0AAE0AE05F0008ADED5B4F00F75B55
:102110007D430027AA187C41491C5B1E6145F2DD06
:10212000410004AB5A522104120C0A43240C401CF7
:102130000828DFDB01980290009970460191009019
:10214000059B049A0799069800F00AFAD0E7000068
:102150000DFCFFFFF0B50C465C4085B0E40FE407D2
:1021600003944C000026640859009446490802462E
:102170000296224321D062460A431ED06200570DC8
:102180004A000E032303550D012402462C49240561
:10219000781B1B0B360B40182343264361460090E7
:1021A0001C46501AB44103D30098401C009002E032
:1021B000921800985B41002803DA0020014605B020
:1021C000F0BD0020012109050746864611E064465E
:1021D0001D46141BB54106D36546521BB3417446D8
:1021E00007430C43A646CD074008490828439218E8
:1021F0005B4105460D43EAD11046184313D06046B3
:10220000194650407140084306D06046101AB34149
:1022100006D20122002306E000220123DB0702E0B0
:102220000122D2435310009874460105381C6141C5
:10223000029C039D0019694100F085F9BFE7000089
:10224000FD030000C217C10F504010B54018CA0767
:102250009623002100F03EF910BD10B50022962310
:10226000114600F037F910BD0EB5C217C10F50402E
:10227000CA0740180021054B0293019200910A46BB
:102280000B4600F06DF903B000BD00003304000000
:10229000C20FD207400040080BD0C10D0723DB015D
:1022A000C91840020905400A1143C20840071143FA
:1022B0007047002001467047CB0FDB07490010B57F
:1022C000490802460A4307D00A0D07240903E4011E
:1022D000090B121B002A01DC002010BDC900440FAD
:1022E0000C43C100E018D205801800F0EBF810BDD7
:1022F0000122D207002800DB101A002900DB511A46
:10230000814270470122D207002800DB101A002901
:1023100000DB511A88427047F0B51FB40646002012
:1023200082B005464024019100901BE001992246AD
:102330000F46304600F0ACF9049A059B801A99418B
:1023400010D310461946224600F016F8361A8F416F
:102350000197224601200021009F00F00DF8381857
:102360004D4100902046641E0028DFDC019B009850
:102370002946324607B0F0BD10B5202A04DB0146DD
:10238000203A9140002010BD914020239C1A034622
:10239000E3401943904010BD10B5202A06DBCB174F
:1023A0000846203A1041C1170B4306E00B46134183
:1023B000D0402024A21A91400843194610BD0000C5
:1023C00070B50C4600683C21FFF7D8FA21603C212B
:1023D000FFF7D4FA61601821FFF7D0FA0546A16033
:1023E0000721001DFFF7CAFAA1610F48A9000818CC
:1023F0000E49FFF7C3FA0246443288086261E06181
:102400003B2802D3910700D0401C0021084B0A460C
:102410002161995C814203D8401A521C2261F8E77D
:10242000401CE060204670BD6C0B0000B50500004C
:1024300020D200003A2800D23038202302469A43A6
:10244000412A01D310463738884201D30020C043C7
:1024500070470000026813785118016018467047F1
:1024600010B5D16004495161044911620021116124
:10247000114600F01FF910BD55240000251A000078
:102480004268002A08D001680B78491C002B03D051
:10249000521E06C0184670470121C160881E704751
:1024A0004268002A0BD0C3680168002B07D18368FB
:1024B0008B4204D0491E521C06C0002070470020E9
:1024C000C0437047002904DA401C490001D140088C
:1024D0004000704770B40024050C05D1102400049E
:1024E00002D1002921D01124050E01D100020834A7
:1024F000050F01D10001241D850F01D18000A41C0E
:10250000002801DB4000641C002908D020252E1B78
:102510000D46F540A14000D00121294308430106A2
:102520001B1B000ADB1D02D5002070BC7047DB05B9
:10253000181880180029F8DA401C4900F5D170BC41
:1025400040084000704710B5002B08DA0024401CFA
:10255000614192185B411A4301D14008400010BD0F
:10256000F0B51FB482B005460C0003D0084604F055
:102570002DFD02E004F02AFD2030024600902146A5
:102580002846FFF7F9FE049B059A04460F461843B8
:102590001143084314D0184610431BD00098402123
:1025A0000A1A1846059900F073F805460E46009A77
:1025B00005990498FFF7E0FE084305D0012004E0E8
:1025C0002046394607B0F0BD0020C11705430E4331
:1025D0002C43374300990E986305401A7905E40AA5
:1025E00000220C43FD0A0A3002D500200146E9E72B
:1025F0000105101969410C9C0D9D00196941FFF7F7
:10260000A2FFDFE74A0009030123090B1B05194359
:102610000A4B10B5520D9A4202DA0020014610BD55
:10262000064B34339A4203DC9A1A00F031F810BD9D
:10263000034BD218FFF7A0FE10BD0000FF030000FF
:10264000CDFBFFFF10B5002904DB0124E407404265
:102650008C412146002B04DB1C460123DB07524240
:10266000A341994200D1904210BD0000064C0125C3
:10267000064E05E0E36807CC2B430C3C984710342A
:10268000B442F7D3FFF772F9B0D50000D0D50000FF
:1026900010B5202A04DB0846203AD040002110BDA6
:1026A0000B46D340D0402024A21A9140084319463B
:1026B00010BD0000F3B58DB000200A9001200B90F2
:1026C000002608460C300C460990626901210998E1
:1026D0009047051E2ED0252D2DD0216A8847002831
:1026E00018D06269012109989047216A884700281B
:1026F000F7D1411E62690998904700E0761CA169F4
:102700000D988847216A88470028F7D1E1690D981C
:102710008847DAE7A1690D9888470746A84201D1A2
:10272000761CD2E7E1690D9888477F1C02D10A9890
:10273000002877D04AE1002762693D46394609986A
:1027400090472A280CD162690121099890470125F8
:1027500006E00A214F433F18303FEBD410200543D9
:102760006269012109989047014630390A2903D24C
:102770009C498F42DEDCECE7E90600D49A4F6C28D6
:102780000AD04C2810D0682824D06A282ED074286B
:102790000CD07A280AD00DE062690121099890478F
:1027A0006C2823D004211CE020200543626901210C
:1027B00009989047A760656065284FD026DC5828A7
:1027C00039D01ADC452849D012DC252834D04128DC
:1027D000B0D143E06269012109989047682802D08E
:1027E00008210D43E6E70120C002DEE70220DCE716
:1027F000462833D047282CD130E05B2870D06128A0
:102800002CD063286CD0642823D161E06F284FD08E
:1028100009DC662822D0672820D0692826D06E28B7
:1028200017D12EE0CEE070284DD073286FD07528D8
:102830004ED078280DD154E0A1690D9888470546FF
:10284000252800D16CE7E1690D9888476D1C00D1FF
:102850006DE7BBE00A224CE00A2252E00120234649
:102860006A46C0430D99C046C046A4E028464021B0
:1028700008436060A807234601D5002239E0002202
:102880003FE0E80700D020E72068011D21600068D4
:10289000290501D5067018E7290701D5068014E738
:1028A000A90703D5F117066041600EE706600CE743
:1028B0002846402108436060A807234601D5082226
:1028C00017E008221DE0494928460840606016E0EC
:1028D0002846402108436060A8072346BCD5B9E7D5
:1028E00015E02846402108436060A80707D5234625
:1028F00010220120C0430D99C046C0465BE023462C
:1029000010220120C0430D99FFF78EF953E00021FA
:102910000C910B460091632802D05B2808D044E05C
:102920002079C00601D40120A060012000903CE085
:1029300062690121099890475E2805D101200C9019
:1029400001466269099890472169002906D10B4622
:1029500001AA8F00491CD3510829FADB002835D081
:10296000216900290ED1C117C90E09184A11930017
:1029700001AA9A1849094901411A0120136888409F
:102980000343136062690121099890475D28E5D1EE
:102990000C98002808D0002001AB81005A58401C38
:1029A000D2435A500828F8DB01AB01202246C0432D
:1029B0000D99C046C04600280ADA401C06D10B9883
:1029C000002803D00020C0430FB0F0BD0A98FBE7F9
:1029D000E90702D10A99491C0A91361800200B9088
:1029E00073E60000CCCCCC0CFFFFFF7FF1F7FFFFBC
:1029F00070B58C180578401C6B075B0F01D103780C
:102A0000401C2A1106D10278401C03E006780E70A3
:102A1000401C491C5B1EF9D12B0705D40023521E14
:102A20000DD40B70491CFAE70378401CCB1A921C9A
:102A300003E01D780D70491C5B1C521EF9D5A142A4
:102A4000D8D3002070BD8C2211507047002904D0CB
:102A5000026880231A43026003E0026880239A43DD
:102A6000026070470EB50020009001900290012195
:102A700009060298884340180290891201988843F9
:102A8000401801900123684607C800F031FC1E4839
:102A900000F095F802228021002000F0A3F8062122
:102AA000102000F045FC002301220221164800F00E
:102AB0006FF80021144800F087F800231A46092116
:102AC000114800F04AF801210F4800F071F8012286
:102AD00011460D4800F032F80820002809DB00BF3D
:102AE00000BFC206D20E01219140084A116000BF0A
:102AF00000BF00BF01210448FFF7A8FF01210248E1
:102B000000F064F80EBD00000000014000E100E0AC
:102B100010B501210648FFF796FF0548006B000538
:102B2000000D0449086001200349087010BD000031
:102B300000000140900400209404002010B5002AF9
:102B400005D080231B580B438024235004E08023AE
:102B50001B588B438024235010BD70B50C46951034
:102B6000AE00051DA9599507EE0E1F25B5402B4651
:102B70000D469D4329469507EE0E2546B5402B464A
:102B80000D461D4329469510AD00061D715170BDBF
:102B900070B5032900D100BF5C1E2404551E2D0210
:102BA0002C430C430568802635402C43046070BDDF
:102BB000CA06D20E02674A0952014267704701688D
:102BC000402211430160704701627047002904D020
:102BD000426F01231A43426703E0426F52085200DA
:102BE00042677047F7B50B46009DED00154EAA19D8
:102BF000002000240027002120E000240027FF25DA
:102C00008D401D40002D17D000200FE01D46C5400F
:102C100001268E403540002D07D086000F25B54097
:102C20002C438600029DB5402F43401C0828EDD35D
:102C30001568A5433D431560121D08310829DCDDE8
:102C4000FEBD000020200240002003490870034818
:102C50000068034908607047E4010020700000200C
:102C6000E00100200EB500200090019002900121AB
:102C7000090402988843401802900123684607C857
:102C800000F036FB10480068810A104800F073F825
:102C900000210E4800F071F801210C4800F05FF8A7
:102CA00001210A4800F04FF81120002809DB00BF7D
:102CB00000BFC206D20E01219140054A116000BF3B
:102CC00000BF00BF0EBD0000C00400200060074030
:102CD00000E100E010B5124800F02EF803F0F6FB1A
:102CE00010480068401C0F4908600F480078012810
:102CF00004D10E480088401C0C4908800C4800781C
:102D0000401C0B49087001F0C9F901F047FB094864
:102D1000006AFF21013148400649086210BD0000E9
:102D200000600740700000200C0000201000002010
:102D30007400002000400B40416849084900416090
:102D4000BFF34F8F7047002904D0026804231A4351
:102D5000026003E0026804239A430260704700297E
:102D600004D0026801231A43026003E0026852089B
:102D7000520002607047C160704781607047000078
:102D8000F0B5364E0120B07000252F462EE02846C3
:102D900001F0C6FB002827D12C4644204443F06CA8
:102DA000015DCA0701D089071ED4B7702018C28DF3
:102DB000416889184160F06C2018028E816889187A
:102DC0008160F06C20184178491CC9B2417010290B
:102DD0000AD3F06C002120184770284602F0FAFC54
:102DE0000121284602F0F6FC6D1CEDB2707B854295
:102DF000CDD3B07800282FD0002329E0184601F069
:102E00008FFB002822D11A4644214A43F16C144812
:102E100051188881F16C51180882F16C5118888220
:102E2000F16C51180883F06C1018C781F06C101801
:102E30004782F06C1018C782F06C10184783F06C52
:102E40001118088E0887F16C5118C8865B1CDBB21C
:102E5000707B8342D2D37771F0BD0000CC04002098
:102E6000FFFF0000F0B51F4DE88C68640026374670
:102E700030E0304601F054FB002829D1344644208C
:102E80004443E86CFD22015D4908490011400155A9
:102E900020184770E86C012120184760E86C49024F
:102EA00020188760E86C002220184186E86C201802
:102EB0008186E86C20184185E86C20188185E86CD3
:102EC0002018C785E86C20180786304603F08AFB77
:102ED000761CF6B2687B8642CBD3AF706F70EF7012
:102EE000F0BD0000CC04002070B505460C46002D56
:102EF00002D0012D44D144E0002C1DD0284609F019
:102F0000CDFE44480088444908800A204149088091
:102F10000120424908703F4800784870002040492D
:102F2000088002203F4908703D4800783E494870BB
:102F300001203849087723E0374800883549088060
:102F400001203649087034480078487031490878C3
:102F500001F098FF324A11782E4A107809F01CFFD0
:102F60002C480088002805D02A480188284608F007
:102F7000F3FA02E02D4805F003FB0020254908770D
:102F800045E0002C1DD0284609F088FE2448008822
:102F9000214908800A20224908800220214908701E
:102FA0001F4800782049487000201A4908800120F5
:102FB0001A490870174800784870012018490877A6
:102FC00024E0154800881649088002201549087039
:102FD00011480078144948701149087801F052FFEF
:102FE0000F4A11780B4A107809F0D6FE0C48008879
:102FF000002805D00A480188284608F0ADFA02E00A
:103000000B4805F0BDFA00200549087700BF00BF56
:1030100070BD0000341100201C020020B50100200A
:103020005411002024110020BD010020F8010020CF
:10303000080200207FB50446002001900290039012
:10304000012189030298884340180290890303985C
:10305000884340180390012301A807C800F048F9ED
:103060000D2210210320FFF7BDFD21462248FEF767
:1030700085FC451E032168464180058000210171C1
:1030800000200290FF2101316846818169461B487A
:1030900003F05CFBFF210131184803F0CDFA002159
:1030A00068460170072141800021017141718171E1
:1030B000C171017201214172691C3C2251430846D1
:1030C0006421FEF75BFC81B2684641810021818169
:1030D00069460A4803F0CCFA0D20002809DB00BF3E
:1030E00000BFC206D20E01219140054A116000BF07
:1030F00000BF00BF7FBD0000C0E1E400004003400E
:1031000000E100E070B504460D462046FFF792FF4F
:10311000A1B200232A46012000F002F870BD000091
:10312000FEB505460C4616461F4621462048FEF7CA
:103130003BFC401E01900199491C3C22514308462A
:103140006421FEF71BFC00901A480570214671436C
:1031500008467D21C900FEF727FC17490880214653
:10316000794308467D21C900FEF71EFC13490880FB
:10317000114800880988401811490860019881B2F7
:10318000104803F0E0FA009882B200210D4803F0E5
:10319000D3FA012211020B4803F05FFA0122002149
:1031A000084803F03BFA0121064803F04AFAFEBD45
:1031B000C0E1E4001C0400201E04002020040020C4
:1031C0002404002000400340884202D9401A80B203
:1031D000704700207047000070B504461748406BE8
:1031E0004607760F00F02EF82060330003F01DFF35
:1031F000081605080B16160E12162068606010E0FF
:103200000F4860600DE00E4860600AE00120C003D6
:10321000606006E07D200002606002E000206060E7
:1032200000BF00BF0548056A052D02D3606840094C
:1032300001E06068E840A06070BD000000800840C8
:1032400000127A00F0B51B480068FF2701373840AC
:10325000040A1848C069C50F164840687F00384006
:10326000460A002E01D10020F0BD002C01D11248E9
:1032700000E0114802460F4FBF69FF00F80F1746E4
:10328000C7403A46012D01D11046EDE70948806953
:103290000F27FF053840C10D002900D11021054836
:1032A000806903277F053840430D10464843D840C6
:1032B000DAE700000080084000127A007EB504467C
:1032C000002560118000094946182E2C00D10225E6
:1032D000E406E40E0321A14030680840E0404519AF
:1032E0006846FFF779FF0298E8407EBD38800840C5
:1032F0003FB50E4C606AE16A226B0446009DAC4308
:1033000020460C46019DAC4321461446029DAC4329
:103310002246002B05D0009C2043019C2143029CA7
:103320002243024C6062E16222633FBD008008409C
:10333000054A926A072383409A430B4683401A4307
:10334000014B9A62704700000080084030B587B09A
:1033500004460D46684604740595002006900190C9
:103360000290039010210198884310300190490287
:103370000198884340180190012301A807C8FFF76E
:10338000B7FF04A9024800F013F807B030BD0000F1
:1033900000A0084030B504460D46034B034A2946B9
:1033A000204600F06FFC30BD48CF0000FFFF00005A
:1033B00002464B6853600B78002B06D0012B06D0D9
:1033C000022B06D00F2B06D106E0002006E0652078
:1033D00004E0E62002E000BF886800BF00BF106084
:1033E0007047000010B500200C4B012498645A7BF4
:1033F00011E0986C521E40009864D0B201F09AF827
:10340000002807D0D0B202F0DDFC002802D0986C72
:1034100020439864D2B2002AEBD110BDCC04002026
:10342000F0B5274C0746A0790025002805D1A078E3
:10343000002802D0E079002801D0A5653DE00023F6
:103440001A4622E0104601F075F800281BD01046FD
:1034500044214843E16CE68E4018018FB14206D901
:10346000418E00290FD0808E00280AD10BE0A68E55
:10347000B14208D2468E218F8E4204D2808E88427D
:1034800001D2627B0123521CD2B2607B8242D9D32B
:10349000002B05D0A06DC019A065E08C606400E031
:1034A000A565606DA18D884201D3608D00E0208DFF
:1034B000A16D814201D90120F0BD0020F0BD0000C6
:1034C000CC04002010B500200649024606E0442343
:1034D000CC6C43431B19401CDA87C0B24B7B98422B
:1034E000F5D310BDCC0400200348FF21C172002198
:1034F000C182018370470000CC04002010B50F206A
:10350000000300F0F7F80446002C01D0002010BDA5
:10351000002000F085F80120F9E70000F0B58BB03D
:1035200007460E46142106A8FEF7EBFA0C2070435E
:103530000F21090345182C6868460476200A079075
:103540006C682106079808430790200A0890AC6829
:1035500021060898084308902002010C68468184DF
:10356000079A0899891A6A46928C51430846FEF7D1
:1035700069FE0190FEF78CFE0022084B0391029039
:10358000FEF7E8FD05910490FEF796FE0A901422DE
:1035900006A93846FEF79CFA0BB0F0BD0020AC40FF
:1035A00007204003006870470148006A7047000028
:1035B000C0FF0000FFB581B014461D460C210198E4
:1035C00048430F210903471820020299084300903D
:1035D0003846009900F09AF80646002E02D00020E6
:1035E00005B0F0BD200E290208430090381D009957
:1035F00000F08CF80646002E01D00020F0E7280EDF
:103600000A9909020843009038460830009900F0F2
:103610007DF80646002E01D00020E1E70120DFE71B
:1036200070B50446072040030668A64211D000F09A
:1036300061F80546002D01D0002070BD214607200D
:10364000400300F063F80546002D01D00020F4E7A8
:1036500000BF0120F1E70EB5112003F0F5FC0B20AF
:1036600003F0F2FC0020009001900290FF21013154
:1036700002988843401802904900029888434018F5
:103680000290C9010298884340180290891001985D
:103690008843401801900023684607C8FFF728FEBA
:1036A0000EBD0EB502F01CFCFFF7DCFA0020009006
:1036B00001900290FF210131029888434018029046
:1036C00049000298884340180290C9010298884333
:1036D0004018029089100198884340180190090110
:1036E00002988843401802900123684607C8FFF7F4
:1036F000FFFD0EBD10B504460348046008200249D2
:10370000C86000F011F810BD0000084030B5044654
:103710000D4604480460456004200249C86000F07A
:1037200003F830BD00000840174A184840690223DA
:103730001843164B58611420186106E013480069BD
:103740000C2318400C2800D103E01046521E00281C
:10375000F4D100BF0D4881698069022398430B4B67
:103760009861012040040840002801D002207047E1
:1037700002200840002801D00120F8E7002A01D1EA
:103780000320F4E70020F2E7FFFF0F0000000840ED
:10379000816270473EB500200090019002900121A7
:1037A0000904009888434018009049000098884315
:1037B0004018009049000098884340180090490044
:1037C0000098884340180090491101988843401898
:1037D00001900123684607C8FFF78AFD01220021F6
:1037E0000846FFF7FFF9012211460020FFF7FAF91A
:1037F000012202210020FFF7F5F901220321002018
:10380000FFF7F0F9012204210020FFF7EBF9012274
:1038100005210020FFF7E6F9012206210020FFF72D
:10382000E1F9012207210020FFF7DCF9FF204649DA
:103830000860012208211046FFF7D4F90122402137
:103840001046FFF7CFF9012251031046FFF7CAF9DE
:10385000012291031046FFF7C5F900220121490317
:103860003A4800F023F9002201218903374800F08B
:103870001DF9012149033548FFF78AFF0122510351
:10388000324800F06DF80322012149032F4800F06F
:1038900071F8012189032D48FFF77AFF0122910376
:1038A0002A4800F05DF8032201218903274800F02F
:1038B00061F801220821254800F052F80022402139
:1038C000224800F04DF800224021204800F078F80E
:1038D000012240211D4800F069F801221146022012
:1038E000FFF780F9012202210846FFF77BF9012248
:1038F00003210220FFF776F901220E210220FFF7B3
:1039000071F901220F210220FFF76CF910480468B9
:10391000104804430E480460FF200B4908620E481B
:103920000A4908620A490862012211460320FFF78A
:1039300059F900220121094800F012F8012211462C
:10394000064800F033F83EBD00000B4000200B405D
:1039500000400B400EC00000FFFF000000600B4065
:10396000002A03D003680B43036002E003688B4323
:1039700003607047F0B517460024002500220CE0D4
:10398000CE07F60F002E06D053003E469E4034432D
:1039900003269E4035434910521C102AF0D3466935
:1039A000AE434661466926434661F0BD002A03D016
:1039B00043680B43436002E043688B4343607047B6
:1039C00030B514468268C36815468D432A461D46A5
:1039D0008D432B46002C04D0012C06D0022C09D19B
:1039E00007E015460D432A4605E01D460D432B46CC
:1039F00001E000E000BF00BF8260C36030BD02464E
:103A0000D3690B40002B01D0012000E0002070475B
:103A10004162704710B50122FF210020FFF7E2F854
:103A200001221D491046FFF7DDF801221A49EA3943
:103A30000220FFF7D7F8012238210320FFF7D2F840
:103A40000222FF211548FFF7BBFF0222124914484A
:103A5000FFF7B6FF02221049EA391248FFF7B0FF1C
:103A6000022238211048FFF7ABFF0022FF210B484C
:103A7000FFF776FF002208490948FFF771FF00228F
:103A80000549EA390748FFF76BFF0022382106484D
:103A9000FFF766FF10BD0000F863000000000B4058
:103AA00000200B4000400B4000600B40002A01D07A
:103AB000416200E081627047F0B587B000270024C2
:103AC0000020009001900290FF210131029888436C
:103AD000401802900123684607C8FFF709FC2348F5
:103AE0000068012103F089FA05467D22D2000023F7
:103AF000FDF76EFF471E00E0641C611C3846FDF7B1
:103B00003DFF1B498842F7D8611C3846FDF736FF58
:103B1000074668468781C481002101740020059012
:103B2000FF2101316846018303A9124802F00EFE0D
:103B3000FF2101310F4802F07FFD012211020D48E3
:103B400002F08BFD0C20002809DB00BF00BFC2067D
:103B5000D20E01219140084A116000BF00BF00BF92
:103B60000121044802F06DFD07B0F0BDC004002043
:103B7000FFFF000000E0064000E100E010B5FF217B
:103B80000131044802F058FD03480068401C024916
:103B9000086010BD00E00640BC04002038B50446B3
:103BA00008210B48FFF734FF0A480068009008E03E
:103BB000084800680099401AA04200D902E006F0C7
:103BC00085FFF5E700BF08210148FFF7E1FD38BD9B
:103BD00000200B40700000200FB4F0B585B0064601
:103BE000002069460873802003F0D6FB04900498F7
:103BF000002808D1049903987160306005B0F0BCCA
:103C000008BC04B0184700240B9D05F089F807E0B4
:103C1000287800900121684602F062FF6D1C00BF09
:103C200028780028F4D10D2102910A210191012167
:103C300002A802F055FF012101A802F051FF05F092
:103C40006FF803E02046641C049A175402F010FF3A
:103C50000746401C002801D0FF2CF3DB002004990C
:103C6000085507A10498FDF757FF002802D001204E
:103C700069460873049903987160306000BFBDE71E
:103C80004F4B0000F0B50446104608E0C5B2267858
:103C9000641C6E4076009E5B07127E4030460E46E6
:103CA000491E002EF2DCF0BD0A4A090289180028DC
:103CB00007D0012807D0022807D0032807D000200A
:103CC0007047086B7047C86A7047886A7047486ACF
:103CD0007047000000A1014000200349087003481C
:103CE0000068034908607047E5010020700000206B
:103CF000E8010020FEB505460E4628011749441884
:103D0000002000900190029001214902019888430F
:103D100040180190490101988843401801900123FF
:103D2000684607C8FFF7E4FA227AE1882079FEF7AF
:103D300059FFA27BA189A07AFEF754FF3146206883
:103D400003F07CF801220021206803F0E7F801224B
:103D50001146206803F0E2F8FEBD00007CD10000AF
:103D600000BF024800680028FBD070476C000020AC
:103D700010B51248007800281FD1114800680028AB
:103D80001BD010480078002802D005F06BFB01E042
:103D900004F0C2F90C480068094909680B4A8918FF
:103DA000884205D20848006805490968884204D25B
:103DB00001200249087004F0AFF910BDE5010020B0
:103DC000E8010020A00100207000002060EA00004F
:103DD0000EB500200090019002900198400840002C
:103DE000401C0190012189030198884340180190EB
:103DF00009010098884340180090009888434018B3
:103E000000900123684607C8FFF772FA0022FF21DD
:103E100001311248FFF7D4FD0022012149020F4869
:103E2000FFF7CEFD0722FF2101310220FEF7DAFE67
:103E30000722012149020220FEF7D4FE00F0EEF82D
:103E4000074808490860102088810020088106483A
:103E500048600820C881002048810EBD00400B400A
:103E60009012002080120020A20400200EB5002035
:103E7000009001900290019840084000401C019081
:103E80000123684607C801F03BF90022FF210131F8
:103E90000220FEF7A7FE0022012149020220FEF7C0
:103EA000A1FE0EBD10B50C21574800F027FB0446BB
:103EB00001200005204000287ED10120400520403F
:103EC00000283AD004202040002816D001204F4975
:103ED00008704F4908704F49088000204E494881BA
:103EE000084642894089401C0B4658810846406874
:103EF000815C454800F011FB49E00120400420406E
:103F0000002844D001204349088043484089424961
:103F1000C989884204DB00213B4800F0FEFA0BE02F
:103F20003D4842894089401C3B4B588118464068B7
:103F3000815C354800F0F1FA29E004202040002897
:103F400006D00120334908800020334908811EE053
:103F5000012000042040002819D001202D490880AC
:103F6000294800F0D6FA2C490A890989491C2A4BAC
:103F700019811946096888541846008919468989A3
:103F8000884203DD00201946088100E000BF0120BF
:103F900040022040002804D0012149021A4800F0C4
:103FA00019FA052000022040002804D0052109024A
:103FB000154800F00FFA00E016E00120C002204092
:103FC000002818D00121C9020F4800F003FA0E485A
:103FD0000068082188430C490860084600680821E9
:103FE00008430949086006E00F200002204001460E
:103FF000054800F0EFF902202040002802D0002000
:104000000449088010BD000000800440AB0400207B
:10401000AA040020A00400208012002000B587B070
:104020000020019002900390029840084000401C3C
:104030000290012301A807C801F062F80021684638
:1040400001744174012181745021018304A9104835
:1040500000F0D8F901210E4800F0BEF901220D4907
:104060000B4800F041FA0021132003F0B5F81320AB
:10407000002809DB00BF00BFC206D20E012191401B
:10408000054A116000BF00BF00BF07B000BD0000BF
:10409000008004400606030000E100E010B50C4873
:1040A0000088002800D110BD72B609480088401C65
:1040B0000749088062B606480088142806DD0020FB
:1040C00003490880FFF7D2FEFFF782FE00BFEAE750
:1040D000A00400200EB50020009001900290022163
:1040E00001988843801C0190490301988843401837
:1040F0000190C900009888434018009000988843B8
:10410000401800900123684607C8FFF7F1F8002225
:1041100080211248FFF754FC0022FF2101310F4893
:10412000FFF74EFC072280210120FEF75BFD0722EE
:10413000FF2101310120FEF755FD00F0EFF808489E
:1041400008490860102088810020088106484860DE
:104150000820C881002048810EBD000000200B40CF
:10416000B0120020A0120020AE0400200EB50020E6
:10417000009001900290022101988843801C0190D8
:104180000123684607C800F0BBFF00228021012000
:10419000FEF728FD0022FF2101310120FEF722FD5C
:1041A0000EBD000010B50C21574800F0A7F90446D9
:1041B00001200005204000287ED10120400520403C
:1041C00000283AD004202040002816D001204F4972
:1041D00008704F4908704F49088000204E494881B7
:1041E000084642894089401C0B4658810846406871
:1041F000815C454800F091F949E0012040042040ED
:10420000002844D00120434908804348408942495E
:10421000C989884204DB00213B4800F07EF90BE0AD
:104220003D4842894089401C3B4B588118464068B4
:10423000815C354800F071F929E004202040002815
:1042400006D00120334908800020334908811EE050
:10425000012000042040002819D001202D490880A9
:10426000294800F056F92C490A890989491C2A4B2A
:1042700019811946096888541846008919468989A0
:10428000884203DD00201946088100E000BF0120BC
:1042900040022040002804D0012149021A4800F0C1
:1042A00099F8052000022040002804D005210902C9
:1042B000154800F08FF800E016E00120C002204011
:1042C000002818D00121C9020F4800F083F80E48D9
:1042D0000068082188430C490860084600680821E6
:1042E00008430949086006E00F200002204001460B
:1042F000054800F06FF802202040002802D000207E
:104300000449088010BD000000900440B70400205C
:10431000B6040020AC040020A012002000B587B035
:104320000020019002900390022102988843801C93
:104330000290012301A807C800F0E2FE00216846B0
:1043400001744174012181745021018304A9104832
:1043500000F058F801210E4800F03EF801220D4906
:104360000B4800F0C1F80021142002F071FF142066
:10437000002809DB00BF00BFC206D20E0121914018
:10438000054A116000BF00BF00BF07B000BD0000BC
:10439000009004400606030000E100E010B50C4860
:1043A0000088002800D110BD72B609480088401C62
:1043B0000749088062B606480088142806DD0020F8
:1043C00003490880FFF7D2FEFFF784FE00BFEAE74B
:1043D000AC040020C1607047002904D002680823A3
:1043E0001A43026003E0026808239A4302607047A0
:1043F0000246D0680840002801D001207047002004
:10440000FCE70000FEB504460D4600200190009038
:1044100000BF00BF20688521884329780843697858
:104420000843A978084320602889A0602B4884426B
:1044300004D10020FEF742FF01900EE0284884429C
:1044400004D10220FEF73AFF019006E0254884429D
:1044500003D13620FEF732FF019020680321890343
:104460000840002806D001218903401A05D0401ACF
:1044700009D105E00620009005E00820009002E048
:104480000920009000BF00BF14236A685A431146F8
:10449000019AD300D018FDF771FA0099401AE97813
:1044A000461A14236A685A4311460B23019A5A4349
:1044B0001046FDF763FA0099401AE978471A002E72
:1044C00001DA002000E030460646002F01DA002025
:1044D00000E03846074626616761FEBD0080044063
:1044E0000090044000800040002A03D043680B4342
:1044F000436002E043688B434360704708B502465F
:1045000000200090009200984018009000980068E9
:1045100008BD01468869C0B27047816170470000DC
:10452000442148430249C96C085C8006C00F7047AB
:10453000CC04002003490968C140C80700D001200D
:10454000704700001C0500200EB50020009001906F
:10455000029001F049FC002865D101F03FFC0028E1
:104560004DD001F023FBA1490860084600680028EF
:1045700046D000209E49086001209E4908709E4850
:10458000008814281FDD9D48007800281BD19C4816
:104590000078002817D1954800689A4908400028FB
:1045A00007D0924800689849086000209749086041
:1045B00006E08E480068954908600020924908602E
:1045C00001208E4908708C4800887D2109018842AD
:1045D00015DD8B480078002803D1844800688C4999
:1045E000086085480088C8388349088000208949C8
:1045F0000860012082490870002080490870F4E0BA
:1046000000207C4908707C4908807D4908707B48FF
:1046100000780128F3D17C4800687E4908600020BA
:1046200076490870E1E0724800687B498842E6D329
:10463000FFF7F0F9019840084000401C019002216A
:1046400001988843801C01904902019888434018D2
:10465000019049100198884340180190C9040298BC
:1046600088434018029049000198884340180190FF
:1046700049110298884340180290102100988843FD
:104680001030009049020098884340180090C900FB
:1046900000988843401800904900009888434018CB
:1046A0000090490000988843401800904900009805
:1046B000884340180090C91202988843401802901D
:1046C0000023684607C8FEF713FE19E0022002F037
:1046D000B1F8002814D00220002804D0012806D008
:1046E00002280CD107E0012000F0C6FC07E0012001
:1046F00000F042FC03E0012000F078FC00BF00BFA6
:1047000001F072FB0028E1D13949086001984008A6
:104710004000401C0190022101988843801C0190B8
:104720004902019888434018019049100198884334
:1047300040180190C904029888434018029049002B
:104740000198884340180190491102988843401805
:104750000290102100988843103000904902009880
:10476000884340180090C900009888434018009082
:1047700049000098884340180090490000988843F9
:104780004018009049000098884340180090C912D2
:1047900002988843401802900123684607C8FEF734
:1047A000A7FDFFF715FBFFF795FCFEF7F3FF00F001
:1047B00074FC02F08DF802F0DBF900F0EBF900F088
:1047C000DDFC04F0E5FAFEF74DF914490020FEF790
:1047D000BDFD012149031248FFF71AF901218903A0
:1047E0000F48FFF715F9FEF75CFF0EBD040000202F
:1047F000240000200C000020100000200D000020EC
:104800000E0000200A2003001400002020000020D9
:10481000180000201C000020581B0000FFFF0000B3
:1048200000200B40C84800680121C9030840002847
:1048300004D1C64800680840002806D00F20C449AB
:1048400008700120C349087039E1BF4800680121A0
:1048500009030840002804D1BC480068084000282B
:1048600006D00C20BA4908700120BA49087026E128
:10487000B5480078C007C00F002805D1B3480078BC
:10488000C007C00F002806D00020B14908700120E1
:10489000B049087013E1AC480068022108400028C4
:1048A00004D1AA4800680840002805D00120A84982
:1048B0000870A849087002E1A34800680421084074
:1048C000002804D1A14800680840002806D0022032
:1048D0009F49087001209F490870F0E09A480068DD
:1048E00008210840002804D19848006808400028A2
:1048F00006D0032096490870012096490870DEE032
:104900009148006810210840002804D18F480068B1
:104910000840002806D005208D49087001208D49E7
:104920000870CCE08848006820210840002804D1A5
:10493000864800680840002806D004208449087092
:10494000012084490870BAE07F480068402108408F
:10495000002804D17D4800680840002806D00620C1
:104960007B49087001207B490870A8E07648006800
:1049700080210840002804D17448006808400028BD
:1049800006D007207249087001207249087096E02D
:104990006D480068FF2101310840002804D16B48B0
:1049A00000680840002806D00820694908700120E6
:1049B0006849087083E064480068012149020840A2
:1049C000002804D1614800680840002806D009206A
:1049D0005F49087001205F49087070E05A4800681C
:1049E000012189020840002804D158480068084085
:1049F000002806D00A205649087001205549087041
:104A00005DE0514800680121C9020840002804D136
:104A10004E4800680840002806D00B204C4908701A
:104A200001204C4908704AE0474800680121890389
:104A30000840002804D1454800680840002806D0F6
:104A40000E204349087001204249087037E03E4873
:104A50000068012149030840002804D13B48006850
:104A60000840002806D00D20394908700120394936
:104A7000087024E0344800680121490408400028F7
:104A800004D1324800680840002806D0112030497F
:104A9000087001202F49087011E02B48006801219F
:104AA00009040840002804D128480068084000286C
:104AB00005D0102026490870012026490870264894
:104AC000006802210840002806D0172020490870FD
:104AD0000120204908702DE01F48006801210904C9
:104AE0000840002806D015201949087001201949EE
:104AF00008701FE0184800680121C9030840002819
:104B000006D014201249087001201249087011E0E3
:104B1000114800680821084000280BD00E480068A2
:104B200089020840002805D0182009490870012092
:104B300008490870002005490860034908600649D3
:104B400008600348007870471C0000202000002007
:104B50000800002000000020180000200348006921
:104B600001210843014908617047000000A0054089
:104B7000002806D00649096801221143044A116041
:104B800005E00349096849084900014A1160704776
:104B900000A0054000B587B0002000900190029071
:104BA000012189030198884340180190C9030198A5
:104BB0008843401801900123684607C8FEF798FB18
:104BC0000E2201210020FEF70DF80E220221002006
:104BD000FEF708F80E2204210020FEF703F80E224B
:104BE00008210020FDF7FEFF0E2210210020FDF716
:104BF000F9FF0E2220210020FDF7F4FF0E224021B4
:104C00000020FDF7EFFF0E2208210320FDF7EAFF49
:104C10000E2210210120FDF7E5FF0E2220210120A8
:104C2000FDF7E0FF0E22012189030220FDF7DAFFE4
:104C30000E220121C9030220FDF7D4FF0E2202211A
:104C40000846FDF7CFFF0E2204210220FDF7CAFF20
:104C50000E2208210220FDF7C5FF012168460173DD
:104C6000002141730220049000200690DF20800084
:104C7000059003A800F034F80222FF210904DF2088
:104C8000800000F053F8012000F03EF81D200028BD
:104C900009DB00BF00BFC206D20E01219140054AC8
:104CA000116000BF00BF00BF0120FFF761FF07B028
:104CB00000BD000000E100E004480069C007C00F2B
:104CC000002801D0012070470020FCE700A005402B
:104CD00010B5FFF7F1FF002801D0FFF73FFF10BD2F
:104CE0000021084A11600178090242781203114339
:104CF000828812041143034A116081685160C168BF
:104D00005161704700A00540002806D00649C968D7
:104D100001221143044AD16005E00349C9684908EA
:104D20004900014AD160704700A0054010B5002A33
:104D300006D0012A0CD0022A14D0032A24D11BE069
:104D4000124B9B6804460C43A343104CA3601BE02A
:104D50000E4B9B6803430D4CA36023469B688B431B
:104D6000A36011E0094B9B688343084CA360234672
:104D70009B680B43A36007E0044B9B6804460C430D
:104D80002343024CA36000BF00BF10BD00A005403C
:104D900030B502460B460F2A00DD30BD54000D4DE4
:104DA00060190D4C0578AD00645921B2002B05D077
:104DB00045780124AC400C4321B205E0457801243C
:104DC000AC400D46A54329B2034C0578AD006151B6
:104DD00000BFE2E78800002018A00540F0B50446B7
:104DE0000D461F46002C02D0012C00D0F0BDA300C0
:104DF000224E9819224B0678B6009B5919B2002D05
:104E000005D046780123B3400B4319B205E046783C
:104E10000123B3400E469E4331B2002D05D04678A3
:104E20000123B3400B4319B205E046780123B34098
:104E30000E469E4331B2002A05D086780123B34046
:104E40000B4319B205E086780123B3400E469E431A
:104E500031B2002F05D0C6780123B3400B4319B2FD
:104E600005E0C6780123B3400E469E4331B2044BA1
:104E70000678B600995100BFB8E70000A8000020EE
:104E800018A0054030B502460A2A00DD30BD0021D9
:104E90001BE04C000F4D60190F4C0578AD006459B4
:104EA00023B2914205DC45780124AC401C4323B277
:104EB00005E045780124AC401D46A5432BB2064CC5
:104EC0000578AD0063514C1CE1B20A29E1DD00BF59
:104ED000DCE700008800002018A0054010B5002184
:104EE00013E04B000A4C18190A4B0478A4001B5914
:104EF0001AB244780123A34014469C4322B2054BC6
:104F00000478A4001A514B1CD9B20A29E9DD10BD5E
:104F10008800002018A0054070B5064613480168B7
:104F2000C90702D00169C906FCD40023104D17E05F
:104F300098008419E0B2FFF7FDFA00280ED0194658
:104F40003046FEF7B1FE296EEA78484344214C43CF
:104F5000E96C800A611892008918C8815B1CDBB279
:104F6000687B80089842E3D870BD000000A0014033
:104F7000CC040020704700000021194A126B520631
:104F8000D10F174A126B40231A43154B1A63154A67
:104F9000526880239A43134B5A601A46526808237A
:104FA0009A43104B5A60104A126904231A430E4B5D
:104FB0001A61002905D10A4A126B40239A43084B13
:104FC0001A63002803D140BF20BF20BF00E030BFDC
:104FD000054A126904239A43034B1A617047000083
:104FE0000080084000A1064000ED00E000211F4ABB
:104FF000126B5206D10F1D4A126B40231A431B4BF2
:105000001A631B4A52681204D20F002A0BD1184AA5
:10501000526880239A43164B5A601A46526880237E
:105020001A43134B5A60124A526808239A43104B92
:105030005A60002905D10D4A126B40239A430B4B4D
:105040001A630C4A126904231A430A4B1A61002896
:1050500003D140BF20BF20BF00E030BF054A126926
:1050600004239A43034B1A617047000000800840F4
:1050700000A1064000ED00E00649096904229143C1
:10508000044A1161002803D140BF20BF20BF00E0C7
:1050900030BF704700ED00E070471FB5E1204002CF
:1050A0000090FF210131684681800021C18001818B
:1050B000002003906946FEF71DFE1FBDF8B50446AB
:1050C0000D460A272046FCF748FD064600BF002E85
:1050D00001D12046F8BD022E0ADD2078302807D104
:1050E0006078782802D06078582801D11027A41C55
:1050F0002A462146384602F0E7F800900098E9E792
:105100003FB50E4C6068A168E2680446009DAC4360
:1051100020460C46019DAC4321461446029DAC43FB
:105120002246002B05D0009C2043019C2143029C79
:105130002243024C6060A160E2603FBD00810840F4
:10514000044989680222914342001143014A916057
:105150007047000000A00640002806D00649896874
:1051600001221143044A916005E003498968490816
:105170004900014A9160704700A006400EB500202A
:1051800000900190029040210298884340300290A4
:105190000123684607C8FEF7ABF80020FFF7D0FFF1
:1051A0000121084600F04AF80F20000200F056F8EE
:1051B0000120FFF7D1FF0121084601F0D1FF0120B6
:1051C000002809DB00BF00BFC206D20E01219140BA
:1051D000024A116000BF00BF00BF0EBD00E100E049
:1051E000014800687047000000A006400148C06800
:1051F000C0B2704700A0064010B501200B490860FE
:10520000FFF7F4FF0A480068401C09490860094894
:105210000088401C0749088007480078002801D111
:10522000012000E000200449087010BD8C0100201E
:105230009001002094010020A0010020002905D049
:10524000054A12690243044B1A6104E0024A1269DA
:105250008243014B1A61704700A0064004498968E7
:105260000F22120291430143014A916070470000EE
:1052700000A0064010B5FF2101311F4801F0DCF904
:105280001E480068002835D01C480068401E1B4995
:105290000860084600681A490988884204D100223B
:1052A0001146154801F0BAF914480068002821D1C8
:1052B00014480088124909884018104908600122E2
:1052C00000210D4801F0AAF90F480078002804D009
:1052D0000D480078401E0C4908700B4800780028E3
:1052E00008D10021044801F0ACF906221021032066
:1052F000FDF778FC10BD00000040034024040020AE
:10530000200400201E0400201C040020C1B2054A15
:10531000116000BF03490969FF22013211400029D1
:10532000F8D07047000004407047000030B50024FA
:105330000C4D12E02046FFF7F3F800280BD1442073
:10534000E96C60434018E978002249004018418E1A
:10535000204601F047F9641CE4B2687B8442E9D33B
:1053600030BD0000CC0400200EB50020009001905C
:105370000290012189040298884340180290091183
:1053800001988843401801900123684607C8FDF73B
:10539000AFFF0C2210210220FDF724FC0C2220215B
:1053A0000220FDF71FFC0C2240210220FDF71AFC11
:1053B0000C2280210220FDF715FC0C220121C903DB
:1053C0000120FDF70FFC0C2201210220FDF70AFC51
:1053D0000C22012189020220FDF704FC0C2201218C
:1053E000C9020220FDF7FEFB0C22FF210131002043
:1053F000FDF7F8FB0C22012149020020FDF7F2FB2A
:105400000C22012189020020FDF7ECFB0C22012176
:10541000C9020020FDF7E6FB0C22012189030020D0
:10542000FDF7E0FB0C220121C9030020FDF7DAFBA8
:105430000C2201210846FDF7D5FB0C220221012098
:10544000FDF7D0FB0EBD0000F1B500252B461C4F2B
:105450002FE0009899000E18F0B2FFF76BF80028C3
:1054600025D044204643F86C00213418E289608A34
:10547000904200D20246208F8018C003000C208783
:10548000F86C3018C68E448FA64200D9311BFE7AC4
:10549000052E03D2A4088C4200D2091B8A4206D2F0
:1054A000C18F491C89B2C187A94200D9CDB25B1C0A
:1054B000DBB2787B80089842CBD82846F8BD000044
:1054C000CC040020F3B5294C0646A079002700281B
:1054D00005D1A078002802D0E079002801D0A76586
:1054E00042E000231A4625E091008819C5B22846FB
:1054F000FFF720F800281BD044204543E06C281813
:10550000E58E018F2035A94206D9418E00290FD0A2
:10551000808E00280BD10BE0A58E203DA94207DA32
:10552000458E218F8D4203D2808E884200D2012386
:10553000521CD2B2607B80089042D5D8002B06D096
:10554000A16D01980818A065E08C606400E0A76573
:10555000606DA18D884201D3608D00E0208DA16D2A
:10556000814201D90120FCBD0020FCBDCC040020FB
:10557000FEB505463B48C0783B49C2073948008C18
:1055800002D0C2B2497801E00978C2B2022000F02C
:10559000A5FF002D06D0012D06D0022D06D0032D2B
:1055A00006D006E0012604E0022602E0042600E020
:1055B000082600273C4633E0A0004019C0B2009006
:1055C000FEF7B8FF002824D00098442148430190FA
:1055D000D16C17464018D178022249004018418EFC
:1055E000009800F0FFFF0198F96C4018F9781F4A05
:1055F000490040182102408E8918C860F2B22B463B
:105600000821204600F074FF009800F081FF012778
:1056100004E002220021009800F0E4FF641CE4B2E0
:10562000104A507B8008A042C6D8002000F070FFCE
:10563000002F15D0022000F003F90121022000F014
:1056400009F90121082000F005F909480168490815
:105650004900016001680122114301601046FEBD4E
:105660000020FEBDCC0400200605002000A1014062
:1056700000A0014000B50749095C002000F054FF7C
:105680000548016849084900016001680122114389
:10569000016000BD0605002000A001407047000029
:1056A00010204949C8604948006B402108434749D8
:1056B00008630846406A0121C90288434349486299
:1056C000084640680121C90208434049486000BFBC
:1056D0003E4880680007C00F0028F9D03B4840686A
:1056E000C008C000C01C3949486000BF3748406B43
:1056F0004007400F0328F9D135480068C008C000B2
:10570000401C334908600020304908620846406860
:10571000491588432D4948600846006889150843A3
:105720002A4908600846406808218843274948609C
:105730000846006849150843244908600846006B7C
:1057400040218843214908630F20C005886108462D
:105750008069490308431D49886108460068891526
:1057600008431A4908600846406849150843174924
:10577000486000BF154880688007C00F0028F9D036
:1057800013480068C008C000C01C11490860002010
:105790000E49086208464068C008C000401C4860C6
:1057A00000BF0A48406B4007400F0128F9D1084864
:1057B000006810210843064908600448406809153C
:1057C00088430249486070470081084000800840D3
:1057D00000020840F0B54422184F5043FA6C8B0089
:1057E0008218D21853684D001B031C0C0023536011
:1057F000FA6C7E8B821853195A8EB44202D95E8D90
:10580000B24302E0B44203D25E8D76085E85324335
:10581000FE6C861976197286FA6C861875196D8D6C
:10582000002D02D07B8B9C4207D10029115C01D056
:10583000022300E0012319431154F0BDCC040020E1
:10584000014908617047000000A0014010B500F058
:10585000B3F910BD002905D0054AD2680243044BB4
:10586000DA6004E0024AD2688243014BDA60704792
:1058700000A0014010B50020084B094C0AE044216B
:10588000DA6C414389188A8FA24201D2521C8A875E
:10589000401CC0B2597B8842F1D310BDCC0400201B
:1058A00060EA000010B5044800F004FD00F028FA9A
:1058B000FFF75AFD10BD00003C050020F0B50025A3
:1058C000204F3AE02846FEF735FE002833D0284620
:1058D000FEF726FE00282ED128464421FE6C4843C0
:1058E00081194022525A002A25D10B8FCA8E9C1A48
:1058F00024B2002C1FD0641000D10124934201D99E
:10590000CB8618E0934216D2305C3E7C4006C00F36
:10591000304205D0D01A4B8F5B00984209DC0AE078
:10592000B88A002807D1B879002804D1888F302898
:1059300001D91019C8866D1CEDB2787B8542C1D3A0
:10594000F0BD0000CC040020F0B5964C6079401CFE
:1059500060716079002601280AD061792046022909
:105960007ED14179022900D346710024054614E115
:10597000002588E02846FEF7DDFD002871D02B4683
:1059800044204343E06C1818C189C183E06C1818A7
:1059900081898183E06C84491818C681E06C1818ED
:1059A0008181E06C1818428A4284E06C1818028ADF
:1059B0000284E06C18184682E06C18180182E06CD2
:1059C00018188189C089FDF7FFFB02B2E06C181836
:1059D000018A408AFDF7F8FB00B2824200DD1046E2
:1059E00081B2E06C18188184E06C1818C28C408871
:1059F00001F0AEF80246E06C18184280E16C5208E3
:105A00005818478FBA42CA5C02D920273A4301E0AE
:105A1000DF273A40CA54C18B428C914200D31146D1
:105A2000008F081A02B2104602F052F9218E49087E
:105A3000884203D2E16C0420591805E0E06C191883
:105A40004878002801D0401E4870104602F040F906
:105A5000002816D02846FEF763FD0028E06C01E020
:105A600015E00EE003D018184078401C01E018182B
:105A70004078024100D10122E06C1818018F89188A
:105A800001876D1CEDB2607B854200D272E7F0BDEC
:105A90002046FEF74FFD00287DD023464420434397
:105AA000E86C1818C18AC183E86C1818818A818350
:105AB000E86C3D491818C682E86C18188182E86CB9
:105AC0001818428B4284E86C1818028B0284E86C28
:105AD00018184683E86C18180183E86C1818818A36
:105AE000C08AFDF771FB02B2E86C1818018B408B7D
:105AF000FDF76AFB00B2824200DD104682B2E86C1C
:105B00001818C284E86C1818818C408801F020F8BD
:105B10000246E86C18184280E96C52085818478F02
:105B2000BA42CA5C02D920273A4301E0DF273A4053
:105B3000CA54C18B428C914200D31146008F081A7F
:105B400002B2104602F0C4F8298E4908884203D2F6
:105B5000E96C0420591805E0E86C19184878002809
:105B600001D0401E4870104602F0B2F8002812D052
:105B70002046FEF7D5FC0028E86C04D018184078C1
:105B8000401C02E007E0181840780241E86C181841
:105B9000018F89180187641CE4B2687B844200D2BB
:105BA00076E7F0BDCC040020FFFF00000148806CC8
:105BB00070470000CC04002070B5504D686C002880
:105BC00078D000234AE09807800F9908FEF76CF818
:105BD00082B2A8780028184632D044214843E96CA4
:105BE000EC784118A4000C19A489944203D9EC78EC
:105BF000A40009198A81E96CEC784118A4000C19F9
:105C0000E489944203D2EC78A4000919CA81E96CB2
:105C1000EC784118A4000C19A48A944203D9EC78BA
:105C2000A40009198A82E96C4018E97889004118B2
:105C3000C98A914210D2E97889004018C2820BE0EB
:105C4000FEF76EFC002807D14420E96C5843401849
:105C5000E97849004018C2855B1CDBB2687B83424F
:105C6000B1D30220FFF7ECFDA97801200029E978E3
:105C700021D0002900D00020E87000240DE044204D
:105C8000E96C60434018E978002249004018418ED1
:105C9000204600F0A7FC641CE4B2687B8442EED38B
:105CA000E878002800D00120FFF7E4FC287A401CA7
:105CB000287270BD1DE0002901D06870F9E7E87016
:105CC00000240FE02046FEF72BFC002808D14420DA
:105CD000E96C60434018818E0022204600F082FC6F
:105CE000641CE4B2687B8442ECD30120FFF7C2FC61
:105CF000DFE70220FFF7A4FDDBE70000CC04002073
:105D000010B59EB0002444210DA8FBF7FAFE08212F
:105D100010A8817418210DA8C1772449684601870D
:105D20007D2109014187491081874900C1872049A8
:105D300010A801807D21890101811E496846818664
:105D40001D49C1861B49203910A8418019492031BD
:105D500081807D21C900C1804B21C9004181102172
:105D6000818101210174FF213931C1811C214174DC
:105D7000012118A8017541750521817500BF05E055
:105D80000E48015D15A80155601CC4B21C2CF7DB40
:105D9000342211A96846FBF79BFE0DA80FC800F03E
:105DA0002BFA074800F08CFA1EB010BDB80B0000AB
:105DB00070170000FE0F0000FE030000F4CE00008C
:105DC000FFCF0300442148430349C96C085CC00964
:105DD00000D0012070470000CC0400200148807BE7
:105DE00070470000CC0400200348406C002801D01C
:105DF0000020704701207047CC0400200149096C45
:105E000008407047CC040020F8B5334E0446F08AB1
:105E10004018F082308B4018002130830D4609E095
:105E200088000019C0B244225043F26C8018491C0B
:105E3000C587C9B2707B80088842F1D82046FFF739
:105E40006BF82046FFF700FB0746042801D9002025
:105E5000F8BD002F0AD02046FFF78AFB0028EDD0BE
:105E60001E480169C906FCD4002FE7D1B08CF18A25
:105E7000884202D8F07A002814D100200DE0810079
:105E80000919C9B244225143F26C8918CA8E0B8F8A
:105E9000D2185208401CCA86C0B2717B8908814260
:105EA000EDD8F582708C318B0127884209D97D218C
:105EB00009012046FFF706FB002801D03770C6E72E
:105EC0003583032C05D1F078002801D0F57000E06F
:105ED000F7700220F8BD0000CC04002000A00140B3
:105EE00030B5134DE88C6864FDF7FEFAFDF7EAFA69
:105EF000002412E02046FEF71DFB00280BD04420B2
:105F0000E96C60434018E978002249004018418E4E
:105F1000204600F067FB641CE4B2687B8442E9D34E
:105F2000002028726872E8636882FFF7A3FB30BD27
:105F3000CC04002070B5174C0546A079002809D183
:105F4000A078002806D0E079002803D1606DA18DEB
:105F5000884202D2E08C606402E0606C002801D0CC
:105F6000002070BD002D02D1E07A401CE072E07A82
:105F700000280AD1E0702846FFF7FAFA002802D07C
:105F80002846FEF7C9FF0120E0702846FFF7F0FA27
:105F9000022070BDCC04002070B5384C002525646B
:105FA000A57300F03FFA00F0A7F92078002808D088
:105FB00000F0ECFBFCF756FF0020FFF75BFB2570C1
:105FC0006572A078002826D00120FFF717FF00286F
:105FD00002D0A07A401CA072A07A617C012688427F
:105FE00032D9A572207A002824D025726572606D9E
:105FF0002349884202D2606D08306065FFF7A4FC37
:1060000000F09EF9E07B002801D0FFF757FCFDF778
:10601000E9F9A67318E0607800280AD06570FCF7EB
:10602000AFFEE570FFF782F90020FFF723FBFDF7D5
:10603000D9F970BD607A401CC0B26072102803D9D3
:1060400065720020FFF716FB1020FFF7D7FE00282F
:1060500006D0FFF70FFC00F015F8202000F046F8FE
:10606000FF200130FFF7CAFE0028E2D001204002E5
:10607000FDF7D6F90028DCD0267070BDCC040020D6
:10608000804F120070B50023174C28E01846FFF728
:1060900099FE002821D01846FEF74CFA00281CD0A3
:1060A0001A4644204243E06C658E1018818FA94245
:1060B00013D90021C186E06C812610188187E06C1D
:1060C000855C6D086D0035406D066D0E85541018A9
:1060D000C187E06C1018403001805B1CDBB2607B34
:1060E0008342D3D370BD0000CC040020F0B5414DF5
:1060F000A98A081880B2A882E98D884201D90020B7
:10610000A882002371E01846FEF714FA00286AD02E
:106110001A4644204243E86C815C8C46C90904D08D
:1061200011180C8FC98E611A15E0141861888E0839
:10613000298E4F00CF197F08BE4203D90326F603EC
:1061400071430E0C218FB14202D9891B89B200E044
:106150000021E48E091B09B2002944D08C1000D123
:1061600001241018068FC18E8E4210D91846FEF7F2
:10617000D7F9002807D0E86C698B1018C08E8842C8
:1061800001D9081A04B2E86C1018C18E29E08E42B9
:1061900029D2664676062F7CF60F3E4218D0184666
:1061A000FEF7BEF90028E86C09D01018C18E028FE6
:1061B0008E1A428F5700D219964212DC13E0101843
:1061C000C18E028F468F8A1A7600B24209DC0AE03D
:1061D000AA8A002A07D1AA79002A04D1828F302AFC
:1061E00001D90919C1865B1CDBB2687B83428AD363
:1061F000F0BD0000CC0400200FB470B508AA2C48F4
:10620000917B0170D17B4170294C6A46908A3A3C5F
:106210006084D08AA084108BFF21C008E084508B5A
:106220002085908B6085908CA085158A0231A81CF2
:1062300080096583081AA083568AE683B01C80090A
:10624000081A2084D08BA086108CE086508C208782
:10625000D08CE085108D208608AA107BB11C401CD4
:106260002073507B607310AA107CE073907C607484
:10627000507C20746A46508D6086A81CFBF77EFB1C
:10628000E065A8023146FBF779FB002304AD2066E8
:1062900007E0E81820300178184600F017F85B1C7A
:1062A000DBB2607B8342F4D370BC08BC04B01847F7
:1062B000060500200149C86470470000CC04002096
:1062C00001490860704700001C0500200A2905D319
:1062D00044225043024AD26C801841877047000024
:1062E000CC04002041030A0C0249C008CA84486457
:1062F00070470000CC04002000B5104A90790028B7
:1063000009D19078002806D0D079002803D1506DAB
:10631000918D884201D2D08C0EE00420FFF76EFDF3
:1063200000280AD0506C002807D09078002804D0AC
:10633000FDF7DAF8506C401E506400BDCC0400201C
:10634000F0B50022164622E01046FEF7F3F80028CA
:106350001BD010464421DB6C4843C1180C8FCD8EF6
:10636000641B1D5C24B26F062C4FCF5F06D57F10D7
:106370007F42A74209DABF24254004E07F42A742BA
:1063800003DD402425431D548E87521CD2B2244B7A
:10639000587B8242D8D31C46E6710023A6710125A2
:1063A00037E01846FEF7C6F8002830D01A464420D9
:1063B0004243E06C815C4F06FF0FC9098F4207D052
:1063C000111840310888FF2805D2401C088002E0DF
:1063D000101840300680E16C277B50184030008850
:1063E000B84207D3885C470640067F0EC00FC00145
:1063F00007438F54885CC00900D0A571885C4006B3
:1064000004D41846FEF78CF8002800D0E5715B1C18
:10641000DBB2607B8342C4D3F0BD00003A000000D1
:10642000CC0400202849C86B00284CD0C86B401E03
:10643000C863488A401C80B24882C20703D10A6CF4
:1064400001231A430A64820703D10A6C02231A4308
:106450000A64420703D10A6C04231A430A64020740
:1064600003D10A6C08231A430A64C20603D10A6CDA
:1064700010231A430A64820603D10A6C20231A43AC
:106480000A64420603D10A6C40231A430A640206D6
:10649000120E03D10A6C80231A430A64C20504D188
:1064A0000A6CFF2301331A430A64820504D10A6C83
:1064B00001235B021A430A64400504D1086C0122DF
:1064C0009202104308647047CC0400200248C16B5C
:1064D000491CC16370470000CC04002001239B03CA
:1064E000C9180143014801608260704700A0014063
:1064F00010B50402054820180160190411434160D9
:10650000016820221143016010BD000000A101407C
:1065100080080102034808180168C0221143016085
:106520007047000000A10140FEB52D4DC9B22A7F81
:10653000C0B2FFF7D3FF0020029001900746064645
:1065400000902FE02648002450300068B100C84079
:1065500005072D0FE80700D00124A80701D5022068
:106560000443680701D504200443280701D5082007
:106570000443002C05D0E423224608213046FFF7CF
:10658000B7FFE80701D001200290A80701D501203C
:106590000190680701D501200090280700D5012748
:1065A000761CF6B20E48407B8008B042CAD80298EA
:1065B000002800D001240198002801D002200443C3
:1065C0000098002801D004200443002F01D00820A7
:1065D0000443E423224608210020FFF789FFFEBD83
:1065E000CC04002010B583081C020B4BE318D960C3
:1065F000022A0AD08007800F07D0012807D002287E
:1066000007D0032800D1196110BDD96110BD99616F
:1066100010BD596110BD000000A1014030B5036DEF
:106620004D000124AC40A3430365036D4D001446A7
:10663000AC402343036530BDCA43C267BFF34F8FED
:106640007047002904D0026901231A43026103E064
:1066500002695208520002617047002A03D0436F5A
:106660000B43436702E0436F8B434367704700006F
:10667000FCB50D78AD0006464036AF190D78AD007B
:106680005036AD1901950D78AD001036AD19009555
:106690000D786D062A0E274DA84203D1032595409B
:1066A000EC4302E001259540EC43224DA84200D185
:1066B00000BF056D25400565436D23401D4DA84273
:1066C00006D18D79CE797600354395402B4302E093
:1066D0008D7995402B434365164DA84209D1C56E6F
:1066E00025402B460D7A4E7A7600354395402B4354
:1066F000C3663D68FF260836B5433D603D684E8859
:1067000035433D604E89019D2E608E89009D2E602F
:10671000084DA84208D10D794E7976003543954051
:10672000066D3543056504E0056D0E7996403543E9
:106730000565FCBD00C0024030B58D0004469034B4
:106740002B191A6030BD8822115070470B8888229F
:1067500013504B8884221350026803231B049A436E
:106760000260026801231B069A43026002688B687C
:106770001A430260044A904202D10B798C221350D2
:106780008A8982677047000000C0024070B500210E
:106790000B46124C1CE0084644225043E26C155C48
:1067A000AD0613D48218D386E26C812682189387B3
:1067B000E26C155C6D086D0035406D066D0E15546C
:1067C0008218D387E26C801840300380491CC9B21C
:1067D000607B8142DFD3A36570BD0000CC04002044
:1067E00010B50020104908707D20C000FFF77AFD29
:1067F0000B20002809DB00BF00BFC206D20E01211A
:1068000091400A4A116000BF00BF00BF03210B2066
:1068100000F06AFC01210220FFF71CF8FFF7BCFB27
:1068200000200349087010BD0A00002000E100E0CC
:106830000B00002070B5054623480078032802DDD0
:1068400000202149087021480078002805D1FCF774
:1068500002FF01201D4908700EE01B490978CC1C7D
:10686000E117890F091989108900611AC8B220211E
:10687000FFF7CAFA1549087014480078002806D0B6
:1068800011480078FFF756FB104908700AE00E48DF
:106890000078401C0C4908707D20C000FFF722FDE5
:1068A000002070BD08480078401C07490870074860
:1068B0000078002801D00120F3E77D20C000FFF719
:1068C00011FD0020EDE700000B0000200A00002071
:1068D00000B587B00020009001900290012189024C
:1068E0000198884340180190090101988843401895
:1068F0000190C90000988843401800900123684621
:1069000007C8FCF7F5FC0022012109031A48FDF72E
:1069100057F80622012149020120FCF763F90622FB
:10692000012109030120FCF75DF9E12040020390F9
:10693000FF210131684601820021418281820020CD
:10694000069003A90D4800F079FA012211460B4880
:1069500000F0E4FA01220021084800F0DFFA0122E9
:106960001146064800F0BEFA192000F09DFB00F029
:10697000A9F807B000BD000000200B400010004047
:1069800010B52B480069FF210131084000282ED0A6
:1069900028488088002805D100220421244800F0DE
:1069A000A1FA24E000241EE022484088224A115C1B
:1069B0001F4800F0A5FA1F494988481CC117090E55
:1069C000091809120902411A8AB21A494A8008466E
:1069D0008088401E81B2174881808088002800D1BD
:1069E00003E0601C84B2012CDEDB00BF00BF104856
:1069F000006920210840002819D00D4800F07CFAD9
:106A0000C1B20E4800880E4A11540C490988481C2E
:106A1000C117090E091809120902411A8AB2074959
:106A20000A8008468088401C81B20448818010BDDD
:106A300000100040FC0E0020FC0D0020F40D002092
:106A4000F40C0020094841880088814204DD074891
:106A500001884088081A704704484088FF210131A6
:106A6000091A024800880818F5E70000FC0E00200B
:106A700010B512488088002801D1401E10BD182092
:106A800000F0F2FA0D488088401E81B20B488180E8
:106A9000182000F009FB0948408809490C5C0749A7
:106AA0004988481CC117090E091809120902411A20
:106AB0008AB202494A802046E0E70000F40D002037
:106AC000F40C0020002104484180018081800348AB
:106AD0004180018081807047F40D0020FC0E002071
:106AE00070B504460D461DE0217816480088164A08
:106AF0001154641C13490988481CC117090E091850
:106B000009120902411A8AB20E490A80192000F0BE
:106B1000ABFA0C488088401C81B20A488180192059
:106B200000F0C2FA2846691E8DB20028DCD1054863
:106B30008088002804D001220421044800F0D2F902
:106B400070BD0000FC0E0020FC0D00200010004075
:106B5000914200D81146814202D908184008704776
:106B60008142FCD20201101A001DC1400809704781
:106B700000B587B0002000900190029001214902E9
:106B800001988843401801904901019888434018B2
:106B900001904901009888434018009001236846FD
:106BA00007C8FCF7A5FB002220212048FCF708FFBE
:106BB000062210210320FCF715F8062220210320CD
:106BC000FCF710F8E12040020390FF2101316846F4
:106BD00001820021418281820020069003A914488D
:106BE00000F02CF901221146114800F097F901221A
:106BF00000210F4800F092F9202201210C4800F0FA
:106C000081F9202200210A4800F07CF90122FF21AD
:106C10000231074800F066F9A8200549486100F0F4
:106C2000B7F8182000F050FA07B000BD00600B4024
:106C30000000044010B530480069FF2101310840D0
:106C400000282ED02D488088002805D1002204215C
:106C5000294800F047F924E000241EE02748408836
:106C6000274A115C244800F04BF924494988481C04
:106C7000C117090E091809120902411A8AB21F49DF
:106C80004A8008468088401E81B21C4881808088E6
:106C9000002800D103E0601C84B2012CDEDB00BFC1
:106CA00000BF15480069C007C00F002823D01CE0B2
:106CB000114800F021F9134908700846017812487C
:106CC0000088124A115410490988481CC117090E3E
:106CD000091809120902411A8AB20B490A800846AA
:106CE0008088401C81B2084881800221024800F05F
:106CF00095F80028DCD110BD000004400C110020E4
:106D00000C100020A301002004100020040F00201C
:106D1000094841880088814204DD0748018840888D
:106D2000081A704704484088FF210131091A0248B7
:106D300000880818F5E700000C11002010B5124873
:106D40008088002801D1401E10BD182000F09CF959
:106D50000D488088401E81B20B488180182000F0C9
:106D6000B3F90948408809490C5C07494988481C1F
:106D7000C117090E091809120902411A8AB20249FB
:106D80004A802046E0E7000004100020040F0020A5
:106D900000210448418001808180034841800180B6
:106DA00081807047041000200C11002070B504464B
:106DB0000D461DE0217816480088164A1154641CBF
:106DC00013490988481CC117090E0918091209023C
:106DD000411A8AB20E490A80182000F055F90C4871
:106DE0008088401C81B20A488180182000F06CF92C
:106DF0002846691ECDB20028DCD1054880880028CD
:106E000004D001220421044800F06CF870BD000099
:106E10000C1100200C100020000004400246012943
:106E200005D190680F231B041840000C7047906830
:106E30000F231B061840000EF8E70000F8B50446C3
:106E40000D4600272646606823490840E988084324
:106E5000A988084329890843E968084360601F49F5
:106E6000701A8E4217D00ADC1D48301800280DD049
:106E700001210903401A13D0401A25D11AE001213B
:106E80000903401A11D0401A1ED118E01820FCF74F
:106E900015FA074618E01A20FCF710FA074613E027
:106EA0001C20FCF70BFA07460EE01E20FCF706FA42
:106EB000074609E00820FCF701FA074604E00A202B
:106EC000FCF7FCF9074600BF00BF38462968FAF70F
:106ED00055FD6062F8BD0000FCE0FFFF00000440CB
:106EE000000000C0002A03D0C3680B43C36002E067
:106EF000C3688B43C36070470146086880B270471F
:106F00000160704730B583684D003024AC40A34326
:106F10004D001446AC402343836030BD10B5002AB9
:106F200005D0436810248C402343436004E0436849
:106F300010248C40A343436010BD00000148024967
:106F4000086070470100A05F008006400FB410B5D4
:106F500003A9044B044A029800F00CFB10BC08BCC7
:106F600004B01847598F0000C40400200FB47CB54A
:106F70000C0009AD01D0611E00E0002101910090DC
:106F8000074B6A462946089800F0F4FA002C02D014
:106F9000009A002111707CBC08BC04B018470000A6
:106FA000B17C00000FB410B504A9074B02AA0398E6
:106FB00000F0E0FA044602A9002000F084FE20461A
:106FC00010BC08BC04B01847C77C00002021020C8C
:106FD00001D010211046020A01D0104608390209DA
:106FE00001D01046091F820801D01046891E4208B0
:106FF00001D0881E7047081A7047F8B582B28BB26C
:10700000040C0D0C10465843002126465E43370CF5
:1070100036048019794116466E43370C36048019C0
:10702000794126466E438919F8BD30B47446641E12
:107030002578641CAB4204D3635D5B00E31830BC6D
:1070400018471D46F8E70000002809DBC206D20EEB
:1070500001219140034A1160BFF34F8FBFF36F8F3F
:107060007047000080E100E0002809DBC206D20E74
:1070700001219140034A1160BFF34F8FBFF36F8F1F
:107080007047000080E100E0002809DBC206D20E54
:1070900001219140034A1160BFF34F8FBFF36F8FFF
:1070A0007047000080E100E0002809DB00BF00BF5E
:1070B000C206D20E01219140024A116000BF00BFFA
:1070C0007047000000E100E0002809DB00BF00BFBE
:1070D000C206D20E01219140024A116000BF00BFDA
:1070E0007047000000E100E010B5002819DB1A4AE3
:1070F00003231B02D21883089B00D2588307DC0E9F
:10710000FF23A3409A438B071B0E8407E40EA34082
:107110001A43114B032424021B198408A4001A519A
:1071200018E00E4A03071B0F083B9B089B00D25830
:107130008307DC0EFF23A3409A438B071B0E8407B3
:10714000E40EA3401A43054B0407240F083CA4088F
:10715000A4001A5110BD000000E100E01CED00E0A9
:1071600010B5002819DB1A4A03231B02D218830822
:107170009B00D2588307DC0EFF23A3409A438B0762
:107180001B0E8407E40EA3401A43114B0324240270
:107190001B198408A4001A5118E00E4A03071B0F9C
:1071A000083B9B089B00D2588307DC0EFF23A340BB
:1071B0009A438B071B0E8407E40EA3401A43054B2A
:1071C0000407240F083CA408A4001A5110BD0000B5
:1071D00000E100E01CED00E010B5002819DB1A4AC0
:1071E00003231B02D21883089B00D2588307DC0EAE
:1071F000FF23A3409A438B071B0E8407E40EA34092
:107200001A43114B032424021B198408A4001A51A9
:1072100018E00E4A03071B0F083B9B089B00D2583F
:107220008307DC0EFF23A3409A438B071B0E8407C2
:10723000E40EA3401A43054B0407240F083CA4089E
:10724000A4001A5110BD000000E100E01CED00E0B8
:1072500010B5002819DB1A4A03231B02D218830831
:107260009B00D2588307DC0EFF23A3409A438B0771
:107270001B0E8407E40EA3401A43114B032424027F
:107280001B198408A4001A5118E00E4A03071B0FAB
:10729000083B9B089B00D2588307DC0EFF23A340CA
:1072A0009A438B071B0E8407E40EA3401A43054B39
:1072B0000407240F083CA408A4001A5110BD0000C4
:1072C00000E100E01CED00E0F7B506460F460025A2
:1072D00020E03C782046FAF7AEFBC4B2FAF79EFBFA
