:020000040000FA
:10300000803F0020C1300000057800006D660000A0
:10301000FFFFFFFFFFFFFFFFFFFFFFFFFFFFFFFFC0
:10302000FFFFFFFFFFFFFFFFFFFFFFFFC17B000070
:10303000FFFFFFFFFFFFFFFF51790000A17D0000B0
:10304000353100009D7A0000353100003531000037
:103050003531000035310000E15800003531000005
:103060007149000035310000353100003980000021
:10307000156300000D7B0000353100003531000084
:1030800035310000854B0000FD4C0000B9670000A1
:10309000996A0000353100003531000035310000FB
:1030A000F5920000918F00003531000035310000AD
:1030B0003531000051740000353100003531000019
:1030C0001D4880471D4880471D4800471D4801692D
:1030D000002908D14169002905D18169002902D15F
:1030E000C169002909D01848C1680901090D0029E2
:1030F0000ED005290CD006290AD0BFF34F8F1348F4
:103100001349016013491248C860BFF34F8FFEE7AF
:103110000E4801680E48884200D070470E480F499B
:1031200001600A480E4901607047FEE7FEE7FEE7CE
:10313000FEE7FEE7FEE70000CD300000A57D0000C1
:1031400065310000000308408001084000000020B5
:103150000400FA0500ED00E00081084001000000D5
:10316000000000000448854601F07EF90048004751
:1031700085E90000C046C046803F002030B50B46C0
:10318000014600202022012409E00D46D5409D4241
:1031900005D31D469540491B2546954040191546C7
:1031A000521E002DF1DC30BD70B5002425460028EC
:1031B00001DA01244042002901DA01254942FFF7E2
:1031C000DDFFAC4200D04042002C00D0494270BD2F
:1031D000F8B500242546002904DA0E460124002112
:1031E0004042B141002B04DA1E4600235242012521
:1031F000B34100F0F9FE8C4617461E46AC4203D0A0
:10320000002540428D41AC46002C02D0002657429A
:103210009E4161463A46334601B0F0BD00487047D2
:10322000684D010010B50446FFF7F8FF0068005D27
:10323000C007C00F10BD01466139192900D82038D8
:10324000704701464139192900D82030704703469C
:103250000B439B0703D009E008C9121F08C0042ACA
:10326000FAD203E00B780370401C491C521EF9D2BD
:103270007047D2B201E00270401C491EFBD2704779
:103280000022F6E710B513460A4604461946FFF732
:10329000F0FF204610BD30B505462A460B46107893
:1032A0001C78521C5B1C002801D0A042F7D0002CD7
:1032B00003D0002802D06D1CEFE7284630BD10B5C2
:1032C000044605E00B780370401C002B00D0491C1D
:1032D000521EF7D2204610BDCAB2401E4178401C93
:1032E0008A4202D00029F9D100207047421C01789F
:1032F000401C0029FBD1801A704710B5002200E065
:10330000521C835C8C5CA34201D1002BF8D1D8B253
:10331000E1B2401A10BD03460A780270401C491CF5
:10332000002AF9D11846704730B5054600200346FB
:1033300000E05B1C934205D2EC5CC85C201A01D112
:10334000002CF6D130BD10B508E00A4602E0A342D9
:1033500008D0521C1378002BF9D1401C0478002CA3
:10336000F3D1002010BD00000FB400B58DB009905E
:103370000B9010A900200091C0430A9000200C90EF
:1033800006480690064807906A4609A80F9900F07B
:10339000E1FE0DB008BC04B0184700007541000004
:1033A00095410000FFB50027FF4383B000205C6813
:1033B00001909E681D46A9697F1C0498884700906B
:1033C000296A88470028F6D10098401C0CD00320B9
:1033D00040028443002E19DD600614D500982B2886
:1033E00009D02D280FD103E00020C04307B0F0BD65
:1033F000012080020443A9697F1C04988847761E37
:103400000090002E02DD0098302803D00598002897
:1034100025D035E0012040020443A969761E7F1CB7
:10342000049888470090002E03DD782805D058289E
:1034300003D00598002810D022E00598002801D07C
:1034400010281DD1012040028443A969761E7F1CEB
:10345000049888470090102002E0082000E00A202D
:1034600005900DE0012149020C43059A0199761E51
:10347000514308180190A9697F1C0498884700905F
:10348000002E05DD0599009800F04FFE0028E9DACE
:10349000E96904988847A00502D40120C043A5E744
:1034A000E00722D1600611D56005019800D54042A1
:1034B00029680A1D2A600968220501D5087014E0F0
:1034C000220701D5088010E008600EE02868011D81
:1034D00029600068210502D50199017005E02107E6
:1034E000019901D5018000E0016038467EE7FFB513
:1034F000002083B000905068019091691446002626
:1035000097680498884705460C990698084305D0A3
:1035100009E0A169761C049888470546216A284677
:1035200088470028F5D1681C03D00198C00704D053
:1035300017E00020C04307B0F0BD2068011D2160E6
:10354000006800900DE00198C00704D10098057054
:103550000098401C0090A169761C7F1E0498884743
:103560000546002F1CDD681C1AD0069800280FD0D5
:10357000E817C00E401941118A00069940095118F8
:1035800040012A1A0968012090400142DBD107E07E
:103590000C980028D7D1216A284688470028D2D025
:1035A000E169049888470C98002807D1002E05DDB2
:1035B0000198C00702D1009800210170A068B842AC
:1035C00004DD0C98002804D0002F02D00120C04355
:1035D000B1E73046AFE70000FFB5087889B015467F
:1035E000FF2805D0491C2D2804D00022002407E024
:1035F00000240BE00122F9E70A235C430419491C6B
:103600000878FF28F8D1002A00D0644200200490F6
:103610002A7801462D2A01D02B2A0FD16D1C2D2A84
:1036200002D00022049209E00122FBE700260A22D0
:1036300033466D1C00F008FD381871412F78FF2FBC
:10364000F4D10C9AA218069202460A4304D0FF2332
:10365000069A9133DA4205DA002109980A4606C033
:103660000DB0F0BD0024B74AB54D2646079200F0D4
:10367000CDFE029006980391002801DA474200E04F
:10368000074639050020AF4A001C514101910090C6
:1036900012E0F80707D022462B463046079900F083
:1036A000EBFA0646079122462B461046194600F0D3
:1036B000E3FA04460D467F10002FEAD10698019BDD
:1036C0000028009A0399029806DA00F03DFB324682
:1036D000079B00F039FB05E000F0CEFA3246079B6D
:1036E00000F0CAFA049A002A02D00122D2075140FF
:1036F000099A03C2B4E7FFB591B0002009900025F4
:10370000ED432E209E685C681F460190B9696D1CD0
:10371000129888470090396A88470028F6D10098A7
:10372000401C0AD00D20C0018443002E12DD0098F9
:103730002B2809D02D280DD103E00020C04315B05F
:10374000F0BD012080020443B9696D1C12988847BE
:10375000761E009003A9600501D52D2000E02B20E6
:103760006A461073491C0CA80F9102900AE0B969CF
:103770006D1C129888470090012040020443139862
:10378000761E0560002E02DD00983028EFD00199EA
:103790000098884246D18020044308E00998401EE2
:1037A00009900120400204431399681C0860B9691C
:1037B0006D1C761E1298884700903028EED031E0BC
:1037C0000199884205D1200603D480200443761E47
:1037D0001EE0009806F068FB002826D00120400279
:1037E000044307A90F980331761E88420BD2009834
:1037F0000F99303808700F98401C0F90200607D59D
:103800000998401E03E0200602D40998401C099044
:10381000A00502D51399681C0860B9696D1C12983F
:1038200088470090002ECBDC59E0002E57DD009831
:10383000652801D0452852D1A00550D503200002AB
:103840008443B9696D1C761E129888470090002E3B
:103850000CDD2B2804D02D2808D1FF200130044393
:10386000B9696D1C12988847761E0090E00501D555
:103870002D2100E02B21029801700298401C02903B
:10388000019025E00120400204430EA90298013175
:10389000761E88420ED20098029930380006000E3B
:1038A000087003D10299019881420AD90298401CFC
:1038B000029006E0E00501D5234801E0224840429D
:1038C0000990B9696D1C129888470090139805609B
:1038D000002E04DD009806F0E7FA0028D2D1F9693D
:1038E000129888470F99FF200870029903AA087060
:1038F00000200A900B900CA90AA8099BFFF76CFE08
:10390000A00502D40120C04319E72420044209D0B5
:10391000E00713D138680B9A0A99031D3B600068D1
:1039200006C00BE00B990A9800F02EFB0146E00759
:1039300004D13868021D3A60006801602846FEE63E
:10394000000014400000F03FF1D8FFFF70B50646BC
:1039500006F054F8046805460A220021304600F0BB
:103960007DFC2C6070BDF8B502464A40D40F420081
:103970004B0052085B089A4202D2024608461146A2
:103980004A0023D0C30D4A00DDB2120EAD1A202D1D
:1039900035DA49020126490AF6058A19002C00D0B9
:1039A000524220214F1B1146B9402A411018C20D26
:1039B0009A4221D0002C17D0012D08DCDA05801A9C
:1039C000D20F8019D207DBB200F088FCF8BDDA050F
:1039D000801A012340001B06C01880185A42801824
:1039E000CA0F1043490007E04908C2071143DA052E
:1039F000801A80194008801800F068FCF8BD61004A
:103A00000122511A001BF7E70122D2075140AAE711
:103A10000122D2075040A6E7024670B54A40D30FB4
:103A2000DB0740002DD04A002AD0010E140E000200
:103A300012020919400A520A8418E5010446544347
:103A4000000A120A2E045043A4194219200CC5433F
:103A5000AA18120C0125AD03521C521912047F3909
:103A6000240400D0521C104301D44000491EC2B2AD
:103A70000C06C0092018401C4008802A02D003E030
:103A8000002070BD40084000002900DA00201843E3
:103A900070BD70B502464A40D50F40004A00ED07A0
:103AA00040085208002814D0002A12D0C40DD30DAB
:103AB00041020120C0055202490A520AE41A0918BB
:103AC00012187D34914201D3641C00E04900002C9F
:103AD00001DA002070BD0023914201D3891A03430B
:103AE000400849000028F7D100290AD0914202D1AC
:103AF0000121C90705E0914201D2012101E0012124
:103B0000C943E005C018401900F0E0FB70BD00009B
:103B1000F0B507460846584087B0C00F04904800EB
:103B20000E46590040084908BC1A884105D238465B
:103B300031461E4617460B460246580040081043C1
:103B40004DD0300D039040055900400D490D0590B2
:103B5000401A0290402873DA18030121000B09056E
:103B60000843019004980092002806D01146019A5B
:103B700049420020904100910190029840210A1A88
:103B80000199009800F09DFA05460C466B4607CB5C
:103B900000F0B8FAC0197141039A0E0D0023D7172F
:103BA00056401A467A40164344D0049A002A2DD033
:103BB000029A012A039A15DC1205C01A91410126C6
:103BC0003605001C7141D20F059ED2070093019269
:103BD00002962A46234600F0C7FB07B0F0BD3846E0
:103BE0003146FAE71605234A0F46B218C01AB74104
:103BF00001210905001C4F4100187F41114618188A
:103C00007941E20F10436D19644113E0E2076D083A
:103C100015436408C2071443039A01261205C01A0B
:103C200091413605001C7141CE07400830434908D8
:103C3000C01851412A46234600F089FBCDE7FFE733
:103C4000049801224000C117121A00238B410498E6
:103C50003146C417381AA141EEE730B40124E40715
:103C6000634030BC54E730B40124E407614030BC09
:103C70004EE700000000E0FFF0B51FB488B00B99DC
:103C80000998002448400999C00F49004908099142
:103C9000C0070B990090490049080B9109990898B1
:103CA000A64608431CD00B990A98084318D00998D7
:103CB00001244000420D4800410D099824050003ED
:103CC000000B204309900B980003000B20430B903E
:103CD00050181C494018002201901446104605E077
:103CE000002001460DB0F0BD032801DA034600E0D4
:103CF00003239C46C11A0AAE0AE05F0008ADED5BE3
:103D00004F00F75B7D430027AA187C41491C5B1ECE
:103D10006145F2DD410004AB5A522104120C0A4302
:103D2000240C401C0828DFDB0198029000997046A3
:103D300001910090059B049A0799069800F014FBE6
:103D4000D0E700000DFCFFFFF0B50C465C4085B0ED
:103D5000E40FE40703944C000026640859009446DD
:103D6000490802460296224321D062460A431ED0E9
:103D70006200570D4A000E032303550D012402462D
:103D80002C492405781B1B0B360B40182343264374
:103D9000614600901C46501AB44103D30098401C61
:103DA000009002E0921800985B41002803DA00209E
:103DB000014605B0F0BD00200121090507468646F1
:103DC00011E064461D46141BB54106D36546521BDF
:103DD000B341744607430C43A646CD074008490843
:103DE000284392185B4105460D43EAD1104618431B
:103DF00013D06046194650407140084306D06046D3
:103E0000101AB34106D20122002306E0002201234A
:103E1000DB0702E00122D2435310009874460105EB
:103E2000381C6141029C039D0019694100F08FFA22
:103E3000BFE70000FD030000C217C10F504010B5DE
:103E40004018CA079623002100F048FA10BD10B5AB
:103E500000229623114600F041FA10BD0EB5C2179C
:103E6000C10F5040CA0740180021054B0293019230
:103E700000910A460B4600F077FA03B000BD00003F
:103E8000330400000EB505490291002100910A4655
:103E90000B46019100F068FA03B000BD3304000046
:103EA000410040020122400AD205090E80187F29F4
:103EB00001DA00207047962903DC9622511AC84087
:103EC000704796398840704770B5CD0F4A00090396
:103ED0000123090B1B0519430B4BED070024520D61
:103EE0009A4201DA002070BD074B34339A4203DC5A
:103EF0009A1A00F0F6F802E00449511888402C4361
:103F0000F1D0404270BD0000FF030000CDFBFFFF79
:103F1000C20FD207400040080BD0C10D0723DB01C0
:103F2000C91840020905400A1143C208400711435D
:103F3000704700200146704710B5002904DB0124BA
:103F4000E40740428C412146002B04DB1C46012340
:103F5000DB075242A3418B4200D1824210BD0000D8
:103F600010B5002904DB0124E40740428C412146BE
:103F7000002B04DB1C460123DB075242A34199427C
:103F800000D1904210BD0000CB0FDB07490010B5F7
:103F9000490802460A4307D00A0D07240903E40131
:103FA000090B121B002A01DC002010BDC900440FC0
:103FB0000C43C100E018D205801800F087F910BD4D
:103FC0000122D207002800DB101A002900DB511A59
:103FD000814270470122D207002800DB101A002915
:103FE00000DB511A88427047F0B51FB40646002026
:103FF00082B005464024019100901BE001992246C1
:104000000F46304600F06DF8049A059B801A9941DE
:1040100010D310461946224600F053F8361A8F4145
:104020000197224601200021009F00F04AF838182D
:104030004D4100902046641E0028DFDC019B009863
:104040002946324607B0F0BDF0B51FB486B0002057
:104050000090019002900698069980B2049007980B
:10406000090C02040014114307900027089D0998C9
:1040700006913E463C4603900398A9B20204000C08
:10408000039004982D0C154348430021224600F06C
:1040900018F8C719714110340E46402CECDB384635
:1040A000029A00F00EF8009A019B80180090594186
:1040B00002980191103002904028CCDB00980BB0A0
:1040C000F0BD10B5202A04DB0146203A91400020C3
:1040D00010BD914020239C1A0346E34019439040B1
:1040E00010BD10B5202A04DB0846203AD04000213C
:1040F00010BD0B46D340D0402024A21A9140084363
:10410000194610BD10B5202A06DBCB170846203A09
:104110001041C1170B4306E00B461341D040202449
:10412000A21A91400843194610BD3A2800D23038EF
:10413000202302469A43412A01D310463738884249
:1041400001D30020C0437047026813785118016002
:104150001846704710B5D160044951610449116295
:1041600000211161114600F091F910BD4941000094
:10417000253200004268002A08D001680B78491CEB
:10418000002B03D0521E06C0184670470121C160A3
:10419000881E70474268002A0BD0C3680168002B54
:1041A00007D183688B4204D0491E521C06C00020F0
:1041B00070470020C04370470FB400B589B00CA908
:1041C00000910B990023CB60204B214A0693079264
:1041D000042201921F4A02921F4A089202466B462D
:1041E0000020FFF788FA09B008BC04B0184770B582
:1041F00086B006460020C0430190002015460C46BC
:104200000091029104903246694604A8FFF7D4FF5A
:10421000024604982118002D05D0002801D0084638
:1042200000E020462860049800280DD0002A02DD16
:104230000098884208D0081B0190009432466946D5
:10424000029404A8FFF7B8FF06B070BD75410000E6
:1042500095410000FFFFFF7F25320000F7B5009C6D
:104260000F4600262578641C002D05D0FEF7D6FFEA
:104270000068405DC007F5D12B2D02D02D2D18D040
:10428000641E39462046029A00F09EFA002F04D0A0
:104290003968A14201D100993960710502240029D1
:1042A0000BDA4042002803DD05F0A8FB0460A007FC
:1042B000FEBD012080020643E3E70028F8DA05F09E
:1042C0009DFB04600048FEBDFFFFFF7F002904DA6C
:1042D000401C490001D140084000704770B40024E0
:1042E000050C05D11024000402D1002921D011248D
:1042F000050E01D100020834050F01D10001241D73
:10430000850F01D18000A41C002801DB4000641C43
:10431000002908D020252E1B0D46F540A14000D0D5
:1043200001212943084301061B1B000ADB1D02D59E
:10433000002070BC7047DB05181880180029F8DAD7
:10434000401C4900F5D170BC40084000704710B5D2
:10435000002B08DA0024401C614192185B411A438B
:1043600001D14008400010BDF0B51FB482B0054631
:104370000C0003D0084605F091F902E005F08EF933
:1043800020300246009021462846FFF79AFE049B03
:10439000059A04460F4618431143084314D01846A3
:1043A00010431BD0009840210A1A18460599FFF7C0
:1043B00098FE05460E46009A05990498FFF781FE7F
:1043C000084305D0012004E02046394607B0F0BD7F
:1043D0000020C11705430E432C43374300990E9824
:1043E0006305401A7905E40A00220C43FD0A0A30ED
:1043F00002D500200146E9E70105101969410C9C2E
:104400000D9D00196941FFF7A2FFDFE70EB5054AD0
:1044100002920022009213460192FFF7A5FF03B01B
:1044200000BD0000330400004A0009030123090B0A
:104430001B0519430A4B10B5520D9A4202DA0020AF
:10444000014610BD064B34339A4203DC9A1AFFF73B
:1044500048FE10BD034BD218FFF733FE10BD00001D
:10446000FF030000CDFBFFFF064C0125064E05E0D3
:10447000E36807CC2B430C3C98471034B442F7D385
:10448000FEF774FE6C5301008C530100F3B58DB040
:1044900000200A9001200B90002608460C300C46A4
:1044A00009906269012109989047051E2ED0252D9B
:1044B0002DD0216A8847002818D062690121099807
:1044C0009047216A88470028F7D1411E6269099800
:1044D000904700E0761CA1690D988847216A8847BB
:1044E0000028F7D1E1690D988847DAE7A1690D98AE
:1044F00088470746A84201D1761CD2E7E1690D98AA
:1045000088477F1C02D10A98002877D04AE100270B
:1045100062693D463946099890472A280CD162695C
:10452000012109989047012506E00A214F433F18D1
:10453000303FEBD410200543626901210998904770
:10454000014630390A2903D29C498F42DEDCECE770
:10455000E90600D49A4F6C280AD04C2810D068285D
:1045600024D06A282ED074280CD07A280AD00DE0E6
:1045700062690121099890476C2823D004211CE02E
:10458000202005436269012109989047A760656072
:1045900065284FD026DC582839D01ADC452849D068
:1045A00012DC252834D04128B0D143E062690121D2
:1045B00009989047682802D008210D43E6E70120BA
:1045C000C002DEE70220DCE7462833D047282CD1A2
:1045D00030E05B2870D061282CD063286CD0642830
:1045E00023D161E06F284FD009DC662822D06728EC
:1045F00020D0692826D06E2817D12EE0CEE0702872
:104600004DD073286FD075284ED078280DD154E046
:10461000A1690D9888470546252800D16CE7E16916
:104620000D9888476D1C00D16DE7BBE00A224CE075
:104630000A2252E0012023466A46C0430D99FFF743
:104640005AF8A4E02846402108436060A8072346A2
:1046500001D5002239E000223FE0E80700D020E742
:104660002068011D21600068290501D5067018E742
:10467000290701D5068014E7A90703D5F1170660BD
:1046800041600EE706600CE7284640210843606061
:10469000A807234601D5082217E008221DE0494952
:1046A00028460840606016E02846402108436060C4
:1046B000A8072346BCD5B9E715E0284640210843A2
:1046C0006060A80707D5234610220120C0430D993A
:1046D000C046C0465BE0234610220120C0430D992E
:1046E000FEF760FE53E000210C910B460091632819
:1046F00002D05B2808D044E02079C00601D4012014
:10470000A060012000903CE0626901210998904777
:104710005E2805D101200C900146626909989047F6
:104720002169002906D10B4601AA8F00491CD351EB
:104730000829FADB002835D0216900290ED1C117DC
:10474000C90E09184A11930001AA9A18490949018A
:10475000411A0120136888400343136062690121F4
:10476000099890475D28E5D10C98002808D00020D2
:1047700001AB81005A58401CD2435A500828F8DB3C
:1047800001AB01202246C0430D99FEF7B0FE002880
:104790000ADA401C06D10B98002803D00020C04341
:1047A0000FB0F0BD0A98FBE7E90702D10A99491C4E
:1047B0000A91361800200B9073E60000CCCCCC0C8C
:1047C000FFFFFF7FF1F7FFFFF7B582B0029C0027E4
:1047D0002078641C15460197302802D0002D15D092
:1047E00015E020780127641C782804D0582802D0CE
:1047F000002D09D00BE0002D01D0102D07D100278E
:1048000010252078641C02E0082500E00A25002617
:10481000009610E00099012769430818020C294608
:1048200080B2714300908E183804864201D3012073
:1048300001902078641C2946FFF777FC0028E9DA0C
:104840000398002805D0002F01D0641E00E0029CD0
:1048500004600198002806D005F0D0F8022101601C
:10486000C81E05B0F0BD009930040843F9E770B5E3
:104870008C180578401C6B075B0F01D10378401C36
:104880002A1106D10278401C03E006780E70401C05
:10489000491C5B1EF9D12B0705D40023521E0DD4F1
:1048A0000B70491CFAE70378401CCB1A921C03E0FA
:1048B0001D780D70491C5B1C521EF9D5A142D8D33E
:1048C000002070BD8C2211507047002904D002686E
:1048D00080231A43026003E0026880239A43026047
:1048E000704700000EB50020009001900290012159
:1048F000090602988843401802908912019888435B
:10490000401801900123684607C800F071FD174860
:1049100000F085F802228021002000F0B1F8062185
:10492000102000F085FD0023012202210F4800F035
:104930005FF800210D4800F077F800231A4609219E
:104940000A4800F03AF80121084800F061F8012215
:104950001146064800F022F801210448FFF7B5FF90
:104960000121024800F062F80EBD00000000014085
:1049700010B501210648FFF7A5FF0548006B0005AB
:10498000000D0449086001200349087010BD0000B3
:1049900000000140C0040020C404002010B5002A1B
:1049A00005D080231B580B438024235004E0802330
:1049B0001B588B438024235010BD70B50C469510B6
:1049C000AE00051DA9599507EE0E1F25B5402B46D3
:1049D0000D469D4329469507EE0E2546B5402B46CC
:1049E0000D461D4329469510AD00061D715170BD41
:1049F00070B5032900D100BF5C1E2404551E2D0292
:104A00002C430C430568802635402C43046070BD60
:104A1000CA06D20E02674A0952014267704701680E
:104A2000402211430160704701627047002904D0A1
:104A3000426F01231A43426703E0426F520852005B
:104A40004267704730B50A4600230021072801D984
:104A5000012308389C00094D6419216885000F2442
:104A6000AC400D46A543294685001446AC40214381
:104A70009C00024D6419216030BD000000200240FE
:104A8000F7B50B46009DED00154EAA190020002435
:104A90000027002120E000240027FF258D401D4035
:104AA000002D17D000200FE01D46C54001268E4086
:104AB0003540002D07D086000F25B5402C438600D9
:104AC000029DB5402F43401C0828EDD31568A5432F
:104AD0003D431560121D08310829DCDDFEBD0000D4
:104AE0002020024000200349087003480068034961
:104AF00008607047A0010020A00000209C01002059
:104B0000FEB5002000900190029001210904029856
:104B10008843401802900123684607C800F068FCEB
:104B20000E480068012104F0D0FD04467D22D20029
:104B30000023FEF74DFB06463146094800F037F9E1
:104B40000021074800F035F90121054800F023F95C
:104B50000121034800F013F9FEBD00003C050020D0
:104B60000060074070B504460548056801E001F0A3
:104B700009FC03480068401BA042F8D370BD000048
:104B8000A000002010B5364800F0F2F803F0F2FF64
:104B900034480068401C3349086033480068401CB2
:104BA0003149086031480078012804D13048008834
:104BB000401C2F4908802F480088401C2D49088040
:104BC0002D480078042801D12C4800E02C482949C0
:104BD0000988884209D228480078042801D127484A
:104BE00000E02748401C2349088026480088401CD4
:104BF0002449088020480078042801D11F4800E09B
:104C00001F4820490988884209D21B480078042897
:104C100001D11A4800E01A48401C1A49088001F0E6
:104C2000B7FE02F053F81021174809F0FDFA1021E1
:104C3000164809F02BFB16480088401C14490880D0
:104C400008460088C82809DB002008801148006B4E
:104C500010210840002801D004F0D8FC10BD00004D
:104C600000600740A0000020A400002024050020D0
:104C70002805002090040020EE010020E0930400AD
:104C800060EA0000A0040020D2080020E208002012
:104C9000B800002000800840FEB500200090019080
:104CA0000290012149040298884340180290012390
:104CB000684607C800F09CFB0E4800687D21C900CB
:104CC00004F003FD04467D22D2000023FEF780FAA3
:104CD00006463146084800F06AF80021064800F010
:104CE00068F80121044800F056F80121024800F05C
:104CF00046F8FEBD3C0500200070074010B5154881
:104D000000F036F801201449086014480068401C7F
:104D10001249086012480068401C11490860114897
:104D20000068401C0F4908600F480088401C0E496D
:104D3000088007F067FD07F04BFE0FF009FA0B48FB
:104D40000078002801D1012000E000200749087008
:104D500010BD000000700740A8000020AC0000203B
:104D6000B0000020D0040020B4000020B6000020D5
:104D70004168490849004160BFF34F8F70470029DF
:104D800004D0026804231A43026003E0026804238B
:104D90009A4302607047002904D0026801231A4335
:104DA000026003E002685208520002607047C1606E
:104DB0007047816070470000F0B5364E0120B0703A
:104DC00000252F462EE0284602F042F8002827D181
:104DD0002C4644204443F06C015DCA0701D089078A
:104DE0001ED4B7702018C28D416889184160F06CDC
:104DF0002018028E816889188160F06C2018417833
:104E0000491CC9B2417010290AD3F06C0021201846
:104E10004770284603F0D4F80121284603F0D0F863
:104E20006D1CEDB2707B8542CDD3B07800282FD0B9
:104E3000002329E0184602F00BF8002822D11A4678
:104E400044214A43F16C144851188881F16C51187F
:104E50000882F16C51188882F16C51180883F06C4B
:104E60001018C781F06C10184782F06C1018C782B8
:104E7000F06C10184783F06C1118088E0887F16CDD
:104E80005118C8865B1CDBB2707B8342D2D377712A
:104E9000F0BD00005C050020FFFF0000F0B51F4DD5
:104EA000E88C68640026374630E0304601F0D0FFD9
:104EB000002829D1344644204443E86CFD22015D9A
:104EC000490849001140015520184770E86C01213C
:104ED00020184760E86C490220188760E86C0022BF
:104EE00020184186E86C20188186E86C20184185DE
:104EF000E86C20188185E86C2018C785E86C2018BC
:104F00000786304603F0B6FE761CF6B2687B864212
:104F1000CBD3AF706F70EF70F0BD00005C05002068
:104F200070B505460C46002D02D0012D74D174E0F9
:104F3000002C4DD028460FF0E7FB744800887449D8
:104F400008800A20714908800120724908706F4862
:104F50000078487000207049088002206F4908706E
:104F60006D4800786E4948706B48807800282AD0D8
:104F700000206949C870087188704871002166482E
:104F80008171C171017267480078012803D10D2039
:104F900002F0BEFA00E000BF63480078092811D192
:104FA0006048007801280DD15B4A1178574A107883
:104FB0000FF028FC5849087802F024FB022007F083
:104FC0006DFF01E000E000BF01205049487223E07E
:104FD0004F4800884D49088001204E4908704C48D0
:104FE000007848704949087802F00CFB4A4A117869
:104FF000464A10780FF006FC44480088002805D087
:105000004248018828460DF02DFC02E0474806F092
:10501000C7FD00203D49487275E0002C4DD0284660
:105020000FF072FB3C480088394908800A203A4951
:10503000088002203949087037480078384948709C
:105040000020324908800120324908702F4800783A
:1050500048702E48807800282AD000202B49C8703C
:10506000087188704871002128488171C1710172EE
:105070002C480078002803D10D2002F049FA00E006
:1050800000BF29480078092811D126480078002857
:105090000DD1214A11781D4A10780FF0B3FB1B493E
:1050A000087802F0AFFA022007F0F8FE01E000E015
:1050B00000BF01201849487224E0154800881649AD
:1050C000088002201549087011480078144948707A
:1050D0001149087802F096FA0F4A11780B4A1078B5
:1050E0000FF090FB0C480088002805D00A48018882
:1050F00028460DF0B7FB02E00D4806F051FD0020F8
:105100000549487200BF00BF70BD0000F2080020D2
:10511000EC01002071010020FE080020E2080020C0
:105120007901002088010020EE010020C00100204C
:10513000D00100207FB5044600200190029003902A
:10514000012189030298884340180290890303983B
:10515000884340180390012301A807C800F048F9CC
:105160000D2210210320FFF78BFC21462248FEF779
:1051700005F8451E03216846418005800021017124
:1051800000200290FF2101316846818169461B4859
:1051900003F024FEFF210131184803F095FD0021A2
:1051A00068460170072141800021017141718171C0
:1051B000C171017201214172691C3C2251430846B0
:1051C0006421FDF7DBFF81B26846418100218181C6
:1051D00069460A4803F094FD0D20002809DB00BF52
:1051E00000BFC206D20E01219140054A116000BFE6
:1051F00000BF00BF7FBD0000C0E1E40000400340ED
:1052000000E100E070B504460D462046FFF792FF2E
:10521000A1B200232A46012000F002F870BD000070
:10522000FEB505460C4616461F4621462048FDF7AA
:10523000BBFF401E01900199491C3C225143084686
:105240006421FDF79BFF00901A48057021467143C9
:1052500008467D21C900FDF7A7FF174908802146B0
:10526000794308467D21C900FDF79EFF1349088058
:10527000114800880988401811490860019881B2D6
:10528000104803F0A8FD009882B200210D4803F0F9
:105290009BFD012211020B4803F027FD0122002192
:1052A000084803F003FD0121064803F012FDFEBD8E
:1052B000C0E1E400F4030020F6030020F80300201E
:1052C000FC03002000400340884202D9401A80B20B
:1052D000704700207047000070B504461748406BC7
:1052E0004607760F00F02EF82060330004F005FA30
:1052F000081605080B16160E12162068606010E0DE
:105300000F4860600DE00E4860600AE00120C003B5
:10531000606006E07D200002606002E000206060C6
:1053200000BF00BF0548056A052D02D3606840092B
:1053300001E06068E840A06070BD000000800840A7
:1053400000127A00F0B51B480068FF27013738408B
:10535000040A1848C069C50F164840687F003840E5
:10536000460A002E01D10020F0BD002C01D11248C8
:1053700000E0114802460F4FBF69FF00F80F1746C3
:10538000C7403A46012D01D11046EDE70948806932
:105390000F27FF053840C10D002900D11021054815
:1053A000806903277F053840430D10464843D840A5
:1053B000DAE700000080084000127A007EB504465B
:1053C000002560118000094946182E2C00D10225C5
:1053D000E406E40E0321A14030680840E04045198E
:1053E0006846FFF779FF0298E8407EBD38800840A4
:1053F0003FB50E4C606AE16A226B0446009DAC43E7
:1054000020460C46019DAC4321461446029DAC4308
:105410002246002B05D0009C2043019C2143029C86
:105420002243024C6062E16222633FBD008008407B
:10543000054A926A072383409A430B4683401A43E6
:10544000014B9A62704700000080084010B5034687
:10545000084843606520074C206003E00878054C4D
:105460002073491C1046521E0028F7D1014880685D
:1054700080B210BD00A0084000B587B000200190A8
:10548000029003900121490301988843401801903C
:10549000012301A807C8FFF7ABFF01206946087484
:1054A0000548006805900020069004A9034800F014
:1054B00007F807B000BD0000A404002000A00840C9
:1054C00002464B6853600B78002B06D0012B06D0A8
:1054D000022B06D00F2B06D106E0002006E0652047
:1054E00004E0E62002E000BF886800BF00BF106053
:1054F0007047000010B500200C4B012498645A7BC3
:1055000011E0986C521E40009864D0B201F0AAFCE1
:10551000002807D0D0B203F047F8002802D0986CDA
:1055200020439864D2B2002AEBD110BD5C05002064
:10553000F0B5274C0746A0790025002805D1A078B2
:10554000002802D0E079002801D0A5653DE00023C5
:105550001A4622E0104601F085FC00281BD01046B8
:1055600044214843E16CE68E4018018FB14206D9D0
:10557000418E00290FD0808E00280AD10BE0A68E24
:10558000B14208D2468E218F8E4204D2808E88424C
:1055900001D2627B0123521CD2B2607B8242D9D3FA
:1055A000002B05D0A06DC019A065E08C606400E000
:1055B000A565606DA18D884201D3608D00E0208DCE
:1055C000A16D814201D90120F0BD0020F0BD000095
:1055D0005C05002010B500200649024606E0442381
:1055E000CC6C43431B19401CDA87C0B24B7B9842FA
:1055F000F5D310BD5C0500200348FF21C1720021D6
:10560000C1820183704700005C050020F0B587B0BF
:105610000020049005900690A8480078042801D145
:10562000A74800E0A748A8490988884272D2A34841
:105630000078042801D1A24800E0A248A3490988C3
:105640008842F3D202F01EFA0446A1480068039093
:1056500000F0BCFD02F020F802F044F801F008FB75
:10566000059840084000401C059002210598884399
:10567000801C059049020598884340180590491000
:105680000598884340180590C90406988843401837
:1056900006904900059888434018059049110698DE
:1056A00088434018069010210498884310300490D5
:1056B00049020498884340180490C900049888431C
:1056C0004018049049000498884340180490490009
:1056D000049888434018049049000498884340186F
:1056E0000490C9120698884340180690002304A825
:1056F00007C8FFF77DFE012000F06EF900250020AD
:1057000002902CE00220002805D0012807D00228B2
:105710000DD108E0D0E0012002F00AF907E00120F5
:1057200002F086F803E0012002F0BCF800BF00BFE1
:1057300065480088002803D06448008800280DD1FF
:105740006420019000BF0198411E01910028FAD108
:1057500002F098F905460120029008E000BF5A487F
:105760000088002803D0594800880028CAD100BF0B
:10577000029800280BD16420019000BF0198411EBF
:1057800001910028FAD102F07DF9054600BFA5423B
:1057900001D32E1B04E00020C043001B4019461C0F
:1057A0007709002F18D00399C8194949096881421F
:1057B00011D2474A1268811A454A12685218444B5E
:1057C0001A60444A1278002A04D0434A12685218D8
:1057D000414B1A6000BF00BF059840084000401CC4
:1057E0000590022105988843801C05904902059880
:1057F0008843401805904910059888434018059043
:10580000C9040698884340180690490005988843C3
:1058100040180590491106988843401806901021B9
:105820000498884310300490490204988843401833
:105830000490C900049888434018049049000498D3
:105840008843401804904900049888434018049005
:1058500049000498884340180490C9120698884368
:1058600040180690012304A807C8FFF7C1FD00F007
:1058700039FF01F0A9F800F055FB02F06AF803F0D7
:1058800033FB03F0D7FC01F045FD02F0D3F8FFF73E
:1058900003FA07F01FFAFFF725F8FFF7EDFD0121E6
:1058A00049030E4800F090FC012189030B4800F0E9
:1058B0008BFC00F0AFFA00BF07B0F0BDEE01002096
:1058C000E093040060EA0000A0040020900400209F
:1058D000AC000020D4040020D004002000200B40A5
:1058E00010B5072000F01AF8082000F017F809207A
:1058F00000F014F8072000F01BF8082000F018F85A
:10590000092000F015F800200249088002490880AB
:1059100010BD0000A00400209004002001460122D8
:105920008A401046014A50609060704740400240F3
:1059300001218140024A9161BFF34F8F70470000FF
:10594000404002400279D207037A1B071A43C388FA
:105950001A43114602689200014BD2181160704739
:1059600000400240012907D1074A12680123834001
:105970001A43054B1A6006E0034A1268012383406C
:105980009A43014B1A6070474040024010B5012A0B
:1059900018D1002907D10F4B5B6901248440A34330
:1059A0000C4C636106E00B4B5B690124844023438C
:1059B000084C6361074B1B69012484402343054C59
:1059C000236106E0034B1B6901248440A343014C7F
:1059D000236110BD40400240012806D106490969F3
:1059E000C2071143044A116105E0034909694900EE
:1059F0004908014A1161704740400240F8B5192634
:105A000036037F27BF0235460AE0284600F03AFAFF
:105A10000446002C01D00020F8BD012080022D1882
:105A2000BD42F2D9002000F017F90120F4E7000090
:105A3000FFB5FFB0FFB087B02949FFA841614069B9
:105A400014214843192109034718B80A8502002484
:105A500005E0A0002858A10004AA5050641CFF2CA7
:105A6000F7D9781B81080391002407E00021C9437E
:105A700003980019800004AA1150641C052CF5D36A
:105A8000284600F0FFF90646002E04D000207FB023
:105A90007FB00BB0F0BD002412E0A00004A90858AC
:105AA000401C00280BD0A20004AB9958A20050194A
:105AB00000F0F4F90646002E01D00020E7E7641C50
:105AC000FF2CEAD9FFA8C26B016C406A01920291D7
:105AD0000090FFA814300FC800F062F8D7E700006C
:105AE0008B050000F0B589B007460E461C2102A8C0
:105AF000FDF7C6FB142070431921090345182C68D3
:105B000068460472200A03906C68210603980843D3
:105B10000390200A0490AC6821060498084304907E
:105B20002002010C68468182E86807902869089085
:105B3000039A0499891A6A46928A51430846FEF7E5
:105B40007BF906490190FDF7A4FF06901C2202A9EB
:105B50003846FDF77CFB09B0F0BD00000000614550
:105B6000632080020068704710B50A4B00210CE0EA
:105B700088000B24A4020019026A501C002800D1DE
:105B800002E088001A5000BF491C0829F0D3012008
:105B900010BD0000E80400200B2080020068704760
:105BA000FFB585B016461F461421059848431921B4
:105BB0000903451814200390284613300290254904
:105BC0000298884202D9002009B0F0BD300206993F
:105BD000084304902846049900F060F90446002C1C
:105BE00001D00020F0E7300E390208430490281D50
:105BF000049900F053F90446002C01D00020E3E79B
:105C0000380E0E990902084304902846083004997A
:105C100000F044F90446002C01D00020D4E70F988E
:105C2000019028460C30019900F038F90446002C08
:105C300001D00020C8E71098009028461030009945
:105C400000F02CF90446002C01D00020BCE7012014
:105C5000BAE7000000FF0100F0B5FFB0FFB085B06B
:105C60000746632080020168FFA8C160C068B8428F
:105C700004D101207FB07FB005B0F0BD6326B6022D
:105C80003046801B8108FFA88160C068401C002846
:105C90000AD13946304600F001F90546002D01D100
:105CA0000120E7E70020E5E7002405E0A0003058E8
:105CB000A10001AA5050641CFF2CF7D9FFA88068EE
:105CC000800001A90F50304600F0DCF80546002D99
:105CD00001D00020CEE7002412E0A00001A908585E
:105CE000401C00280BD0A20001AB9958A2009019CB
:105CF00000F0D4F80546002D01D00020BAE7641C5E
:105D0000FF2CEAD90120B5E7F0B5FFB0FFB087B0AE
:105D10003E4F0B208002016AFFA801610021C16093
:105D2000002410E0A1000B2292028918086AA10049
:105D30007958814206D0411C002903D00121FFAAD5
:105D4000D16002E0641C082CECD300BFFFA8C0683F
:105D500000283AD00B26B6020196002406E0A100E6
:105D600001984158A00002AA1150641CFF2CF6D9DA
:105D70002748801B81080091002407E0A0003A58C2
:105D800000990819800002A90A50641C082CF5D358
:105D9000304600F077F80546002D04D000207FB093
:105DA0007FB007B0F0BD00240CE0A20002AB995810
:105DB000A200901900F072F80546002D01D00020D5
:105DC000EDE7641CFF2CF0D91DE0002419E0A000D1
:105DD0003858FFA94861A0000B2189024018066AC3
:105DE000FFA9486986420BD0A100094A8818FFA97B
:105DF000496900F053F80546002D01D00020CEE798
:105E0000641C082CE3D30120C9E70000E80400204B
:105E1000202C00000EB502F0E9FBFEF771FE002019
:105E2000009001900290FF210131029888434018B0
:105E3000029049000298884340180290C9010298D4
:105E400088434018029089100198884340180190B7
:105E5000090102988843401802900123684607C848
:105E6000FFF7C6FA01F0CCFE03F002F8112003F0B0
:105E7000F3FC0B2003F0F0FC0121022002F0E0F81B
:105E80000EBD000010B50446034804600820024916
:105E9000C86000F011F810BD0000084030B504469D
:105EA0000D4604480460456004200249C86000F0C3
:105EB00003F830BD00000840174A18484069022323
:105EC0001843164B58611420186106E01348006906
:105ED0000C2318400C2800D103E01046521E002865
:105EE000F4D100BF0D4881698069022398430B4BB0
:105EF0009861012040040840002801D0022070472A
:105F000002200840002801D00120F8E7002A01D132
:105F10000320F4E70020F2E7FFFF0F000000084035
:105F2000816270473EB500200090019002900121EF
:105F3000090400988843401800904900009888435D
:105F4000401800904900009888434018009049008C
:105F500000988843401800904911019888434018E0
:105F600001900123684607C8FFF742FA0122002189
:105F70000846FEF785FD012211460020FEF780FD50
:105F8000012202210020FEF77BFD012203210020D7
:105F9000FEF776FD012204210020FEF771FD0122AB
:105FA00005210020FEF76CFD012206210020FEF7EE
:105FB00067FD012207210020FEF762FDFF20504906
:105FC0000860012204211046FEF75AFD0122082133
:105FD0001046FEF755FD012240211046FEF750FD08
:105FE000012251031046FEF74BFD0122910310469A
:105FF000FEF746FD002201214903424800F032F934
:106000000022012189033F4800F02CF901214903B6
:106010003C48FFF785FF012251033A4800F07CF825
:10602000032201214903374800F080F80121890348
:106030003448FFF775FF01229103324800F06CF8F5
:106040000322012189032F4800F070F80022042167
:106050002C4800F061F8012208212A4800F05CF881
:1060600000224021274800F057F80022042125484B
:1060700000F082F800224021224800F07DF8012241
:106080000421204800F06EF8012240211D4800F054
:1060900069F8012211460220FEF7F2FC01220221DA
:1060A0000846FEF7EDFC012203210220FEF7E8FC82
:1060B00001220E210220FEF7E3FC01220F21022023
:1060C000FEF7DEFC10480468104804430E480460E4
:1060D000FF200B4908620E480A4908620A49086213
:1060E000012211460320FEF7CBFC002201210948C2
:1060F00000F012F801221146064800F033F83EBDC8
:1061000000000B4000200B4000400B400EC0000080
:10611000FFFF000000600B40002A03D003680B4320
:10612000036002E003688B4303607047F0B51746D5
:106130000024002500220CE0CE07F60F002E06D02A
:1061400053003E469E40344303269E40354349104B
:10615000521C102AF0D34669AE4346614669264375
:106160004661F0BD002A03D043680B43436002E060
:1061700043688B434360704730B514468268C368F8
:1061800015468D432A461D468D432B46002C04D0D0
:10619000012C06D0022C09D107E015460D432A46F2
:1061A00005E01D460D432B4601E000E000BF00BFA7
:1061B0008260C36030BD0246D3690B40002B01D022
:1061C000012000E0002070474162704710B50122B5
:1061D000FF210020FEF754FC0122FF218900104618
:1061E000FEF74EFC01221A490220FEF749FC01226B
:1061F00038210320FEF744FC0222FF211548FFF757
:10620000BBFF0222FF2189001348FFF7B5FF0222DE
:106210000F491248FFF7B0FF022238211048FFF75C
:10622000ABFF0022FF210B48FFF776FF0022FF2182
:1062300089000948FFF770FF002205490748FFF76A
:106240006BFF002238210648FFF766FF10BD0000F3
:106250000E63000000000B4000200B4000400B408C
:1062600000600B40002A01D0416200E0816270476B
:10627000F0B587B000270024002000900190029024
:10628000FF2101310298884340180290012368469B
:1062900007C8FFF7ADF81C480068012103F015FAA4
:1062A00005467D22D2000023FCF792FF471E00E046
:1062B000641C611C3846FCF761FF14498842F7D81A
:1062C000611C3846FCF75AFF074668468781C4813F
:1062D0000021017400200590FF21013168460183EF
:1062E00003A90B4802F07AFDFF210131084802F0B2
:1062F000EBFC01221102064802F0F7FC01210448E0
:1063000002F0E7FC07B0F0BD3C050020FFFF0000F5
:1063100000E0064010B5FF210131144802F0D4FC22
:1063200002F0AEFD00F0A8FD00F030FE104908704C
:1063300010480078132811D0084600780E490978D3
:10634000884206D00A4800780DF040FE01200B4933
:106350000870074800780849087002E013200649D1
:10636000087001200649087010BD000000E00640DA
:106370002105002020050020680100205C0100208C
:106380005D01002070B540480078002800D070BD45
:1063900001203D49087018E00DF006FE054628462C
:1063A00007F03CFB0446132C0ED006F00DFC3748DA
:1063B0000078042804D1214635A003F02FF900E02D
:1063C00000BF204607F03EFE00BF00BF3348007804
:1063D00033490978884201D1012000E000200028DB
:1063E000DAD013202F49087000202F4908702F4859
:1063F0000078002842D000202C49087023480078FB
:10640000022803D021480078052837D12848807811
:1064100008280AD02748807A002806D1012025497B
:106420008872254805F0BCFB0AE0214880780828DE
:1064300006D12048807A002802D000201D498872A9
:106440001E488078022819D11D48807808280AD073
:106450001C48807A002806D101201A4988721A48FF
:1064600005F09EFB0AE016488078082806D11548FA
:10647000807A002802D00020124988720020024948
:10648000087000BF83E7000069010020EE010020D2
:106490004556454E543A25640A0000006601002026
:1064A00067010020200500205C0100205D01002024
:1064B000D2080020F2080020C0010020A806002019
:1064C000E2080020FE080020D001002010B507F0EF
:1064D0007FFF002800D110BD00F020F8FBE700008E
:1064E00038B5044608210B48FFF76EFE0A480068DD
:1064F000009008E0084800680099401AA04200D9BE
:1065000002E00BF0DFFAF5E700BF08210148FFF7D2
:1065100007FD38BD00200B40A00000201CB50B4833
:1065200004680B480068002807D009480068201A52
:106530000849884201D201201CBDFF22F53206A184
:10654000684607F093FC68460078F5E7A000002055
:10655000C804002060EA0000415400007CB50446F5
:106560000D46134903C9019100900198002804D0F9
:10657000002D02D02878002804D10199009861608C
:1065800020607CBDFFF7A2FF002809D1FF21013167
:106590000198FCF775FE0199009861602060F0E7B2
:1065A0007D2292012946204607F060FC00BFE8E703
:1065B000C04A01000A4A09028918002807D00128A8
:1065C00007D0022807D0032807D000207047086BA7
:1065D0007047C86A7047886A7047486A7047000009
:1065E00000A10140002003490870034800680349E6
:1065F00008607047A8010020A0000020AC01002026
:10660000FEB505460E4628011749441800200090A3
:10661000019002900121490201988843401801909D
:10662000490101988843401801900123684607C832
:10663000FEF7DEFE227AE1882079FEF721FAA27BBE
:10664000A189A07AFEF71CFA3146206802F05EFFAD
:1066500001220021206802F0C9FF012211462068B2
:1066600002F0C4FFFEBD0000D44C010003F0B8F9F5
:1066700010B516480078002826D115480068002873
:1066800022D014488078002809DD134800780028BB
:1066900002D007F00DFD04E004F0DAFE01E004F0A2
:1066A000D7FE0E4800680A4909680D4A89188842D1
:1066B00005D20A48006806490968884204D20120C8
:1066C0000249087004F0C4FE10BD0000A8010020BB
:1066D000AC010020A8060020B6000020A000002089
:1066E00060EA00000EB50020009001900290019831
:1066F00040084000401C0190012189030198884313
:1067000040180190090100988843401800900098B3
:106710008843401800900123684607C8FEF768FECA
:106720000022FF2101311248FFF726FD002201213E
:1067300049020F48FFF720FD0722FF210131022007
:10674000FEF79EF90722012149020220FEF798F97F
:1067500000F0F2F8074808490860102088810020FE
:106760000881064848600820C881002048810EBD85
:1067700000400B40180B0020080B0020860400206E
:106780000EB5002000900190029001984008400052
:10679000401C01900123684607C801F00DF9002252
:1067A000FF2101310220FEF76BF90022012149028D
:1067B0000220FEF765F90EBD10B50C21584800F017
:1067C00035FB044601200005204000287ED1012031
:1067D0004005204000283CD004202040002818D04C
:1067E0000120504908705049087050490880002025
:1067F0004F4948814F4908804D4842894089401C93
:106800004B4B588118464068815C454800F01DFBA1
:1068100049E0012040042040002844D001204349A1
:106820000880434840894249C989884204DB0021E5
:106830003B4800F00AFB0BE03D4842894089401C80
:106840003B4B588118464068815C354800F0FDFAA2
:1068500029E004202040002806D001203349088088
:106860000020334908811EE0012000042040002858
:1068700019D001202D490880294800F0E2FA2C495E
:106880000A890989491C2A4B1981194609688854C3
:106890001846008919468989884203DB0020194679
:1068A000088100E000BF012040022040002804D001
:1068B000012149021A4800F025FA05200002204073
:1068C000002806D005210902154800E018E000F074
:1068D00019FA0120C0022040002818D00121C90265
:1068E0000F4800F00FFA0E480068082188430C4951
:1068F000086008460068082108430949086006E066
:106900000F20000220400146054800F0FBF902205C
:106910002040002802D000200449088010BD00005B
:1069200000800440920400208E0400208404002093
:10693000080B00209004002000B587B000200190D3
:1069400002900390029840084000401C02900123EE
:1069500001A807C801F030F80021684601744174AD
:10696000012181745021018304A9074800F0E2F954
:106970000121054800F0C8F901220449024800F04D
:106980004BFA07B000BD000000800440060603007B
:1069900010B50C480088002800D110BD72B6094817
:1069A0000088401C0749088062B606480088142801
:1069B00006DD002003490880FFF7E2FEFFF792FEA4
:1069C00000BFEAE7840400200EB50020009001908B
:1069D0000290022101988843801C0190490301988C
:1069E000884340180190C9000098884340180090DF
:1069F00000988843401800900123684607C8FEF7B6
:106A0000F7FC002280211248FFF7B6FB0022FF218D
:106A100001310F48FFF7B0FB072280210120FEF76C
:106A20002FF80722FF2101310120FEF729F800F09D
:106A3000F3F8084808490860102088810020088180
:106A4000064848600820C881002048810EBD00002B
:106A500000200B40380B0020280B0020960400205B
:106A60000EB5002000900190029002210198884309
:106A7000801C01900123684607C800F09DFF00229A
:106A800080210120FDF7FCFF0022FF2101310120C0
:106A9000FDF7F6FF0EBD000010B50C21584800F0C0
:106AA000C5F9044601200005204000287ED10120C0
:106AB0004005204000283CD004202040002818D069
:106AC0000120504908705049087050490880002042
:106AD0004F4948814F4908804D4842894089401CB0
:106AE0004B4B588118464068815C454800F0ADF931
:106AF00049E0012040042040002844D001204349BF
:106B00000880434840894249C989884204DB002102
:106B10003B4800F09AF90BE03D4842894089401C0F
:106B20003B4B588118464068815C354800F08DF930
:106B300029E004202040002806D0012033490880A5
:106B40000020334908811EE0012000042040002875
:106B500019D001202D490880294800F072F92C49EC
:106B60000A890989491C2A4B1981194609688854E0
:106B70001846008919468989884203DB0020194696
:106B8000088100E000BF012040022040002804D01E
:106B9000012149021A4800F0B5F805200002204002
:106BA000002806D005210902154800E018E000F091
:106BB000A9F80120C0022040002818D00121C902F4
:106BC0000F4800F09FF80E480068082188430C49E0
:106BD000086008460068082108430949086006E083
:106BE0000F20000220400146054800F08BF80220EB
:106BF0002040002802D000200449088010BD000079
:106C000000900440A20400209E0400209404002070
:106C1000280B0020A004002000B587B000200190C0
:106C200002900390022102988843801C0290012365
:106C300001A807C800F0C0FE002168460174417435
:106C4000012181745021018304A9074800F072F8E2
:106C50000121054800F058F801220449024800F0DB
:106C6000DBF807B000BD00000090044006060300FA
:106C70000EB5002000900190029001214904009877
:106C8000884340180090C91001988843401801902B
:106C90000123684607C8FEF7ABFB0122110210462C
:106CA000FDF7EEFE0022FF2101310748FFF734FA1D
:106CB0000022FF2101310448FFF75EFA0122110290
:106CC0000148FFF74FFA0EBD00200B4010B50C48ED
:106CD0000088002800D110BD72B609480088401C09
:106CE0000749088062B606480088142806DD00209F
:106CF00003490880FFF7B4FEFFF766FE00BFEAE72E
:106D000094040020C1607047002904D00268082361
:106D10001A43026003E0026808239A430260704746
:106D20000246D0680840002801D0012070470020AA
:106D3000FCE70000FEB504460D46002001900090DF
:106D400000BF00BF206885218843297808436978FF
:106D50000843A978084320602889A0602B48844212
:106D600004D10020FEF72AFB01900EE0284884425F
:106D700004D10220FEF722FB019006E02548844260
:106D800003D13620FEF71AFB019020680321890306
:106D90000840002806D001218903401A05D0401A76
:106DA00009D105E00620009005E00820009002E0EF
:106DB0000920009000BF00BF14236A685A4311469F
:106DC000019AD300D018FCF7D9F90099401AE97854
:106DD000461A14236A685A4311460B23019A5A43F0
:106DE0001046FCF7CBF90099401AE978471A002EB3
:106DF00001DA002000E030460646002F01DA0020CC
:106E000000E03846074626616761FEBD0080044009
:106E10000090044000800040002A03D043680B43E8
:106E2000436002E043688B434360704708B5024605
:106E30000020009000920098401800900098006890
:106E400008BD01468869C0B2704781617047000083
:106E5000442148430249C96C085C8006C00F704752
:106E60005C05002003490968C140C80700D0012023
:106E700070470000AC05002010B501F0A7FB00280A
:106E800068D101F09DFB002869D001F085FA3449F2
:106E9000086008460068002849D001203149087080
:106EA0003148008814281FDD3048007800281BD1A5
:106EB0002F480078002817D1294800682D4908403C
:106EC000002807D0264800682B49086000202B497D
:106ED000086006E02248006828490860002026492A
:106EE00008600120214908701F48008819214901C4
:106EF000884234DD1E480078002803D11848006815
:106F00001F490860112002F047FC17480088C83864
:106F100015490880112002F09FFC002019490860E3
:106F200001201349087000201049087017E0002064
:106F30000C4908700C4908800D4908700B4800780E
:106F400001280CD10C4800680E4908600020074950
:106F5000087004E000200C490870FEF75BFF10BDCC
:106F60001C05002024050020280500202505002000
:106F7000260500200A2003002C05002038050020EB
:106F8000300500203405002056000020CD48006860
:106F9000CD490860CD4800684860CD4800688860E9
:106FA0000020CA490860C7490860C9490860C64846
:106FB00000680121C9030840002804D1C248406884
:106FC0000840002806D00F20C24908700120C2499D
:106FD000087039E1BC480068012109030840002815
:106FE00004D1B94840680840002806D00C20B949AF
:106FF00008700120B849087026E1B3480078C0073E
:10700000C00F002805D1B0480079C007C00F002884
:1070100006D00020AF4908700120AF49087013E185
:10702000A948006802210840002804D1A648406809
:107030000840002805D00120A6490870A64908701C
:1070400002E1A148006804210840002804D19E48BC
:1070500040680840002806D002209E4908700120A0
:107060009D490870F0E09848006808210840002811
:1070700004D1954840680840002806D0032095496F
:107080000870012094490870DEE08F4800681021E4
:107090000840002804D18C4840680840002806D0E9
:1070A00005208C49087001208B490870CCE0864887
:1070B000006820210840002804D183484068084027
:1070C000002806D0042083490870012082490870F6
:1070D000BAE07D48006840210840002804D17A4881
:1070E00040680840002806D006207A490870012030
:1070F00079490870A8E07448006880210840002899
:1071000004D1714840680840002806D00720714922
:10711000087001207049087096E06B480068FF21F4
:1071200001310840002804D1674840680840002821
:1071300006D008206749087001206749087083E07D
:1071400061480068012149020840002804D15E48D6
:1071500040680840002806D009205E4908700120D8
:107160005D49087070E058480068012189020840B4
:10717000002804D1544840680840002806D00A205E
:10718000544908700120544908705DE04E48006879
:107190000121C9020840002804D14B48406808403A
:1071A000002806D00B204B49087001204A4908707E
:1071B0004AE045480068012189030840002804D1BD
:1071C000414840680840002806D00E204149087018
:1071D00001204149087037E03B480068012149031C
:1071E0000840002804D1384840680840002806D0EC
:1071F0000D203849087001203749087024E03248D2
:107200000068012149040840002804D12E48406844
:107210000840002806D011202E49087001202E4970
:10722000087011E02848006801210904084000287E
:1072300004D1254840680840002805D01020254981
:1072400008700120244908701F4880680221084006
:10725000002806D017201F49087001201E49087019
:107260002DE019488068012109040840002806D053
:107270001520184908700120174908701FE01248AE
:1072800080680121C9030840002806D01420114954
:10729000087001201049087011E00B48806808212F
:1072A000084000280BD00848806889020840002860
:1072B00005D01820074908700120074908700548C3
:1072C0000078704734050020701700203805002032
:1072D0003005002020050020180500200348006923
:1072E00001210843014908617047000000A00540E2
:1072F000002806D00649096801221143044A11609A
:1073000005E00349096849084900014A11607047CE
:1073100000A0054000B587B00020009001900290C9
:10732000012189030198884340180190C9030198FD
:107330008843401801900123684607C8FEF758F8B3
:107340000E2201210020FDF79BFB0E2202210020CE
:10735000FDF796FB0E2204210020FDF791FB0E2283
:1073600008210020FDF78CFB0E2210210020FDF7E4
:1073700087FB0E2220210020FDF782FB0E224021F8
:107380000020FDF77DFB0E2208210320FDF778FB8E
:107390000E2210210120FDF773FB0E222021012077
:1073A000FDF76EFB0E22012189030220FDF768FB29
:1073B0000E220121C9030220FDF762FB0E220221E9
:1073C0000846FDF75DFB0E2204210220FDF758FB65
:1073D0000E2208210220FDF753FB012168460173AC
:1073E000002141730220049000200690DF208000DD
:1073F000059003A800F034F80222FF210904DF20E1
:10740000800000F053F8012000F03EF81D20002815
:1074100009DB00BF00BFC206D20E01219140054A20
:10742000116000BF00BF00BF0120FFF761FF07B080
:1074300000BD000000E100E004480069C007C00F83
:10744000002801D0012070470020FCE700A0054083
:1074500010B5FFF7F1FF002801D0FFF73FFF10BD87
:107460000021084A11600178090242781203114391
:10747000828812041143034A116081685160C16817
:107480005161704700A00540002806D00649C96830
:1074900001221143044AD16005E00349C968490843
:1074A0004900014AD160704700A0054010B5002A8C
:1074B00006D0012A0CD0022A14D0032A24D11BE0C2
:1074C000124B9B6804460C43A343104CA3601BE083
:1074D0000E4B9B6803430D4CA36023469B688B4374
:1074E000A36011E0094B9B688343084CA3602346CB
:1074F0009B680B43A36007E0044B9B6804460C4366
:107500002343024CA36000BF00BF10BD00A0054094
:1075100030B502460B460F2A00DD30BD54000D4D3C
:1075200060190D4C0578AD00645921B2002B05D0CF
:1075300045780124AC400C4321B205E04578012494
:10754000AC400D46A54329B2034C0578AD0061510E
:1075500000BFE2E7CC00002018A00540F0B50446CB
:107560000D461F46002C02D0012C00D0F0BDA30018
:10757000224E9819224B0678B6009B5919B2002D5D
:1075800005D046780123B3400B4319B205E0467895
:107590000123B3400E469E4331B2002D05D04678FC
:1075A0000123B3400B4319B205E046780123B340F1
:1075B0000E469E4331B2002A05D086780123B3409F
:1075C0000B4319B205E086780123B3400E469E4373
:1075D00031B2002F05D0C6780123B3400B4319B256
:1075E00005E0C6780123B3400E469E4331B2044BFA
:1075F0000678B600995100BFB8E70000EC00002003
:1076000018A0054030B502460A2A00DD30BD002131
:107610001BE04C000F4D60190F4C0578AD0064590C
:1076200023B2914205DC45780124AC401C4323B2CF
:1076300005E045780124AC401D46A5432BB2064C1D
:107640000578AD0063514C1CE1B20A29E1DD00BFB1
:10765000DCE70000CC00002018A0054010B5002198
:1076600013E04B000A4C18190A4B0478A4001B596C
:107670001AB244780123A34014469C4322B2054B1E
:107680000478A4001A514B1CD9B20A29E9DD10BDB7
:10769000CC00002018A005400EB5002000900190FD
:1076A0000290012189040098884340180090091134
:1076B0000198884340180190490001988843401878
:1076C00001900123684607C8FDF792FE082108468D
:1076D00000F056F80921084600F052F8062002F0A2
:1076E0008BF80EBD00B587B0002004900590069081
:1076F000012149040498884340180490C910059852
:107700008843401805904900059888434018059023
:10771000012304A807C8FDF76BFE01228021104653
:10772000FDF7AEF9002280211448FEF7F5FC002297
:1077300080211248FEF720FD012280210F48FEF72C
:1077400011FD01210720FDF77DF90720019000219F
:107750006846017241810221017301A8FEF7F2F827
:10776000012211460720FEF711F901210720FEF73B
:10777000F9F8062002F050F807B000BD00200B40D9
:10778000FEB506460D460120B040044601222146C2
:107790000220FDF775F9A1B200221248FEF7BCFCE9
:1077A000A1B200220F48FEF7E7FCA1B201220D486A
:1077B000FEF7D8FC02213046FDF744F90095002180
:1077C00068460171C18002210172FEF7BBF80122F7
:1077D00011462846FEF7DAF801212846FEF7C2F8DE
:1077E000FEBD000000400B40012003490870034823
:1077F000006803490860704775040020B00000204D
:10780000780400207047000001200849486000BF4C
:10781000064840680121090388430028F8D100BFC9
:10782000024800680028FBD17047000000A1064014
:107830000021194A126B5206D10F174A126B4023CE
:107840001A43154B1A63154A526880239A43134B07
:107850005A601A46526808239A43104B5A60104ADD
:10786000126904231A430E4B1A61002905D10A4AF2
:10787000126B40239A43084B1A63002803D140BF80
:1078800020BF20BF00E030BF054A126904239A439D
:10789000034B1A61704700000080084000A10640B9
:1078A00000ED00E000211F4A126B5206D10F1D4A65
:1078B000126B40231A431B4B1A631B4A5268120473
:1078C000D20F002A0BD1184A526880239A43164BD4
:1078D0005A601A46526880231A43134B5A60124A60
:1078E000526808239A43104B5A60002905D10D4A6B
:1078F000126B40239A430B4B1A630C4A1269042300
:107900001A430A4B1A61002803D140BF20BF20BF91
:1079100000E030BF054A126904239A43034B1A6101
:10792000704700000080084000A1064000ED00E024
:107930000649096904229143044A1161002803D1D0
:1079400040BF20BF20BF00E030BF704700ED00E027
:1079500070471FB5E12040020090FF2101316846C9
:1079600081800021C1800181002003906946FEF7DB
:1079700047FE1FBDF8B504460D460A272046FBF713
:10798000B5FC064600BF002E01D12046F8BD022EF0
:107990000ADD2078302807D16078782802D0607816
:1079A000582801D11027A41C2A462146384602F047
:1079B00029F800900098E9E73FB50E4C6068A1688F
:1079C000E2680446009DAC4320460C46019DAC4352
:1079D00021461446029DAC432246002B05D0009C54
:1079E0002043019C2143029C2243024C6060A16021
:1079F000E2603FBD0081084004498968022291434A
:107A000042001143014A91607047000000A0064007
:107A1000002806D00649896801221143044A916072
:107A200005E00349896849084900014A91607047A7
:107A300000A006400EB50020009001900290402169
:107A400002988843403002900123684607C8FDF73A
:107A5000CFFCFFF7D9FE0020FFF7CEFF0520400244
:107A600000F038F80121084600F01EF80020C0435D
:107A700000F02AF80120FFF7CBFF0121080200F0F7
:107A800035F80EBD014800687047000000A00640B0
:107A90000148C068C0B2704700A0064010B5FFF7AB
:107AA000F7FF044610BD0000002905D0054A126901
:107AB0000243044B1A6104E0024A12698243014BFB
:107AC0001A61704700A006400149486070470000F5
:107AD00000A00640044989680F2212029143014325
:107AE000014A91607047000000A00640002905D0BF
:107AF000054A12690243044B1A6104E0024A126902
:107B00008243014B1A61704700A0064010B5FF2167
:107B100001311F4801F0D8F81E480068002835D010
:107B20001C480068401E1B490860084600681A4946
:107B30000988884204D100221146154801F0B6F8A0
:107B400014480068002821D1144800881249098887
:107B5000401810490860012200210D4801F0A6F8E4
:107B60000F480078002804D00D480078401E0C49CA
:107B700008700B480078002808D10021044801F063
:107B8000A8F8062210210320FCF77AFF10BD0000A0
:107B900000400340FC030020F8030020F60300200F
:107BA000F4030020C1B2054A116000BF034909690E
:107BB000FF22013211400029F8D070470000044034
:107BC0007047000030B500240C4D12E02046FFF74E
:107BD0003FF900280BD14420E96C60434018E97854
:107BE000002249004018418E204601F043F8641CF1
:107BF000E4B2687B8442E9D330BD00005C0500201C
:107C00000EB5002000900190029001218904029895
:107C10008843401802900911019888434018019048
:107C20000123684607C8FDF7E3FB0C221021022060
:107C3000FCF726FF0C2220210220FCF721FF0C225A
:107C400040210220FCF71CFF0C2280210220FCF7BF
:107C500017FF0C220121C9030120FCF711FF0C22A0
:107C600001210220FCF70CFF0C22012189020220D5
:107C7000FCF706FF0C220121C9020220FCF700FFDD
:107C80000C22FF2101310020FCF7FAFE0C22012119
:107C900049020020FCF7F4FE0C2201218902002099
:107CA000FCF7EEFE0C220121C9020020FCF7E8FEE1
:107CB0000C22012109030020FCF7E2FE0C22012125
:107CC00049030020FCF7DCFE0C220121890300207F
:107CD000FCF7D6FE0C220121C9030020FCF7D0FEE0
:107CE0000C2201210846FCF7CBFE0C2202210120C8
:107CF000FCF7C6FE0EBD10B50021192001F0BCFD39
:107D00000121132001F0B8FD0121142001F0B4FD80
:107D10000121112001F0B0FD0121122001F0ACFD84
:107D200002210C2001F0A8FD0221182001F0A4FD81
:107D30000221012001F0A0FD0221082001F09CFD9C
:107D4000192001F039FD132001F036FD142001F057
:107D500033FD112001F030FD122001F02DFD0C202B
:107D600001F02AFD182001F027FD012001F024FD7B
:107D7000082001F021FD10BD00B50749095C002075
:107D800000F01AFF054801684908490001600168D0
:107D900001221143016000BD9605002000A00140B2
:107DA000704700005748006B10210843554908638D
:107DB000554856490861002048600846806800051B
:107DC000000D05210903401850498860504848605B
:107DD000504808604B48006B4021084349490863FC
:107DE0004D484069102108434B4948614548406A65
:107DF0000121C9028843434948620846406801217D
:107E0000C90208433F49486000BF3E4880680007F8
:107E1000C00F0028F9D03B484068C008C000C01C13
:107E20003849486000BF3748406B4007400F03287F
:107E3000F9D13A480068C008C000401C37490860C2
:107E400000203049086208464068491588432D499A
:107E5000486008460068891508432A4908600846B2
:107E6000406808218843274948600846006849154A
:107E70000843244908600846006B40218843214993
:107E800008630F20C00588610846806949030843DC
:107E90001C4988610846006889150843194908602B
:107EA00008464068491508431649486000BF154810
:107EB00080688007C00F0028F9D018480068C00803
:107EC000C000C01C1549086000200E490862084621
:107ED0004068C008C000401C486000BF0948406BB3
:107EE0004007400F0128F9D10C48006810210843D1
:107EF0000A490860034840680915884301494860F9
:107F00007047000000800840CA350000008006402D
:107F1000A0AF01000100A05F00ED00E000020840FA
:107F200010B5114911480068FBF728F9104908609D
:107F300008467D21C90004684C43601E0D498842F3
:107F400000D90CE0601E0C4948610321081F01F0B4
:107F5000CFFC0020084988610720086100BF00218C
:107F6000481E01F0C5FC10BD40420F003C0500203A
:107F7000AC040020FFFFFF0000E000E070B5034606
:107F80000D4E75690022B1690C4E36685E43344669
:107F90000FE0094EB06988420BD0884202D20E1A17
:107FA000B21802E02E1A7618B2180146A24200D387
:107FB00000E0EEE700BF70BD00E000E0AC04002090
:107FC000F0B54422184F5043FA6C8B008218D21837
:107FD00053684D001B031C0C00235360FA6C7E8B0E
:107FE000821853195A8EB44202D95E8DB24302E010
:107FF000B44203D25E8D76085E853243FE6C8619EC
:1080000076197286FA6C861875196D8D002D02D05E
:108010007B8B9C4207D10029115C01D0022300E038
:10802000012319431154F0BD5C050020014908618A
:108030007047000000A0014010B500F0B3F910BD7A
:10804000002905D0054AD2680243044BDA6004E0F7
:10805000024AD2688243014BDA60704700A00140B7
:1080600010B50020084B094C0AE04421DA6C41436A
:1080700089188A8FA24201D2521C8A87401CC0B242
:10808000597B8842F1D310BD5C05002060EA0000F6
:1080900010B5044800F062FC00F028FAFFF7B0FDCC
:1080A00010BD000000100020F0B50025204F3AE080
:1080B0002846FEF7D7FE002833D02846FEF7C8FE34
:1080C00000282ED128464421FE6C484381194022C5
:1080D000525A002A25D10B8FCA8E9C1A24B2002C2A
:1080E0001FD0641000D10124934201D9CB8618E03F
:1080F000934216D2305C3E7C4006C00F304205D021
:10810000D01A4B8F5B00984209DC0AE0B88A00283D
:1081100007D1B879002804D1888F302801D91019E7
:10812000C8866D1CEDB2787B8542C1D3F0BD0000DE
:108130005C050020F0B5964C6079401C6071607958
:10814000002601280AD06179204602297ED1417992
:10815000022900D346710024054614E1002588E079
:108160002846FEF77FFE002871D02B46442043436B
:10817000E06C1818C189C183E06C1818818981836B
:10818000E06C84491818C681E06C18188181E06C95
:108190001818428A4284E06C1818028A0284E06C43
:1081A00018184682E06C18180182E06C1818818952
:1081B000C089FDF789F802B2E06C1818018A408A7C
:1081C000FDF782F800B2824200DD104681B2E06C19
:1081D00018188184E06C1818C28C408801F01AF8D5
:1081E0000246E06C18184280E16C52085818478F1C
:1081F000BA42CA5C02D920273A4301E0DF273A405D
:10820000CA54C18B428C914200D31146008F081A88
:1082100002B2104602F0FEF9218E4908884203D2CC
:10822000E16C0420591805E0E06C19184878002822
:1082300001D0401E4870104602F0ECF9002816D01C
:108240002846FEF705FE0028E06C01E015E00EE090
:1082500003D018184078401C01E0181840780241FB
:1082600000D10122E06C1818018F891801876D1C5C
:10827000EDB2607B854200D272E7F0BD2046FEF78A
:10828000F1FD00287DD0234644204343E86C1818B4
:10829000C18AC183E86C1818818A8183E86C3D49E2
:1082A0001818C682E86C18188182E86C1818428B7E
:1082B0004284E86C1818028B0284E86C1818468314
:1082C000E86C18180183E86C1818818AC08AFCF7DA
:1082D000FBFF02B2E86C1818018B408BFCF7F4FF2F
:1082E00000B2824200DD104682B2E86C1818C284E7
:1082F000E86C1818818C408800F08CFF0246E86C0E
:1083000018184280E96C52085818478FBA42CA5C64
:1083100002D920273A4301E0DF273A40CA54C18BF3
:10832000428C914200D31146008F081A02B21046C7
:1083300002F070F9298E4908884203D2E96C0420C2
:10834000591805E0E86C19184878002801D0401E3B
:108350004870104602F05EF9002812D02046FEF761
:1083600077FD0028E86C04D018184078401C02E023
:1083700007E0181840780241E86C1818018F891836
:108380000187641CE4B2687B844200D276E7F0BDCA
:108390005C050020FFFF00000148806C7047000072
:1083A0005C05002070B5504D686C002878D0002323
:1083B0004AE09807800F9908FEF7FCF882B2A87887
:1083C0000028184632D044214843E96CEC78411823
:1083D000A4000C19A489944203D9EC78A4000919CB
:1083E0008A81E96CEC784118A4000C19E489944264
:1083F00003D2EC78A4000919CA81E96CEC78411821
:10840000A4000C19A48A944203D9EC78A400091999
:108410008A82E96C4018E97889004118C98A91423A
:1084200010D2E97889004018C2820BE0FEF710FDF7
:10843000002807D14420E96C58434018E9784900E6
:108440004018C2855B1CDBB2687B8342B1D302203B
:10845000FFF7ECFDA97801200029E97821D0002957
:1084600000D00020E87000240DE04420E96C604357
:108470004018E978002249004018418E204600F05B
:10848000F9FB641CE4B2687B8442EED3E8780028F0
:1084900000D00120FFF770FC287A401C287270BDC4
:1084A0001DE0002901D06870F9E7E87000240FE0B2
:1084B0002046FEF7CDFC002808D14420E96C60433B
:1084C0004018818E0022204600F0D4FB641CE4B2E8
:1084D000687B8442ECD30120FFF74EFCDFE70220EB
:1084E000FFF7A4FDDBE700005C05002010B59EB09F
:1084F000002444210DA8FAF7C3FE082110A88174B6
:1085000018210DA8C1772349684601877D210901FB
:108510004187491081874900C1871F4910A8018000
:108520007D21890101811D49684681861C49C186DA
:108530001A49203910A841801849203181807D21B5
:10854000C900C1804B21C9004181102181810321D3
:1085500001741F21C1811C214174012118A80175DA
:1085600041750321817500BF05E00E48015D15A826
:108570000155601CC4B21C2CF7DB342211A96846DB
:10858000FAF765FE0DA80FC800F08AF900F070FC3C
:108590001EB010BDB80B000070170000FE0F0000E9
:1085A000FE030000804C0100442148430349C96C8C
:1085B000085CC00900D00120704700005C05002065
:1085C0000148807B704700005C0500200348406C38
:1085D000002801D000207047012070475C05002072
:1085E0000149096C084070475C05002030B5134D07
:1085F000E88C6864FDF700F8FCF7ECFF002412E05B
:108600002046FEF72FFC00280BD04420E96C604385
:108610004018E978002249004018418E204600F0B9
:1086200029FB641CE4B2687B8442E9D300202872F1
:108630006872E8636882FFF79FFB30BD5C0500202D
:1086400070B5384C00252564A57300F03FFA00F0A2
:10865000A7F92078002808D000F0E0FBFCF71EFC0A
:108660000020FFF789FB25706572A078002826D0CE
:108670000120FFF7B5FF002802D0A07A401CA072AD
:10868000A07A617C0126884232D9A572207A00281E
:1086900024D025726572606D2349884202D2606DD4
:1086A00008306065FFF746FD00F09EF9E07B00288A
:1086B00001D0FFF7F9FCFCF71DFFA67318E0607806
:1086C00000280AD06570FCF777FBE570FFF77AFAAF
:1086D0000020FFF751FBFCF70DFF70BD607A401CD6
:1086E000C0B26072102803D965720020FFF744FB06
:1086F0001020FFF775FF002806D0FFF7B1FC00F04F
:1087000015F8202000F046F8FF200130FFF768FF41
:108710000028E2D001204002FCF70AFF0028DCD04C
:10872000267070BD5C050020804F120070B50023DC
:10873000174C28E01846FFF737FF002821D01846CD
:10874000FEF790FB00281CD01A4644204243E06C00
:10875000658E1018818FA94213D90021C186E06C63
:10876000812610188187E06C855C6D086D003540AE
:108770006D066D0E85541018C187E06C10184030DE
:1087800001805B1CDBB2607B8342D3D370BD0000F1
:108790005C050020F0B5414DA98A081880B2A88276
:1087A000E98D884201D90020A882002371E0184693
:1087B000FEF758FB00286AD01A4644204243E86C72
:1087C000815C8C46C90904D011180C8FC98E611ABE
:1087D00015E0141861888E08298E4F00CF197F0884
:1087E000BE4203D90326F60371430E0C218FB1421A
:1087F00002D9891B89B200E00021E48E091B09B26D
:10880000002944D08C1000D101241018068FC18E8D
:108810008E4210D91846FEF71BFB002807D0E86CE3
:10882000698B1018C08E884201D9081A04B2E86C0E
:108830001018C18E29E08E4229D2664676062F7C1A
:10884000F60F3E4218D01846FEF702FB0028E86CEF
:1088500009D01018C18E028F8E1A428F5700D2197C
:10886000964212DC13E01018C18E028F468F8A1ACE
:108870007600B24209DC0AE0AA8A002A07D1AA7966
:10888000002A04D1828F302A01D90919C1865B1CC4
:10889000DBB2687B83428AD3F0BD00005C05002018
:1088A0000FB470B508AA2C48917B0170D17B417040
:1088B000294C6A46908A3A3C6084D08AA084108B06
:1088C000FF21C008E084508B2085908B6085908CC0
:1088D000A085158A0231A81C80096583081AA08327
:1088E000568AE683B01C8009081A2084D08BA086A3
:1088F000108CE086508C2087D08CE085108D2086EF
:1089000008AA107BB11C401C2073507B607310AA16
:10891000107CE073907C6074507C20746A46508DAB
:108920006086A81CFAF72AFCE065A8023146FAF72F
:1089300025FC002304AD206607E0E818203001780C
:10894000184600F017F85B1CDBB2607B8342F4D35F
:1089500070BC08BC04B01847960500200149C864E3
:10896000704700005C050020014908607047000066
:10897000AC0500200A2905D344225043024AD26C98
:1089800080184187704700005C05002041030A0CF5
:108990000249C008CA844864704700005C05002092
:1089A00000B5104A9079002809D19078002806D0A7
:1089B000D079002803D1506D918D884201D2D08C9E
:1089C0000EE00420FFF70CFE00280AD0506C0028AF
:1089D00007D09078002804D0FCF70EFE506C401EA3
:1089E000506400BD5C050020F0B50022164622E070
:1089F0001046FEF737FA00281BD010464421DB6CE6
:108A00004843C1180C8FCD8E641B1D5C24B26F06C9
:108A10002C4FCF5F06D57F107F42A74209DABF24D3
:108A2000254004E07F42A74203DD402425431D5436
:108A30008E87521CD2B2244B587B8242D8D31C461C
:108A4000E6710023A671012537E01846FEF70AFA01
:108A5000002830D01A4644204243E06C815C4F0627
:108A6000FF0FC9098F4207D0111840310888FF282D
:108A700005D2401C088002E0101840300680E16CEE
:108A8000277B501840300088B84207D3885C4706DF
:108A900040067F0EC00FC00107438F54885CC00999
:108AA00000D0A571885C400604D41846FEF7D0F9C2
:108AB000002800D0E5715B1CDBB2607B8342C4D32D
:108AC000F0BD00003A0000005C0500202849C86B9A
:108AD00000284CD0C86B401EC863488A401C80B236
