:020000040000FA
:10000000E00B0020C1000000C1120000730C0000D2
:10001000FFFFFFFFFFFFFFFFFFFFFFFFFFFFFFFFF0
:10002000FFFFFFFFFFFFFFFFFFFFFFFF05130000C4
:10003000FFFFFFFFFFFFFFFFD912000007130000C3
:1000400035010000350100003501000035010000D8
:1000500035010000350100003501000035010000C8
:1000600035010000350100003501000035010000B8
:1000700035010000350100003501000035010000A8
:1000800035010000A9090000C50900003501000084
:100090003501000035010000350100003501000088
:1000A0003515000005140000350100003501000081
:1000B0003501000029120000350100003501000063
:1000C0001D4880471D4880471D4800471D4801695D
:1000D000002908D14169002905D18169002902D18F
:1000E000C169002909D01848C1680901090D002912
:1000F0000ED005290CD006290AD0BFF34F8F134824
:100100001349016013491248C860BFF34F8FFEE7DF
:100110000E4801680E48884200D070470E480F49CB
:1001200001600A480E4901607047FEE7FEE7FEE7FE
:10013000FEE7FEE7FEE70000CD0000000913000027
:100140006501000000030840800108400000002015
:100150000400FA0500ED00E0008108400100000005
:10016000000000000448854600F0ECF90048004714
:10017000A51A0000C046C046E00B002001688D466D
:100180004168084730B50B46014600202022012473
:1001900009E00D46D5409D4205D31D469540491BBB
:1001A0002546954040191546521E002DF1DC30BD04
:1001B00070B500242546002801DA012440420029B8
:1001C00001DA01254942FFF7DDFFAC4200D0404291
:1001D000002C00D0494270BDF8B500242546002906
:1001E00004DA0E46012400214042B141002B04DA1A
:1001F0001E46002352420125B34100F02CF98C46E3
:1002000017461E46AC4203D0002540428D41AC4605
:10021000002C02D0002657429E4161463A463346A2
:1002200001B0F0BD00487047541E000010B50446F0
:10023000FFF7F8FF0068005DC007C00F10BD034660
:100240000B439B0703D009E008C9121F08C0042A0A
:10025000FAD203E00B780370401C491C521EF9D2FD
:100260007047D2B201E00270401C491EFBD27047B9
:100270000022F6E710B513460A4604461946FFF772
:10028000F0FF204610BD30B505462A460B461078D3
:100290001C78521C5B1C002801D0A042F7D0002C17
:1002A00003D0002802D06D1CEFE7284630BD421C69
:1002B0000178401C0029FBD1801A7047C9B203E0C5
:1002C00003788B4203D0401C521EF9D200207047A5
:1002D0000FB400B58DB009900B9010A900200091CB
:1002E000C0430A9000200C900648069006480790EC
:1002F0006A4609A80F9900F0F3F80DB008BC04B0E5
:10030000184700000105000021050000FFB5002787
:10031000FF4383B000205C6801909E681D46A96978
:100320007F1C049888470090296A88470028F6D1E6
:100330000098401C0CD0032040028443002E19DD9D
:10034000600614D500982B2809D02D280FD103E082
:100350000020C04307B0F0BD012080020443A9691A
:100360007F1C04988847761E0090002E02DD0098BE
:10037000302803D00598002825D035E00120400220
:100380000443A969761E7F1C049888470090002EBC
:1003900003DD782805D0582803D00598002810D010
:1003A00022E00598002801D010281DD1012040022C
:1003B0008443A969761E7F1C04988847009010200A
:1003C00002E0082000E00A2005900DE0012149022A
:1003D0000C43059A0199761E514308180190A969AA
:1003E0007F1C049888470090002E05DD0599009831
:1003F00000F061F80028E9DAE96904988847A00567
:1004000002D40120C043A5E7E00722D1600611D540
:100410006005019800D5404229680A1D2A600968D4
:10042000220501D5087014E0220701D5088010E0EC
:1004300008600EE02868011D29600068210502D5CA
:100440000199017005E02107019901D5018000E0C3
:10045000016038467EE7F0B51FB40646002082B042
:1004600005464024019100901BE0019922460F4669
:10047000304600F089F8049A059B801A994110D300
:1004800010461946224600F06FF8361A8F41019740
:10049000224601200021009F00F066F838184D41E7
:1004A00000902046641E0028DFDC019B009829464E
:1004B000324607B0F0BD3A2800D230382023024639
:1004C0009A43412A01D310463738884201D300208D
:1004D000C04370470268137851180160184670478E
:1004E00010B5D160044951610449116200211161C4
:1004F000114600F05BF810BDD50400002D0200008D
:100500004268002A08D001680B78491C002B03D0F0
:10051000521E06C0184670470121C160881E7047F0
:100520004268002A0BD0C3680168002B07D183689A
:100530008B4204D0491E521C06C000207047002088
:10054000C0437047064C0125064E05E0E36807CC22
:100550002B430C3C98471034B442F7D3FFF706FE08
:10056000581E0000781E000010B5202A04DB01464A
:10057000203A9140002010BD914020239C1A034650
:10058000E3401943904010BD10B5202A04DB084613
:10059000203AD040002110BD0B46D340D04020244B
:1005A000A21A91400843194610BD0000F3B58DB062
:1005B00000200A9001200B90002608460C300C46C3
:1005C00009906269012109989047051E2ED0252DBA
:1005D0002DD0216A8847002818D062690121099826
:1005E0009047216A88470028F7D1411E626909981F
:1005F000904700E0761CA1690D988847216A8847DA
:100600000028F7D1E1690D988847DAE7A1690D98CC
:1006100088470746A84201D1761CD2E7E1690D98C8
:1006200088477F1C02D10A98002877D04AE100272A
:1006300062693D463946099890472A280CD162697B
:10064000012109989047012506E00A214F433F18F0
:10065000303FEBD41020054362690121099890478F
:10066000014630390A2903D29C498F42DEDCECE78F
:10067000E90600D49A4F6C280AD04C2810D068287C
:1006800024D06A282ED074280CD07A280AD00DE005
:1006900062690121099890476C2823D004211CE04D
:1006A000202005436269012109989047A760656091
:1006B00065284FD026DC582839D01ADC452849D087
:1006C00012DC252834D04128B0D143E062690121F1
:1006D00009989047682802D008210D43E6E70120D9
:1006E000C002DEE70220DCE7462833D047282CD1C1
:1006F00030E05B2870D061282CD063286CD064284F
:1007000023D161E06F284FD009DC662822D067280A
:1007100020D0692826D06E2817D12EE0CEE0702890
:100720004DD073286FD075284ED078280DD154E065
:10073000A1690D9888470546252800D16CE7E16935
:100740000D9888476D1C00D16DE7BBE00A224CE094
:100750000A2252E0012023466A46C0430D99C04652
:10076000C046A4E02846402108436060A80723460D
:1007700001D5002239E000223FE0E80700D020E761
:100780002068011D21600068290501D5067018E761
:10079000290701D5068014E7A90703D5F1170660DC
:1007A00041600EE706600CE7284640210843606080
:1007B000A807234601D5082217E008221DE0494971
:1007C00028460840606016E02846402108436060E3
:1007D000A8072346BCD5B9E715E0284640210843C1
:1007E0006060A80707D5234610220120C0430D9959
:1007F000C046C0465BE0234610220120C0430D994D
:10080000FFF784FD53E000210C910B460091632813
:1008100002D05B2808D044E02079C00601D4012032
:10082000A060012000903CE0626901210998904796
:100830005E2805D101200C90014662690998904715
:100840002169002906D10B4601AA8F00491CD3510A
:100850000829FADB002835D0216900290ED1C117FB
:10086000C90E09184A11930001AA9A1849094901A9
:10087000411A012013688840034313606269012113
:10088000099890475D28E5D10C98002808D00020F1
:1008900001AB81005A58401CD2435A500828F8DB5B
:1008A00001AB01202246C0430D99C046C046002836
:1008B0000ADA401C06D10B98002803D00020C04360
:1008C0000FB0F0BD0A98FBE7E90702D10A99491C6D
:1008D0000A91361800200B9073E60000CCCCCC0CAB
:1008E000FFFFFF7FF1F7FFFFF0B596460A46134979
:1008F000C000461800230025FF2098402C461042D7
:1009000016D00020012199408C461146C14067460F
:10091000394206D087000F21B9400D437146B940D6
:100920000C43401C0828F0D33068A84320433060B3
:100930000833361D082BDEDDF0BD0000202002400C
:1009400010B500240122214612040123084600F0BC
:10095000D3F80E487D22D200006800232146FFF71D
:100960003BFC0B4C0146204600F052F8002120468B
:1009700000F050F80121204600F040F80121204607
:1009800000F033F8112000F051FF10BD7C00002072
:100990000060074003490A680B689B1A8342FBD337
:1009A000704700003000002010B5044800F016F831
:1009B00003480168491C016010BD00000060074049
:1009C0003000002010B5034800F008F8024901206B
:1009D000486010BD007007403000002041684908A1
:1009E00049004160BFF34F8F70470422002901681E
:1009F00001D0114300E09143016070470029016874
:100A000002D00122114301E049084900016070470A
:100A1000C16070478160704710B5112105208902BF
:100A200040041022012300F067F810BD70B5134E8A
:100A30000446706B45076D0F00F024F810492060E4
:100A40002B0000F0BDFE081405070714140E111446
:100A5000606000E06160306A05280AD3606841097F
:100A600009E00120C003F3E77D200002F0E7002049
:100A7000EEE76168C140A16070BD000000800840E1
:100A800000127A000D4A1068D069C10F5068400A00
:100A9000C007C00F11D00A489369DB00DB0FD840B4
:100AA00000290AD19169C90D0907090F00D1102148
:100AB00092695202920F4843D0407047008008402C
:100AC00000127A001EB542090A4B92000021D2188A
:100AD0002E2800D10221C006C00E126803238340D5
:100AE0001A40C24054186846FFF7A0FF0298E04041
:100AF0001EBD000038800840F0B5084F7C6AFD6AD2
:100B00003E6B84438D439643002B02D004430D4338
:100B100016437C62FD623E63F0BD00000080084029
:100B2000F0B59446002615E08B5D020A5A40140287
:100B300000230A4F082522465A40120402D55B00C2
:100B40007B4000E05B0064006D1EF4D19AB20002AD
:100B50005040761C6645E7D380B2F0BD21100000FE
:100B600000B5034908600820C86000F00FF800BD18
:100B70000000084000B5044A106051600420D060B5
:100B800000F004F800BD00000000084010B5124954
:100B900010484A6902231A434A6114220A6104E098
:100BA0000A691207920F032A01D0401EF8D28A69FF
:100BB0008C699C438C61910301D5022010BD910783
:100BC00001D5012010BD002801D0002010BD032058
:100BD00010BD0000FFFF0F00000008408162704759
:100BE00070B50124124D240300222146284600F04E
:100BF00029F80622E1100120FFF776FE06222146A1
:100C00000120FFF771FE01220821284600F012F8AA
:100C100000220821284600F015F80022402128462D
:100C200000F008F800224021284600F00BF870BDC3
:100C300000200B40002A026801D00A4300E08A43EA
:100C40000260704710B58368C4688B438C43002AE8
:100C500002D0012A03D101E00B4300E00C43836082
:100C6000C46010BDC069084000D0012070474162D7
:100C70007047FEE79EB003200003B04A00240A90AC
:100C8000D460AF490B940991147000F07CFD00F022
:100C900029FA002821D1322000F0C4F9A94E356884
:100CA000A94F00F01FFA002803D13068401BB8425A
:100CB000F7D300F017FA00280BD1322000F0B2F978
:100CC000356800F00FFA002803D13068401BB842A5
:100CD000F7D300F007FA00287ED09A4B9B4E9C4D2C
:100CE0001A6819689B480C90808808E0804201D0FF
:100CF00094490968934B1B685B1AB34204D2914B29
:100D00001B689B1AAB42F1D300F066FB032292A151
:100D100092A000F0C7F90028DED003228EA191A096
:100D200000F0C0F90028D7D003228BA190A000F0DA
:100D3000B9F90028D0D0032287A18FA000F0B2F922
:100D40000028C9D000F060FF7C4FB860C820FFF7D2
:100D500021FE00F041FBB8680028BDD001208E497B
:100D60004007816003252D03C6142846FFF7F8FECF
:100D70008A48AD198542F8D3002008907860C5E014
:100D800000F074FF85490A98884225D20020032587
:100D900000902AE0C820FFF7FDFD00F01DFB67482A
:100DA0007FA142688A4800F0F7FC894800F086FF7E
:100DB00064480027066805E067A18648FFF763FAE4
:100DC000002808D15F480068811B7D200001814216
:100DD000F2D3002F09D000E08CE00C983A21028871
:100DE0007C48FFF76BFA002806D128466D1E0028C4
:100DF000D0DC009800287DD0FF220132754976486A
:100E0000FFF71DFA00F0EAFD734D71E0C0B23A2819
:100E100001D107E06D1C287800286ED00A28F9D18E
:100E20006D1C65E040210DA8FFF722FA00200DAAF5
:100E300002E01154401C6D1C2978002905D00A29B4
:100E400002D03F28F5DB00E06D1C3C4A01A90C32C2
:100E50000DA800F043FE012806D0002848DB6846B4
:100E6000007B002844D102E00120089045E00B9867
:100E70000299020403200003101808180A99471A5F
:100E80006846027903A901310998FFF749FE002657
:100E9000099029E04148874201D3012428E04FA06E
:100EA0000068009068460079821B042A01A802DBD2
:100EB0008119042200E0811968460931FFF7BFF962
:100EC0006A46D07811780006014390785278000481
:100ED000120210430143481C04D03846FFF74AFE73
:100EE0000028DAD1361D3F1D68460079B042D1D8BE
:100EF000287800E020E0002888D1089800280BD14D
:100F0000002C19D10D484168803141600B4841687F
:100F10008068814200D833E7002C0DD10898002862
:100F20000AD000F0A1FD002101204007416081604E
:100F30002B49016000F086FC00F054F81C000020F2
:100F4000FFFF00003000002010270000B80B000059
:100F5000204E0000CC0100204F4B00004154453092
:100F60000000000041542B434D45453D300000003A
:100F700041542B46534C530041542B465341545437
:100F800052493D65436F6F6B335F4F54415F54452A
:100F90005354312E686578003412ADDEFFFB01003A
:100FA00041542B43465452414E54583D22433A2F0C
:100FB00065436F6F6B335F4F54415F5445535431FA
:100FC0002E686578222C25752C3234302C310000A7
:100FD0008A000020CC000020DC020020FFFFFFFF81
:100FE000F0FAAA5500F0E4FE7D200001FFF7D2FCE4
:100FF000012040078268094B09499A4202D10160E9
:1010000000F020FC4268521C42604268052AF6D378
:10101000002141600249491FF1E700003412ADDEB2
:10102000F5FAAA5570B5084D044608212846FFF781
:101030001EFE064908680A68121AA242FBD308215C
:101040002846FFF7CBFD70BD00200B40300000208C
:1010500010B50324240320680721490740180E49CE
:10106000884217D260687321001B8902884211D21E
:1010700001200A4940060860BFF34F8FBFF36F8F0E
:10108000074800F0F7FA2146002000F01BF920463F
:10109000FFF774F810BD00000140000080E100E09F
:1010A00000000440F7B5FF2614460F460C4DF536F8
:1010B00010E0C820FFF76EFC00F08EF93A46284693
:1010C000009900F027FE002801D00120FEBD304627
:1010D000FFF760FC2046641E0028EADC0020FEBD0D
:1010E0000010004010B540210448FFF7BBFD002868
:1010F00001D0002010BD012010BD000000200B40D9
:1011000002480169012211430161704700A00540B6
:1011100005490028086802D00122104301E0400878
:10112000400008607047000000A005407FB5002423
:101130000126B6032246F503354901231046FFF781
:10114000DBFC0E2201210020FFF7CEFB0E22022144
:101150000020FFF7C9FB0E2204210020FFF7C4FB8B
:101160000E2208210020FFF7BFFB0E2210210020D5
:10117000FFF7BAFB0E2220210020FFF7B5FB0E225D
:1011800040210020FFF7B0FB0E2208210320FFF7CB
:10119000ABFB0E2210210120FFF7A6FB0E2220211F
:1011A0000120FFF7A1FB0E2231460220FFF79CFB36
:1011B0000E22A9130220FFF797FB02210E220846F8
:1011C000FFF792FB0E2204210220FFF78DFB0E2277
:1011D00008210220FFF788FB012168460170447056
:1011E0000394DF240221A4000191029400F024F86A
:1011F000FF2102220904204600F040F8012000F0FF
:101200002FF8044805600120FFF782FF7FBD000032
:101210000040002000E100E002480069C00700D063
:101220000120704700A0054010B5FFF7F5FF00282A
:1012300001D0FFF765FF10BD084900220A6002785F
:10124000437812021B031A4383881B041A430A6063
:1012500082684A60C06848617047000000A005408D
:1012600005490028C86802D00122104301E0400867
:101270004000C8607047000000A0054010B503465C
:101280000E4C0B43002A09D0012A0AD0022A0ED0A4
:10129000032A02D1A0681843A06010BDA06898433B
:1012A000FAE7A2680243A260A0688843F4E7A26854
:1012B0008243A260A0680843EEE7000000A005405A
:1012C000FEE70000024A1140014302488160704776
:1012D00080FFFF1F00ED00E0FEE70000F0B5084FC3
:1012E0007C68BD68FE6884438D439643002B02D022
:1012F00004430D4316437C60BD60FE60F0BD0000FA
:1013000000810840FEE77047F0B530491020C86002
:101310002F48016B402739430163426A79018A43B0
:10132000426242680A4342608168C908C907FBD02B
:101330004168C908C900C91C4160416B4907490F90
:101340000329FAD1234C2168C908C900491C21602E
:1013500000250562426861158A43426002684E10AA
:1013600032430260426808239A43426002680A439B
:101370000260026BBA4302630F22D2058261826966
:10138000CB041A43826102683243026042680A4316
:10139000426081684908C907FBD02168C908C900B3
:1013A000C91C216005624168C908C900491C416027
:1013B000416B4907490F0129FAD1216810221143D5
:1013C00021604168920191434160F0BD0081084075
:1013D000008008400002084010B5192000F0FEF916
:1013E000FF2101310548FEF743FF054800214180F8
:1013F00001808180192000F00DFA10BDCC00002082
:10140000CC010020F8B51D4E3069C00519D51C4C23
:10141000A08800282BD00025E71FF93F6088395CA1
:10142000304600F0A4F9A078401CC0B26080A088CB
:10143000401E0004000CA08003D06D1C2D062D0E54
:10144000ECD031693046890610D500F08DF90D4990
:101450000A88CB1FF93B98540878401CC0B208801A
:101460008888401C8880084901200870F8BD002247
:101470000421304600F070F9E3E70000001000405E
:10148000D4020020CC0100202C000020054948880F
:101490000988884201D9081A7047FF220132101AC0
:1014A00040187047D402002070B50C4CA08800286A
:1014B00011D0192000F092F96188E01FF938455CDD
:1014C000491CC8B26080A088401EA080192000F08E
:1014D000A1F9284670BD0020C04370BDCC0100209A
:1014E000F8B5124C0D46E71F0646F93F10E021887B
:1014F000307878542078761C401CC0B220801920A7
:1015000000F06CF9A088401CA080192000F082F93E
:1015100028466D1EADB20028E9D1A088002804D06D
:1015200001220421024800F017F9F8BDD40200207E
:101530000010004070B52C4C2021204600F0C8F867
:1015400000281BD0204600F00FF9294A0146274BFE
:1015500010781954401CC0B2107008280ED32549C9
:10156000022008700020244A01461070585C15784B
:10157000491C4019C9B210700729F7D380212046B1
:1015800000F0A6F800281BD00221204600F0A5F8A4
:10159000002815D0194D2978002911D00A20401AA9
:1015A0001749095C204600F0E2F82878401E010641
:1015B000090E297004D100220221204600F0CCF847
:1015C0000421204600F089F800280BD0FF210131CA
:1015D000204600F07DF8002804D000220421204697
:1015E00000F0BAF870BD00000000044014000020B4
:1015F0001100002013000020120000201000002025
:10160000800000201FB50124240300222146174832
:10161000FFF718FB0622E1100120FFF765F906220B
:1016200021460120FFF760F9E120400200902011DF
:10163000694688800020C88008810D4C03902046B0
:1016400000F050F8192000F0D9F801221146204688
:1016500000F082F801220021204600F08AF80122E1
:101660001146204600F085F81FBD000000200B4009
:101670000010004070B5144B00210125C61A2D033F
:101680000A46984217D008DC104BC01810D0401BF7
:1016900014D0A84207D1294605E0701B11D0A842FA
:1016A00001D10121490301231046FFF717FE70BD48
:1016B000FF210131F7E701214902F4E70121890205
:1016C000F1E70121C902EEE700000440000000C07C
:1016D0000069084000D001207047C068084000D071
:1016E0000120704770B50C460546C988A2880020C5
:1016F000114322896B68154E33401A431143E26847
:1017000011436960124901226B1A12038D4211D0F4
:1017100008DC104969180BD0891A13D091420CD1FA
:10172000082008E0991A0FD0914206D10A2002E061
:10173000182000E01A20FFF7C5F92168FEF722FD06
:10174000686270BD1C20F6E71E20F4E7FCE0FFFF96
:1017500000000440000000C0002AC26801D00A4313
:1017600000E08A43C2607047006880B27047016041
:10177000704710238B404168002A01D0194300E0D4
:1017800099434160704710B50020102201230146A3
:10179000FFF7A4FD10BD00000FB410B504A9074B5E
:1017A00002AA039800F06CF8044602A9002000F099
:1017B0000FF9204610BC08BC04B01847D11900002E
:1017C00030B47446641E2578641CAB4200D21D46BA
:1017D000635D5B00E31830BC18470000002809DB9C
:1017E000C106C90E0120884003490860BFF34F8F2E
:1017F000BFF36F8F7047000080E100E0002805DB39
:10180000C106C90E012088400149086070470000E8
:1018100000E100E0002805DBC106C90E0120884078
:10182000014908607047000000E100E0002805DB86
:10183000C106C90E012088400149086070470000B8
:1018400000E100E0BFF34F8F04490348C860BFF3D5
:101850004F8F00BFFDE700000400FA0500ED00E037
:1018600002E008C8121F08C1002AFAD17047704769
:10187000002001E001C1121F002AFBD170470000C7
:10188000FFB58DB00446002506E025280AD0109A41
:101890000F999047641C6D1C20780028F5D12846CC
:1018A00011B0F0BD00270121484A009700E007432E
:1018B000641C23780846203B98401042F7D12078DA
:1018C0002E2817D1042007436078641C2A280CD1E5
:1018D0000E98641C02C800910E900BE000990A2239
:1018E000514330394018641C00902078014630394B
:1018F0000929F3D920780028D1D0642808D0692894
:1019000006D075281ED0109A0F9990476D1C5BE089
:101910000A200E99019001C90E91002802DA404276
:101920002D2102E0390504D52B216A4611720121CF
:1019300003E0F90704D02021F7E70BAE0B910DE08F
:101940000021FAE70A200E99019001C90E91F7E7EC
:101950000199FEF717FC3031761E31700028F7D15F
:1019600003A8801B20300190780701D5009801E082
:10197000012000900199884201DD401A00E000201A
:101980000027009006E002A8109AC05D0F999047CA
:101990006D1C7F1C0B988742F5DB04E0109A302009
:1019A0000F9990476D1C0099481E00900029F5DCA6
:1019B00005E03078109A761C0F9990476D1C0199BC
:1019C000481E01900029F4DC641C65E70928010029
:1019D0000A68531C0B60107070470000F8B5214D69
:1019E000FF211F4C002701312846FEF741FC28E06B
:1019F0000D2E25D00A2E23D03E2E21D04F2E02D0E0
:101A00003A2E13D002E060784B280DD0002F17D06B
:101A1000FEF708FC0068805D8100414008060FD594
:101A20002E70641C6D1C0CE0A41C0AE0FE280FDA6A
:101A30000A202870207868700127641CAD1C00E023
:101A4000641C2678002E03D00648281AFE28CFDB17
:101A50000448281AFF2801DC00202870F8BD000087
:101A6000CC000020DC02002010B500200549064B08
:101A700002460C5CA400E418A261401C0428F8DBB8
:101A800010BD0000C41D000000A00540044801680E
:101A900000E000BF0268521A2A2AFAD370470000F9
:101AA000300000201920FFF7A9FEFEF7B5FFFFF771
:101AB00097F8FFF7A7FDFEF743FFFFF737FB01207D
:101AC00040070168044A914203D000218160FFF77A
:101AD000BFFAFFF7CFF80000F5FAAA55F0B5434F6B
:101AE00085B014460D46060010D0002D0ED030787B
:101AF0003A280BD10020019003A8009001AB02AA64
:101B00003BA1701CFEF7E4FB032802D0384605B069
:101B1000F0BD3B490198884202D33A480121017047
:101B2000029847000B37102802DD0420C043EEE77F
:101B30003046FEF7BCFBB84202DA0220C043E6E7BB
:101B400003982872002C04D0042802D12068401C7D
:101B5000206003980128DAD0002804D0042802D09D
:101B60000120C043D3E727490878012802D0022882
:101B700005D009E00198FF2806D80220087001214D
:101B80000198090440180190019868600298287033
:101B9000039800281AD1002C02D02068012815DBF8
:101BA00000240FE0600080196A4613A10930FEF797
:101BB0008FFB012802D00320C043A8E72919009811
:101BC0004872641C02988442ECDB05E02846FF2240
:101BD00009300299FEF745FB029804AA40008019DB
:101BE00005A10930FEF774FB002090E7FFFFFFFF1F
:101BF00025303278253034782530327800000000E6
:101C0000E0FF00001C000020F0B5164900240E88FB
:101C100020462146144D731E21E06A5C002C08D03A
:101C20001746303F092F10D80A27784380183038DC
:101C300013E0994211DA3A2A0FD16A185278202A11
:101C40000BD10124491C89B207E0994205DA4F2AD9
:101C500003D16A1852784B2A03D0491C89B2B14289
:101C6000DBD3F0BDCC010020CC000020F8B50F483C
:101C70000D2104680E484268A21A962A14D305461C
:101C800000680022103583005D190A4BAE5C9B5C36
:101C90009F00094BFB189E61521C042AF5DB044D82
:101CA000401CFEF785FA12C5F8BD00003000002088
:101CB00038000020C41D000000A0054038B50446CF
:101CC000124D10E02B4602E05B1E002B03DDFFF7F8
:101CD000DDFB0028F8D020786946087001216846AD
:101CE000FFF7FEFB641C20780028EBD102E06D1E9C
:101CF000002D03DDFFF7CAFB0028F8D0022104A065
:101D0000FFF7EEFBFFF7C2FE38BD00001027000012
:101D10000D0A0000F7B50024C2B00D46214E27463B
:101D20000EE05B1E002B03DDFFF7B0FB0028F8D0B0
:101D300028786946087001216846FFF7D1FB6D1CC1
:101D40002878194B0028EFD102E05B1E002B03DD41
:101D5000FFF79CFB0028F8D0022114A0FFF7C0FB7E
:101D6000FFF794FE01AD14E0FFF79EFB411C12D07B
:101D7000FF2C03DA28550020641C285544980028BD
:101D800007D0014601A8FEF77EFA002801D00127FE
:101D900001E0761EE8D2FFF787FB401CFBD13846F6
:101DA00045B0F0BD30750000102700000D0A00009E
:101DB00003484021C16381634162016270470000B2
:101DC00000A00540090803023F065B4F666D7D27B2
:101DD0007F6F800040404040404040404041414192
:101DE00041414040404040404040404040404040F1
:101DF00040404040050202020202020202020202C8
:101E00000202020220202020202020202020020286
:101E10000202020202909090909090101010101008
:101E200010101010101010101010101010101002C0
:101E30000202020202888888888888080808080840
:101E40000808080808080808080808080808080218
:101E500002020240D41D0000781E00001000002085
:101E60007000000060180000E81E000080000020E4
:101E7000600B00007018000000000000000000006F
:101E80000000000000000000000000000000000052
:101E90000000000000000000000000000000000042
:101EA000000000000000000005050607060203040C
:101EB00018000000300000002100000001010000B7
:101EC0000001010000000101000000030000000605
:101ED0000000000C000008080008080008080000C6
:081EE0001800000000879303C5
:020000040000FA
:10300000803F0020C1300000397900009566000043
:10301000FFFFFFFFFFFFFFFFFFFFFFFFFFFFFFFFC0
:10302000FFFFFFFFFFFFFFFFFFFFFFFF597D0000D6
:10303000FFFFFFFFFFFFFFFFE97A0000397F00007D
:1030400035310000357C000035310000353100009D
:1030500035310000353100002159000035310000C4
:10306000714900003531000035310000D181000088
:103070003D630000A57C00003531000035310000C3
:1030800035310000854B0000094D0000E16700006C
:10309000C16A0000353100003531000035310000D3
:1030A0008D94000029910000353100003531000079
:1030B00035310000857500003531000035310000E4
:1030C0001D4880471D4880471D4800471D4801692D
:1030D000002908D14169002905D18169002902D15F
:1030E000C169002909D01848C1680901090D0029E2
:1030F0000ED005290CD006290AD0BFF34F8F1348F4
:103100001349016013491248C860BFF34F8FFEE7AF
:103110000E4801680E48884200D070470E480F499B
:1031200001600A480E4901607047FEE7FEE7FEE7CE
:10313000FEE7FEE7FEE70000CD3000003D7F000027
:1031400065310000000308408001084000000020B5
:103150000400FA0500ED00E00081084001000000D5
:10316000000000000448854601F07EF90048004751
:103170001DEB0000C046C046803F002030B50B4626
:10318000014600202022012409E00D46D5409D4241
:1031900005D31D469540491B2546954040191546C7
:1031A000521E002DF1DC30BD70B5002425460028EC
:1031B00001DA01244042002901DA01254942FFF7E2
:1031C000DDFFAC4200D04042002C00D0494270BD2F
:1031D000F8B500242546002904DA0E460124002112
:1031E0004042B141002B04DA1E4600235242012521
:1031F000B34100F0F9FE8C4617461E46AC4203D0A0
:10320000002540428D41AC46002C02D0002657429A
:103210009E4161463A46334601B0F0BD00487047D2
:10322000004F010010B50446FFF7F8FF0068005D8D
:10323000C007C00F10BD01466139192900D82038D8
:10324000704701464139192900D82030704703469C
:103250000B439B0703D009E008C9121F08C0042ACA
:10326000FAD203E00B780370401C491C521EF9D2BD
:103270007047D2B201E00270401C491EFBD2704779
:103280000022F6E710B513460A4604461946FFF732
:10329000F0FF204610BD30B505462A460B46107893
:1032A0001C78521C5B1C002801D0A042F7D0002CD7
:1032B00003D0002802D06D1CEFE7284630BD10B5C2
:1032C000044605E00B780370401C002B00D0491C1D
:1032D000521EF7D2204610BDCAB2401E4178401C93
:1032E0008A4202D00029F9D100207047421C01789F
:1032F000401C0029FBD1801A704710B5002200E065
:10330000521C835C8C5CA34201D1002BF8D1D8B253
:10331000E1B2401A10BD03460A780270401C491CF5
:10332000002AF9D11846704730B5054600200346FB
:1033300000E05B1C934205D2EC5CC85C201A01D112
:10334000002CF6D130BD10B508E00A4602E0A342D9
:1033500008D0521C1378002BF9D1401C0478002CA3
:10336000F3D1002010BD00000FB400B58DB009905E
:103370000B9010A900200091C0430A9000200C90EF
:1033800006480690064807906A4609A80F9900F07B
:10339000E1FE0DB008BC04B0184700007541000004
:1033A00095410000FFB50027FF4383B000205C6813
:1033B00001909E681D46A9697F1C0498884700906B
:1033C000296A88470028F6D10098401C0CD00320B9
:1033D00040028443002E19DD600614D500982B2886
:1033E00009D02D280FD103E00020C04307B0F0BD65
:1033F000012080020443A9697F1C04988847761E37
:103400000090002E02DD0098302803D00598002897
:1034100025D035E0012040020443A969761E7F1CB7
:10342000049888470090002E03DD782805D058289E
:1034300003D00598002810D022E00598002801D07C
:1034400010281DD1012040028443A969761E7F1CEB
:10345000049888470090102002E0082000E00A202D
:1034600005900DE0012149020C43059A0199761E51
:10347000514308180190A9697F1C0498884700905F
:10348000002E05DD0599009800F04FFE0028E9DACE
:10349000E96904988847A00502D40120C043A5E744
:1034A000E00722D1600611D56005019800D54042A1
:1034B00029680A1D2A600968220501D5087014E0F0
:1034C000220701D5088010E008600EE02868011D81
:1034D00029600068210502D50199017005E02107E6
:1034E000019901D5018000E0016038467EE7FFB513
:1034F000002083B000905068019091691446002626
:1035000097680498884705460C990698084305D0A3
:1035100009E0A169761C049888470546216A284677
:1035200088470028F5D1681C03D00198C00704D053
:1035300017E00020C04307B0F0BD2068011D2160E6
:10354000006800900DE00198C00704D10098057054
:103550000098401C0090A169761C7F1E0498884743
:103560000546002F1CDD681C1AD0069800280FD0D5
:10357000E817C00E401941118A00069940095118F8
:1035800040012A1A0968012090400142DBD107E07E
:103590000C980028D7D1216A284688470028D2D025
:1035A000E169049888470C98002807D1002E05DDB2
:1035B0000198C00702D1009800210170A068B842AC
:1035C00004DD0C98002804D0002F02D00120C04355
:1035D000B1E73046AFE70000FFB5087889B015467F
:1035E000FF2805D0491C2D2804D00022002407E024
:1035F00000240BE00122F9E70A235C430419491C6B
:103600000878FF28F8D1002A00D0644200200490F6
:103610002A7801462D2A01D02B2A0FD16D1C2D2A84
:1036200002D00022049209E00122FBE700260A22D0
:1036300033466D1C00F008FD381871412F78FF2FBC
:10364000F4D10C9AA218069202460A4304D0FF2332
:10365000069A9133DA4205DA002109980A4606C033
:103660000DB0F0BD0024B74AB54D2646079200F0D4
:10367000CDFE029006980391002801DA474200E04F
:10368000074639050020AF4A001C514101910090C6
:1036900012E0F80707D022462B463046079900F083
:1036A000EBFA0646079122462B461046194600F0D3
:1036B000E3FA04460D467F10002FEAD10698019BDD
:1036C0000028009A0399029806DA00F03DFB324682
:1036D000079B00F039FB05E000F0CEFA3246079B6D
:1036E00000F0CAFA049A002A02D00122D2075140FF
:1036F000099A03C2B4E7FFB591B0002009900025F4
:10370000ED432E209E685C681F460190B9696D1CD0
:10371000129888470090396A88470028F6D10098A7
:10372000401C0AD00D20C0018443002E12DD0098F9
:103730002B2809D02D280DD103E00020C04315B05F
:10374000F0BD012080020443B9696D1C12988847BE
:10375000761E009003A9600501D52D2000E02B20E6
:103760006A461073491C0CA80F9102900AE0B969CF
:103770006D1C129888470090012040020443139862
:10378000761E0560002E02DD00983028EFD00199EA
:103790000098884246D18020044308E00998401EE2
:1037A00009900120400204431399681C0860B9691C
:1037B0006D1C761E1298884700903028EED031E0BC
:1037C0000199884205D1200603D480200443761E47
:1037D0001EE0009806F034FC002826D001204002AC
:1037E000044307A90F980331761E88420BD2009834
:1037F0000F99303808700F98401C0F90200607D59D
:103800000998401E03E0200602D40998401C099044
:10381000A00502D51399681C0860B9696D1C12983F
:1038200088470090002ECBDC59E0002E57DD009831
:10383000652801D0452852D1A00550D503200002AB
:103840008443B9696D1C761E129888470090002E3B
:103850000CDD2B2804D02D2808D1FF200130044393
:10386000B9696D1C12988847761E0090E00501D555
:103870002D2100E02B21029801700298401C02903B
:10388000019025E00120400204430EA90298013175
:10389000761E88420ED20098029930380006000E3B
:1038A000087003D10299019881420AD90298401CFC
:1038B000029006E0E00501D5234801E0224840429D
:1038C0000990B9696D1C129888470090139805609B
:1038D000002E04DD009806F0B3FB0028D2D1F96970
:1038E000129888470F99FF200870029903AA087060
:1038F00000200A900B900CA90AA8099BFFF76CFE08
:10390000A00502D40120C04319E72420044209D0B5
:10391000E00713D138680B9A0A99031D3B600068D1
:1039200006C00BE00B990A9800F02EFB0146E00759
:1039300004D13868021D3A60006801602846FEE63E
:10394000000014400000F03FF1D8FFFF70B50646BC
:1039500006F020F9046805460A220021304600F0EE
:103960007DFC2C6070BDF8B502464A40D40F420081
:103970004B0052085B089A4202D2024608461146A2
:103980004A0023D0C30D4A00DDB2120EAD1A202D1D
:1039900035DA49020126490AF6058A19002C00D0B9
:1039A000524220214F1B1146B9402A411018C20D26
:1039B0009A4221D0002C17D0012D08DCDA05801A9C
:1039C000D20F8019D207DBB200F088FCF8BDDA050F
:1039D000801A012340001B06C01880185A42801824
:1039E000CA0F1043490007E04908C2071143DA052E
:1039F000801A80194008801800F068FCF8BD61004A
:103A00000122511A001BF7E70122D2075140AAE711
:103A10000122D2075040A6E7024670B54A40D30FB4
:103A2000DB0740002DD04A002AD0010E140E000200
:103A300012020919400A520A8418E5010446544347
:103A4000000A120A2E045043A4194219200CC5433F
:103A5000AA18120C0125AD03521C521912047F3909
:103A6000240400D0521C104301D44000491EC2B2AD
:103A70000C06C0092018401C4008802A02D003E030
:103A8000002070BD40084000002900DA00201843E3
:103A900070BD70B502464A40D50F40004A00ED07A0
:103AA00040085208002814D0002A12D0C40DD30DAB
:103AB00041020120C0055202490A520AE41A0918BB
:103AC00012187D34914201D3641C00E04900002C9F
:103AD00001DA002070BD0023914201D3891A03430B
:103AE000400849000028F7D100290AD0914202D1AC
:103AF0000121C90705E0914201D2012101E0012124
:103B0000C943E005C018401900F0E0FB70BD00009B
:103B1000F0B507460846584087B0C00F04904800EB
:103B20000E46590040084908BC1A884105D238465B
:103B300031461E4617460B460246580040081043C1
:103B40004DD0300D039040055900400D490D0590B2
:103B5000401A0290402873DA18030121000B09056E
:103B60000843019004980092002806D01146019A5B
:103B700049420020904100910190029840210A1A88
:103B80000199009800F09DFA05460C466B4607CB5C
:103B900000F0B8FAC0197141039A0E0D0023D7172F
:103BA00056401A467A40164344D0049A002A2DD033
:103BB000029A012A039A15DC1205C01A91410126C6
:103BC0003605001C7141D20F059ED2070093019269
:103BD00002962A46234600F0C7FB07B0F0BD3846E0
:103BE0003146FAE71605234A0F46B218C01AB74104
:103BF00001210905001C4F4100187F41114618188A
:103C00007941E20F10436D19644113E0E2076D083A
:103C100015436408C2071443039A01261205C01A0B
:103C200091413605001C7141CE07400830434908D8
:103C3000C01851412A46234600F089FBCDE7FFE733
:103C4000049801224000C117121A00238B410498E6
:103C50003146C417381AA141EEE730B40124E40715
:103C6000634030BC54E730B40124E407614030BC09
:103C70004EE700000000E0FFF0B51FB488B00B99DC
:103C80000998002448400999C00F49004908099142
:103C9000C0070B990090490049080B9109990898B1
:103CA000A64608431CD00B990A98084318D00998D7
:103CB00001244000420D4800410D099824050003ED
:103CC000000B204309900B980003000B20430B903E
:103CD00050181C494018002201901446104605E077
:103CE000002001460DB0F0BD032801DA034600E0D4
:103CF00003239C46C11A0AAE0AE05F0008ADED5BE3
:103D00004F00F75B7D430027AA187C41491C5B1ECE
:103D10006145F2DD410004AB5A522104120C0A4302
:103D2000240C401C0828DFDB0198029000997046A3
:103D300001910090059B049A0799069800F014FBE6
:103D4000D0E700000DFCFFFFF0B50C465C4085B0ED
:103D5000E40FE40703944C000026640859009446DD
:103D6000490802460296224321D062460A431ED0E9
:103D70006200570D4A000E032303550D012402462D
:103D80002C492405781B1B0B360B40182343264374
:103D9000614600901C46501AB44103D30098401C61
:103DA000009002E0921800985B41002803DA00209E
:103DB000014605B0F0BD00200121090507468646F1
:103DC00011E064461D46141BB54106D36546521BDF
:103DD000B341744607430C43A646CD074008490843
:103DE000284392185B4105460D43EAD1104618431B
:103DF00013D06046194650407140084306D06046D3
:103E0000101AB34106D20122002306E0002201234A
:103E1000DB0702E00122D2435310009874460105EB
:103E2000381C6141029C039D0019694100F08FFA22
:103E3000BFE70000FD030000C217C10F504010B5DE
:103E40004018CA079623002100F048FA10BD10B5AB
:103E500000229623114600F041FA10BD0EB5C2179C
:103E6000C10F5040CA0740180021054B0293019230
:103E700000910A460B4600F077FA03B000BD00003F
:103E8000330400000EB505490291002100910A4655
:103E90000B46019100F068FA03B000BD3304000046
:103EA000410040020122400AD205090E80187F29F4
:103EB00001DA00207047962903DC9622511AC84087
:103EC000704796398840704770B5CD0F4A00090396
:103ED0000123090B1B0519430B4BED070024520D61
:103EE0009A4201DA002070BD074B34339A4203DC5A
:103EF0009A1A00F0F6F802E00449511888402C4361
:103F0000F1D0404270BD0000FF030000CDFBFFFF79
:103F1000C20FD207400040080BD0C10D0723DB01C0
:103F2000C91840020905400A1143C208400711435D
:103F3000704700200146704710B5002904DB0124BA
:103F4000E40740428C412146002B04DB1C46012340
:103F5000DB075242A3418B4200D1824210BD0000D8
:103F600010B5002904DB0124E40740428C412146BE
:103F7000002B04DB1C460123DB075242A34199427C
:103F800000D1904210BD0000CB0FDB07490010B5F7
:103F9000490802460A4307D00A0D07240903E40131
:103FA000090B121B002A01DC002010BDC900440FC0
:103FB0000C43C100E018D205801800F087F910BD4D
:103FC0000122D207002800DB101A002900DB511A59
:103FD000814270470122D207002800DB101A002915
:103FE00000DB511A88427047F0B51FB40646002026
:103FF00082B005464024019100901BE001992246C1
:104000000F46304600F06DF8049A059B801A9941DE
:1040100010D310461946224600F053F8361A8F4145
:104020000197224601200021009F00F04AF838182D
:104030004D4100902046641E0028DFDC019B009863
:104040002946324607B0F0BDF0B51FB486B0002057
:104050000090019002900698069980B2049007980B
:10406000090C02040014114307900027089D0998C9
:1040700006913E463C4603900398A9B20204000C08
:10408000039004982D0C154348430021224600F06C
:1040900018F8C719714110340E46402CECDB384635
:1040A000029A00F00EF8009A019B80180090594186
:1040B00002980191103002904028CCDB00980BB0A0
:1040C000F0BD10B5202A04DB0146203A91400020C3
:1040D00010BD914020239C1A0346E34019439040B1
:1040E00010BD10B5202A04DB0846203AD04000213C
:1040F00010BD0B46D340D0402024A21A9140084363
:10410000194610BD10B5202A06DBCB170846203A09
:104110001041C1170B4306E00B461341D040202449
:10412000A21A91400843194610BD3A2800D23038EF
:10413000202302469A43412A01D310463738884249
:1041400001D30020C0437047026813785118016002
:104150001846704710B5D160044951610449116295
:1041600000211161114600F091F910BD4941000094
:10417000253200004268002A08D001680B78491CEB
:10418000002B03D0521E06C0184670470121C160A3
:10419000881E70474268002A0BD0C3680168002B54
:1041A00007D183688B4204D0491E521C06C00020F0
:1041B00070470020C04370470FB400B589B00CA908
:1041C00000910B990023CB60204B214A0693079264
:1041D000042201921F4A02921F4A089202466B462D
:1041E0000020FFF788FA09B008BC04B0184770B582
:1041F00086B006460020C0430190002015460C46BC
:104200000091029104903246694604A8FFF7D4FF5A
:10421000024604982118002D05D0002801D0084638
:1042200000E020462860049800280DD0002A02DD16
:104230000098884208D0081B0190009432466946D5
:10424000029404A8FFF7B8FF06B070BD75410000E6
:1042500095410000FFFFFF7F25320000F7B5009C6D
:104260000F4600262578641C002D05D0FEF7D6FFEA
:104270000068405DC007F5D12B2D02D02D2D18D040
:10428000641E39462046029A00F09EFA002F04D0A0
:104290003968A14201D100993960710502240029D1
:1042A0000BDA4042002803DD05F074FC0460A0072F
:1042B000FEBD012080020643E3E70028F8DA05F09E
:1042C00069FC04600048FEBDFFFFFF7F002904DA9F
:1042D000401C490001D140084000704770B40024E0
:1042E000050C05D11024000402D1002921D011248D
:1042F000050E01D100020834050F01D10001241D73
:10430000850F01D18000A41C002801DB4000641C43
:10431000002908D020252E1B0D46F540A14000D0D5
:1043200001212943084301061B1B000ADB1D02D59E
:10433000002070BC7047DB05181880180029F8DAD7
:10434000401C4900F5D170BC40084000704710B5D2
:10435000002B08DA0024401C614192185B411A438B
:1043600001D14008400010BDF0B51FB482B0054631
:104370000C0003D0084605F05DFA02E005F05AFA99
:1043800020300246009021462846FFF79AFE049B03
:10439000059A04460F4618431143084314D01846A3
:1043A00010431BD0009840210A1A18460599FFF7C0
:1043B00098FE05460E46009A05990498FFF781FE7F
:1043C000084305D0012004E02046394607B0F0BD7F
:1043D0000020C11705430E432C43374300990E9824
:1043E0006305401A7905E40A00220C43FD0A0A30ED
:1043F00002D500200146E9E70105101969410C9C2E
:104400000D9D00196941FFF7A2FFDFE70EB5054AD0
:1044100002920022009213460192FFF7A5FF03B01B
:1044200000BD0000330400004A0009030123090B0A
:104430001B0519430A4B10B5520D9A4202DA0020AF
:10444000014610BD064B34339A4203DC9A1AFFF73B
:1044500048FE10BD034BD218FFF733FE10BD00001D
:10446000FF030000CDFBFFFF064C0125064E05E0D3
:10447000E36807CC2B430C3C98471034B442F7D385
:10448000FEF774FE0455010024550100F3B58DB00C
:1044900000200A9001200B90002608460C300C46A4
:1044A00009906269012109989047051E2ED0252D9B
:1044B0002DD0216A8847002818D062690121099807
:1044C0009047216A88470028F7D1411E6269099800
:1044D000904700E0761CA1690D988847216A8847BB
:1044E0000028F7D1E1690D988847DAE7A1690D98AE
:1044F00088470746A84201D1761CD2E7E1690D98AA
:1045000088477F1C02D10A98002877D04AE100270B
:1045100062693D463946099890472A280CD162695C
:10452000012109989047012506E00A214F433F18D1
:10453000303FEBD410200543626901210998904770
:10454000014630390A2903D29C498F42DEDCECE770
:10455000E90600D49A4F6C280AD04C2810D068285D
:1045600024D06A282ED074280CD07A280AD00DE0E6
:1045700062690121099890476C2823D004211CE02E
:10458000202005436269012109989047A760656072
:1045900065284FD026DC582839D01ADC452849D068
:1045A00012DC252834D04128B0D143E062690121D2
:1045B00009989047682802D008210D43E6E70120BA
:1045C000C002DEE70220DCE7462833D047282CD1A2
:1045D00030E05B2870D061282CD063286CD0642830
:1045E00023D161E06F284FD009DC662822D06728EC
:1045F00020D0692826D06E2817D12EE0CEE0702872
:104600004DD073286FD075284ED078280DD154E046
:10461000A1690D9888470546252800D16CE7E16916
:104620000D9888476D1C00D16DE7BBE00A224CE075
:104630000A2252E0012023466A46C0430D99FFF743
:104640005AF8A4E02846402108436060A8072346A2
:1046500001D5002239E000223FE0E80700D020E742
:104660002068011D21600068290501D5067018E742
:10467000290701D5068014E7A90703D5F1170660BD
:1046800041600EE706600CE7284640210843606061
:10469000A807234601D5082217E008221DE0494952
:1046A00028460840606016E02846402108436060C4
:1046B000A8072346BCD5B9E715E0284640210843A2
:1046C0006060A80707D5234610220120C0430D993A
:1046D000C046C0465BE0234610220120C0430D992E
:1046E000FEF760FE53E000210C910B460091632819
:1046F00002D05B2808D044E02079C00601D4012014
:10470000A060012000903CE0626901210998904777
:104710005E2805D101200C900146626909989047F6
:104720002169002906D10B4601AA8F00491CD351EB
:104730000829FADB002835D0216900290ED1C117DC
:10474000C90E09184A11930001AA9A18490949018A
:10475000411A0120136888400343136062690121F4
:10476000099890475D28E5D10C98002808D00020D2
:1047700001AB81005A58401CD2435A500828F8DB3C
:1047800001AB01202246C0430D99FEF7B0FE002880
:104790000ADA401C06D10B98002803D00020C04341
:1047A0000FB0F0BD0A98FBE7E90702D10A99491C4E
:1047B0000A91361800200B9073E60000CCCCCC0C8C
:1047C000FFFFFF7FF1F7FFFFF7B582B0029C0027E4
:1047D0002078641C15460197302802D0002D15D092
:1047E00015E020780127641C782804D0582802D0CE
:1047F000002D09D00BE0002D01D0102D07D100278E
:1048000010252078641C02E0082500E00A25002617
:10481000009610E00099012769430818020C294608
:1048200080B2714300908E183804864201D3012073
:1048300001902078641C2946FFF777FC0028E9DA0C
:104840000398002805D0002F01D0641E00E0029CD0
:1048500004600198002806D005F09CF9022101604F
:10486000C81E05B0F0BD009930040843F9E770B5E3
:104870008C180578401C6B075B0F01D10378401C36
:104880002A1106D10278401C03E006780E70401C05
:10489000491C5B1EF9D12B0705D40023521E0DD4F1
:1048A0000B70491CFAE70378401CCB1A921C03E0FA
:1048B0001D780D70491C5B1C521EF9D5A142D8D33E
:1048C000002070BD8C2211507047002904D002686E
:1048D00080231A43026003E0026880239A43026047
:1048E000704700000EB50020009001900290012159
:1048F000090602988843401802908912019888435B
:10490000401801900123684607C800F077FD17485A
:1049100000F085F802228021002000F0B1F8062185
:10492000102000F08BFD0023012202210F4800F02F
:104930005FF800210D4800F077F800231A4609219E
:104940000A4800F03AF80121084800F061F8012215
:104950001146064800F022F801210448FFF7B5FF90
:104960000121024800F062F80EBD00000000014085
:1049700010B501210648FFF7A5FF0548006B0005AB
:10498000000D0449086001200349087010BD0000B3
:1049900000000140C0040020C404002010B5002A1B
:1049A00005D080231B580B438024235004E0802330
:1049B0001B588B438024235010BD70B50C469510B6
:1049C000AE00051DA9599507EE0E1F25B5402B46D3
:1049D0000D469D4329469507EE0E2546B5402B46CC
:1049E0000D461D4329469510AD00061D715170BD41
:1049F00070B5032900D100BF5C1E2404551E2D0292
:104A00002C430C430568802635402C43046070BD60
:104A1000CA06D20E02674A0952014267704701680E
:104A2000402211430160704701627047002904D0A1
:104A3000426F01231A43426703E0426F520852005B
:104A40004267704730B50A4600230021072801D984
:104A5000012308389C00094D6419216885000F2442
:104A6000AC400D46A543294685001446AC40214381
:104A70009C00024D6419216030BD000000200240FE
:104A8000F7B50B46009DED00154EAA190020002435
:104A90000027002120E000240027FF258D401D4035
:104AA000002D17D000200FE01D46C54001268E4086
:104AB0003540002D07D086000F25B5402C438600D9
:104AC000029DB5402F43401C0828EDD31568A5432F
:104AD0003D431560121D08310829DCDDFEBD0000D4
:104AE0002020024000200349087003480068034961
:104AF00008607047A0010020A00000209C01002059
:104B0000FEB5002000900190029001210904029856
:104B10008843401802900123684607C800F06EFCE5
:104B20000E480068012104F09CFE04467D22D2005C
:104B30000023FEF74DFB06463146094800F03DF9DB
:104B40000021074800F03BF90121054800F029F950
:104B50000121034800F019F9FEBD00003C050020CA
:104B60000060074070B504460548056801E001F0A3
:104B70001DFC03480068401BA042F8D370BD000034
:104B8000A000002010B5384800F0F8F804F0BEF896
:104B900036480068401C3549086035480068401CAC
:104BA0003349086033480078012804D1324800882E
:104BB000401C314908803148007800283FD13048F6
:104BC0000088401C2E4908802E480078042801D116
:104BD0002D4800E02D482A490988884209D22948F1
:104BE0000078042801D1284800E02848401C2449C6
:104BF000088027480088401C254908802148007803
:104C0000042801D1204800E0204821490988884231
:104C100009D21C480078042801D11B4800E01B4839
:104C2000401C1B49088001F0C7FE02F063F8102108
:104C3000184809F0C5FB1021174809F0F3FB174885
:104C40000088401C1549088008460088C82809DBF0
:104C5000002008801248006B10210840002801D075
:104C600004F0A0FD10BD000000600740A00000207F
:104C7000A400002024050020280500209304002023
:104C800090040020EE010020E093040060EA0000A0
:104C9000A0040020D2080020E2080020B800002074
:104CA00000800840FEB50020009001900290012194
:104CB000490402988843401802900123684607C8B7
:104CC00000F09CFB0E4800687D21C90004F0C9FD7E
:104CD00004467D22D2000023FEF77AFA06463146CA
:104CE000084800F06AF80021064800F068F8012141
:104CF000044800F056F80121024800F046F8FEBDD5
:104D00003C0500200070074010B5154800F036F84B
:104D100001201449086014480068401C12490860CA
:104D200012480068401C1149086011480068401C86
:104D30000F4908600F480088401C0E49088007F0A2
:104D40002DFE07F011FF0FF0CFFA0B480078002876
:104D500001D1012000E000200749087010BD0000CB
:104D600000700740A8000020AC000020B000002028
:104D7000D0040020B4000020B6000020416849089B
:104D800049004160BFF34F8F7047002904D002688B
:104D900004231A43026003E0026804239A4302607A
:104DA0007047002904D0026801231A43026003E01F
:104DB00002685208520002607047C160704781600B
:104DC00070470000F0B5364E0120B07000252F4628
:104DD0002EE0284602F0D6F8002827D12C464420A1
:104DE0004443F06C015DCA0701D089071ED4B77037
:104DF0002018C28D416889184160F06C2018028E1D
:104E0000816889188160F06C20184178491CC9B20A
:104E1000417010290AD3F06C0021201847702846F1
:104E200003F09AF90121284603F096F96D1CEDB2C2
:104E3000707B8542CDD3B07800282FD0002329E0A5
:104E4000184602F09FF8002822D11A4644214A430E
:104E5000F16C144851188881F16C51180882F16C7A
:104E600051188882F16C51180883F06C1018C781B2
:104E7000F06C10184782F06C1018C782F06C101894
:104E80004783F06C1118088E0887F16C5118C8869A
:104E90005B1CDBB2707B8342D2D37771F0BD000024
:104EA0005C050020FFFF0000F0B51F4DE88C686432
:104EB0000026374630E0304602F064F8002829D159
:104EC000344644204443E86CFD22015D4908490012
:104ED0001140015520184770E86C012120184760E7
:104EE000E86C490220188760E86C0022201841868F
:104EF000E86C20188186E86C20184185E86C201841
:104F00008185E86C2018C785E86C20180786304634
:104F100003F07CFF761CF6B2687B8642CBD3AF7081
:104F20006F70EF70F0BD00005C05002070B50546A5
:104F30000C46002D02D0012D74D174E0002C4DD010
:104F400028460FF0ADFC74480088744908800A2098
:104F5000714908800120724908706F4800784870D4
:104F600000207049088002206F4908706D48007861
:104F70006E4948706B48807800282AD00020694923
:104F8000C870087188704871002166488171C171CC
:104F9000017267480078012803D10D2002F052FB0E
:104FA00000E000BF63480078092811D1604800780C
:104FB00001280DD15B4A1178574A10780FF0EEFCAA
:104FC0005849087802F0B8FB022008F033F801E0F5
:104FD00000E000BF01205049487223E04F4800889C
:104FE0004D49088001204E4908704C4800784870AF
:104FF0004949087802F0A0FB4A4A1178464A1078DD
:105000000FF0CCFC44480088002805D042480188B5
:1050100028460DF0F3FC02E0474806F08DFE002024
:105020003D49487275E0002C4DD028460FF038FC01
:105030003C480088394908800A203A490880022003
:10504000394908703748007838494870002032499B
:1050500008800120324908702F48007848702E4897
:10506000807800282AD000202B49C87008718870E9
:105070004871002128488171C17101722C48007863
:10508000002803D10D2002F0DDFA00E000BF29481E
:105090000078092811D12648007800280DD1214A2E
:1050A00011781D4A10780FF079FC1B49087802F03E
:1050B00043FB022007F0BEFF01E000E000BF01203B
:1050C0001849487224E015480088164908800220D3
:1050D000154908701148007814494870114908783A
:1050E00002F02AFB0F4A11780B4A10780FF056FC99
:1050F0000C480088002805D00A48018828460DF091
:105100007DFC02E00D4806F017FE002005494872BC
:1051100000BF00BF70BD0000F2080020EC010020BD
:1051200071010020FE080020E20800207901002023
:1051300088010020EE010020C0010020D0010020E5
:105140007FB504460020019002900390012189035D
:1051500002988843401802908903039888434018B6
:105160000390012301A807C800F048F90D2210217F
:105170000320FFF785FC21462248FDF7FFFF451E6F
:1051800003216846418005800021017100200290C2
:10519000FF2101316846818169461B4803F0EAFE20
:1051A000FF210131184803F05BFE002168460170C1
:1051B000072141800021017141718171C17101722A
:1051C00001214172691C3C22514308466421FDF7CC
:1051D000D5FF81B2684641810021818169460A4834
:1051E00003F05AFE0D20002809DB00BF00BFC206F5
:1051F000D20E01219140054A116000BF00BF00BFDF
:105200007FBD0000C0E1E4000040034000E100E099
:1052100070B504460D462046FFF792FFA1B2002369
:105220002A46012000F002F870BD0000FEB50546D8
:105230000C4616461F4621462048FDF7B5FF401E86
:1052400001900199491C3C22514308466421FDF715
:1052500095FF00901A4805702146714308467D214C
:10526000C900FDF7A1FF1749088021467943084688
:105270007D21C900FDF798FF134908801148008877
:105280000988401811490860019881B2104803F05C
:105290006EFE009882B200210D4803F061FE0122EB
:1052A00011020B4803F0EDFD01220021084803F034
:1052B000C9FD0121064803F0D8FDFEBDC0E1E400B0
:1052C000F4030020F6030020F8030020FC03002074
:1052D00000400340884202D9401A80B27047002043
:1052E0007047000070B504461748406B4607760FBC
:1052F00000F02EF82060330004F0CBFA0816050801
:105300000B16160E12162068606010E00F486060E1
:105310000DE00E4860600AE00120C003606006E016
:105320007D200002606002E00020606000BF00BFDE
:105330000548056A052D02D36068400901E06068F0
:10534000E840A06070BD00000080084000127A00B4
:10535000F0B51B480068FF2701373840040A184899
:10536000C069C50F164840687F003840460A002EC5
:1053700001D10020F0BD002C01D1124800E01148FD
:1053800002460F4FBF69FF00F80F1746C7403A4665
:10539000012D01D11046EDE7094880690F27FF056F
:1053A0003840C10D002900D110210548806903272C
:1053B0007F053840430D10464843D840DAE70000E7
:1053C0000080084000127A007EB504460025601176
:1053D0008000094946182E2C00D10225E406E40E6F
:1053E0000321A14030680840E04045196846FFF7B6
:1053F00079FF0298E8407EBD388008403FB50E4CEA
:10540000606AE16A226B0446009DAC4320460C466C
:10541000019DAC4321461446029DAC432246002B1D
:1054200005D0009C2043019C2143029C2243024C56
:105430006062E16222633FBD00800840054A926AD3
:10544000072383409A430B4683401A43014B9A62D9
:10545000704700000080084010B5034608484360CC
:105460006520074C206003E00878054C2073491C38
:105470001046521E0028F7D10148806880B210BD46
:1054800000A0084000B587B0002001900290039072
:10549000012149030198884340180190012301A884
:1054A00007C8FFF7ABFF012069460874054800688C
:1054B00005900020069004A9034800F007F807B003
:1054C00000BD0000A404002000A0084002464B6874
:1054D00053600B78002B06D0012B06D0022B06D090
:1054E0000F2B06D106E0002006E0652004E0E62050
:1054F00002E000BF886800BF00BF10607047000076
:1055000010B500200C4B012498645A7B11E0986C74
:10551000521E40009864D0B201F03EFD002807D032
:10552000D0B203F00DF9002802D0986C20439864A3
:10553000D2B2002AEBD110BD5C050020F0B5274C9B
:105540000746A0790025002805D1A078002802D0C0
:10555000E079002801D0A5653DE000231A4622E04D
:10556000104601F019FD00281BD010464421484385
:10557000E16CE68E4018018FB14206D9418E0029B8
:105580000FD0808E00280AD10BE0A68EB14208D23F
:10559000468E218F8E4204D2808E884201D2627B59
:1055A0000123521CD2B2607B8242D9D3002B05D09A
:1055B000A06DC019A065E08C606400E0A565606D19
:1055C000A18D884201D3608D00E0208DA16D8142C4
:1055D00001D90120F0BD0020F0BD00005C050020D5
:1055E00010B500200649024606E04423CC6C434334
:1055F0001B19401CDA87C0B24B7B9842F5D310BD13
:105600005C0500200348FF21C1720021C182018393
:10561000704700005C050020F0B587B000200490C2
:1056200005900690B2480078042801D1B14800E006
:10563000B148B2490988884270D2AD480078042840
:1056400001D1AC4800E0AC48AD4909888842F3D2AA
:1056500002F0E4FA0446AB480068039001F0FAFB5C
:1056600000F0C8FD01F074FC059840084000401CA3
:105670000590022105988843801C059049020598F1
:1056800088434018059049100598884340180590B4
:10569000C904069888434018069049000598884335
:1056A000401805904911069888434018069010212B
:1056B00004988843103004904902049888434018A5
:1056C0000490C9000498884340180490C9000498C5
:1056D000884340180490C9120698884340180690E1
:1056E000002304A807C8FFF789FE012000F088F90D
:1056F0000120854908708548006802900025002037
:10570000019041E00120002804D0012807D00228A0
:105710000DD108E0012002F0D7F908E0E6E0012011
:1057200002F020F903E0012002F056F900BF00BFAB
:1057300001F0CCFB00280FD001F0AAFB6420009000
:1057400000BF0098411E00910028FAD102F066FACD
:105750000546012001901FE06C4801680298081A74
:105760006B4988420FD301F093FB6420009000BF87
:105770000098411E00910028FAD102F04FFA054628
:105780000120019008E000BF5C480088002803D099
:105790005B4800880028B5D100BF00205A49087036
:1057A000019800280BD16420009000BF0098411E92
:1057B00000910028FAD102F031FA054600BFA54257
:1057C00001D32E1B04E00020C043001B4019461CDF
:1057D0007709002F18D00399C8194A4909688142EE
:1057E00011D2484A1268811A464A12685218454B2B
:1057F0001A60484A1278002A04D0474A12685218A0
:10580000454B1A6000BF00BF059840084000401C8F
:105810000590022105988843801C0590490205984F
:105820008843401805904910059888434018059012
:10583000C904069888434018069049000598884393
:105840004018059049110698884340180690102189
:105850000498884310300490490204988843401803
:105860000490C900049888434018049049000498A3
:1058700088434018049049000498884340180490D5
:1058800049000498884340180490C9120698884338
:1058900040180690012304A807C8FFF7AFFD00F0E9
:1058A00035FF01F0A5F801F0EBFA00F04FFB02F034
:1058B0001CF903F0E5FB03F089FD01F0C5FD02F0E2
:1058C00085F9FFF7EFF907F0D1FAFFF70BF8FFF7CB
:1058D000D9FD01214903114800F08AFC0121890307
:1058E0000E4800F085FC00F0A9FA00BF07B0F0BD3B
:1058F000EE010020E093040060EA0000A004002014
:1059000090040020AC00002093040020A0000020A0
:1059100030750000D4040020D004002000200B408B
:1059200010B501F0B5FA10BD014601228A401046BB
:10593000014A506090607047404002400121814020
:10594000024A9161BFF34F8F704700004040024010
:1059500001460548806901228A401040002801D094
:10596000012070470020FCE7404002400279D20746
:10597000037A1B071A43C3881A4311460268920030
:10598000014BD2181160704700400240012907D135
:10599000074A1268012383401A43054B1A6006E048
:1059A000034A1268012383409A43014B1A607047EF
:1059B0004040024010B5012A18D1002907D10F4BF1
:1059C0005B6901248440A3430C4C636106E00B4BEC
:1059D0005B69012484402343084C6361074B1B69C6
:1059E000012484402343054C236106E0034B1B69DB
:1059F00001248440A343014C236110BD4040024078
:105A0000012806D106490969C2071143044A1161F8
:105A100005E00349096949004908014A11617047D5
:105A200040400240F8B5192636037F27BF023546AD
:105A30000AE0284600F03AFA0446002C01D0002083
:105A4000F8BD012080022D18BD42F2D9002000F0DF
:105A500017F90120F4E70000FFB5FFB0FFB087B0F1
:105A60002949FFA8416140691421484319210903CC
:105A70004718B80A8502002405E0A0002858A100B4
:105A800004AA5050641CFF2CF7D9781B810803919D
:105A9000002407E00021C94303980019800004AAEC
:105AA0001150641C052CF5D3284600F0FFF906467A
:105AB000002E04D000207FB07FB00BB0F0BD0024DA
:105AC00012E0A00004A90858401C00280BD0A20036
:105AD00004AB9958A200501900F0F4F90646002EC4
:105AE00001D00020E7E7641CFF2CEAD9FFA8C26BB5
:105AF000016C406A019202910090FFA814300FC817
:105B000000F062F8D7E700008B050000F0B589B01F
:105B100007460E461C2102A8FDF7B2FB1420704375
:105B20001921090345182C6868460472200A03905D
:105B30006C682106039808430390200A0490AC681F
:105B400021060498084304902002010C68468182D3
:105B5000E868079028690890039A0499891A6A46A8
:105B6000928A51430846FEF767F906490190FDF70E
:105B700090FF06901C2202A93846FDF768FB09B089
:105B8000F0BD00000000614563208002006870479E
:105B900010B50A4B00210CE088000B24A402001968
:105BA000026A501C002800D102E088001A5000BF91
:105BB000491C0829F0D3012010BD0000E804002092
:105BC0000B20800200687047FFB585B016461F465F
:105BD00014210598484319210903451814200390FE
:105BE00028461330029025490298884202D90020A5
:105BF00009B0F0BD30020699084304902846049984
:105C000000F060F90446002C01D00020F0E7300ECF
:105C1000390208430490281D049900F053F9044602
:105C2000002C01D00020E3E7380E0E99090208434A
:105C3000049028460830049900F044F90446002CEA
:105C400001D00020D4E70F98019028460C3001992C
:105C500000F038F90446002C01D00020C8E7109865
:105C6000009028461030009900F02CF90446002CD2
:105C700001D00020BCE70120BAE7000000FF0100CE
:105C8000F0B5FFB0FFB085B0074663208002016821
:105C9000FFA8C160C068B84204D101207FB07FB0C6
:105CA00005B0F0BD6326B6023046801B8108FFA810
:105CB0008160C068401C00280AD13946304600F097
:105CC00001F90546002D01D10120E7E70020E5E7B5
:105CD000002405E0A0003058A10001AA5050641C27
:105CE000FF2CF7D9FFA88068800001A90F5030462B
:105CF00000F0DCF80546002D01D00020CEE700249E
:105D000012E0A00001A90858401C00280BD0A200F6
:105D100001AB9958A200901900F0D4F80546002D67
:105D200001D00020BAE7641CFF2CEAD90120B5E7B6
:105D3000F0B5FFB0FFB087B03E4F0B208002016A84
:105D4000FFA801610021C160002410E0A1000B2226
:105D500092028918086AA1007958814206D0411C34
:105D6000002903D00121FFAAD16002E0641C082CA5
:105D7000ECD300BFFFA8C06800283AD00B26B602BB
:105D80000196002406E0A10001984158A00002AA53
:105D90001150641CFF2CF6D92748801B8108009104
:105DA000002407E0A0003A5800990819800002A9D1
:105DB0000A50641C082CF5D3304600F077F80546ED
:105DC000002D04D000207FB07FB007B0F0BD0024CC
:105DD0000CE0A20002AB9958A200901900F072F8F2
:105DE0000546002D01D00020EDE7641CFF2CF0D902
:105DF0001DE0002419E0A0003858FFA94861A00068
:105E00000B2189024018066AFFA9486986420BD017
:105E1000A100094A8818FFA9496900F053F805460E
:105E2000002D01D00020CEE7641C082CE3D3012014
:105E3000C9E70000E8040020202C00000EB502F0A5
:105E4000A1FCFEF75DFE0020009001900290FF2172
:105E50000131029888434018029049000298884313
:105E600040180290C9010298884340180290891096
:105E7000019888434018019009010298884340180E
:105E800002900123684607C8FFF7B8FA01F084FFC3
:105E900003F0BAF8112003F0ABFD0B2003F0A8FDCE
:105EA0000121022002F098F90EBD000010B5044651
:105EB0000348046008200249C86000F011F810BDD2
:105EC0000000084030B504460D46044804604560B3
:105ED00004200249C86000F003F830BD000008400B
:105EE000174A1848406902231843164B586114207A
:105EF000186106E0134800690C2318400C2800D1F3
:105F000003E01046521E0028F4D100BF0D488169FD
:105F10008069022398430B4B98610120400408409C
:105F2000002801D00220704702200840002801D03C
:105F30000120F8E7002A01D10320F4E70020F2E76E
:105F4000FFFF0F0000000840816270473EB500204F
:105F500000900190029001210904009888434018A4
:105F6000009049000098884340180090490000982C
:105F700088434018009049000098884340180090DA
:105F8000491101988843401801900123684607C8C9
:105F9000FFF734FA012200210846FEF771FD0122C5
:105FA00011460020FEF76CFD012202210020FEF7C1
:105FB00067FD012203210020FEF762FD012204217A
:105FC0000020FEF75DFD012205210020FEF758FDAF
:105FD000012206210020FEF753FD012207210020A7
:105FE000FEF74EFDFF2050490860012204211046B3
:105FF000FEF746FD012208211046FEF741FD012271
:1060000040211046FEF73CFD012251031046FEF7E9
:1060100037FD012291031046FEF732FD00220121D7
:106020004903424800F032F90022012189033F4828
:1060300000F02CF9012149033C48FFF785FF0122BC
:1060400051033A4800F07CF8032201214903374804
:1060500000F080F8012189033448FFF775FF012221
:106060009103324800F06CF80322012189032F4884
:1060700000F070F8002204212C4800F061F80122A1
:1060800008212A4800F05CF800224021274800F04F
:1060900057F800220421254800F082F80022402110
:1060A000224800F07DF801220421204800F06EF81B
:1060B000012240211D4800F069F80122114602200A
:1060C000FEF7DEFC012202210846FEF7D9FC012280
:1060D00003210220FEF7D4FC01220E210220FEF74C
:1060E000CFFC01220F210220FEF7CAFC10480468F1
:1060F000104804430E480460FF200B4908620E4814
:106100000A4908620A490862012211460320FEF783
:10611000B7FC00220121094800F012F801221146C3
:10612000064800F033F83EBD00000B4000200B4055
:1061300000400B400EC00000FFFF000000600B405D
:10614000002A03D003680B43036002E003688B431B
:1061500003607047F0B517460024002500220CE0CC
:10616000CE07F60F002E06D053003E469E40344325
:1061700003269E4035434910521C102AF0D346692D
:10618000AE434661466926434661F0BD002A03D00E
:1061900043680B43436002E043688B4343607047AE
:1061A00030B514468268C36815468D432A461D469D
:1061B0008D432B46002C04D0012C06D0022C09D193
:1061C00007E015460D432A4605E01D460D432B46C4
:1061D00001E000E000BF00BF8260C36030BD024646
:1061E000D3690B40002B01D0012000E00020704754
:1061F0004162704710B50122FF210020FEF740FCEC
:106200000122FF2189001046FEF73AFC01221A49BB
:106210000220FEF735FC012238210320FEF730FC76
:106220000222FF211548FFF7BBFF0222FF21890050
:106230001348FFF7B5FF02220F491248FFF7B0FFDE
:10624000022238211048FFF7ABFF0022FF210B4844
:10625000FFF776FF0022FF2189000948FFF770FF52
:10626000002205490748FFF76BFF00223821064846
:10627000FFF766FF10BD00000E63000000000B403A
:1062800000200B4000400B4000600B40002A01D072
:10629000416200E081627047F0B587B000270024BA
:1062A0000020009001900290FF2101310298884364
:1062B000401802900123684607C8FFF79FF81C4862
:1062C0000068012103F0CDFA05467D22D2000023AB
:1062D000FCF77EFF471E00E0641C611C3846FCF79B
:1062E0004DFF14498842F7D8611C3846FCF746FF39
:1062F000074668468781C48100210174002005900B
:10630000FF2101316846018303A90B4802F032FEE8
:10631000FF210131084802F0A3FD012211020648C5
:1063200002F0AFFD0121044802F09FFD07B0F0BD6F
:106330003C050020FFFF000000E0064010B5FF21F3
:106340000131144802F08CFD02F066FE00F02EFED2
:1063500000F0B6FE1049087010480078132811D0DC
:10636000084600780E490978884206D00A48007825
:106370000DF0F8FE01200B49087007480078084925
:10638000087002E0132006490870012006490870D1
:1063900010BD000000E0064021050020200500207F
:1063A000680100205C0100205D01002070B54048BC
:1063B0000078002800D070BD01203D49087018E029
:1063C0000DF0BEFE0546284607F0F4FB0446132CEC
:1063D0000ED006F0C5FC37480078042804D12146C9
:1063E00035A003F0E7F900E000BF204607F0F6FE15
:1063F00000BF00BF3348007833490978884201D193
:10640000012000E000200028DAD013202F49087076
:1064100000202F4908702F480078002842D0002023
:106420002C49087023480078022803D021480078BE
:10643000052837D12848807808280AD02748807A4C
:10644000002806D1012025498872254805F074FCF2
:106450000AE021488078082806D12048807A002860
:1064600002D000201D4988721E488078022819D168
:106470001D48807808280AD01C48807A002806D158
:1064800001201A4988721A4805F056FC0AE016489D
:106490008078082806D11548807A002802D000208C
:1064A0001249887200200249087000BF83E700008B
:1064B00069010020EE0100204556454E543A2564FE
:1064C0000A0000006601002067010020200500206E
:1064D0005C0100205D010020D2080020F2080020AD
:1064E000C0010020A8060020E2080020FE080020CD
:1064F000D001002010B508F037F8002800D110BDF9
:1065000000F020F8FBE7000038B5044608210B48EE
:10651000FFF76EFE0A480068009008E0084800682F
:106520000099401AA04200D902E00BF097FBF5E772
:1065300000BF08210148FFF707FD38BD00200B40D0
:10654000A00000201CB50B4804680B480068002818
:1065500007D009480068201A0849884201D2012062
:106560001CBDFF22F53206A1684607F04BFD6846C8
:106570000078F5E7A0000020C804002060EA0000D1
:10658000415400007CB504460D46134903C90191EE
:1065900000900198002804D0002D02D0287800280F
:1065A00004D101990098616020607CBDFFF7A2FFD3
:1065B000002809D1FF2101310198FCF761FE019902
:1065C000009861602060F0E77D2292012946204614
:1065D00007F018FD00BFE8E7584C01000A4A09021D
:1065E0008918002807D0012807D0022807D00328DF
:1065F00007D000207047086B7047C86A7047886AE8
:106600007047486A7047000000A10140002003491C
:10661000087003480068034908607047A80100201B
:10662000A0000020AC010020FEB505460E46280162
:10663000174944180020009001900290012149025E
:1066400001988843401801904901019888434018F7
:1066500001900123684607C8FEF7D0FE227AE18840
:106660002079FEF70DFAA27BA189A07AFEF708FA3D
:106670003146206803F016F801220021206803F05B
:1066800081F801221146206803F07CF8FEBD00006D
:106690006C4E010003F070FA10B51648007800281F
:1066A00026D115480068002822D014488078002898
:1066B00009DD13480078002802D007F0C5FD04E08A
:1066C00004F092FF01E004F08FFF0E4800680A49D1
:1066D00009680D4A8918884205D20A4800680649A7
:1066E0000968884204D201200249087004F07CFF46
:1066F00010BD0000A8010020AC010020A806002069
:10670000B6000020A000002060EA00000EB50020C6
:10671000009001900290019840084000401C0190B8
:1067200001218903019888434018019009010098CC
:106730008843401800900098884340180090012337
:10674000684607C8FEF75AFE0022FF2101311248B1
:10675000FFF726FD0022012149020F48FFF720FD27
:106760000722FF2101310220FEF78AF907220121C9
:1067700049020220FEF784F900F0F2F807480849C0
:1067800008601020888100200881064848600820A1
:10679000C881002048810EBD00400B40180B00202E
:1067A000080B0020860400200EB500200090019008
:1067B0000290019840084000401C01900123684667
:1067C00007C801F0C5F90022FF2101310220FEF7C0
:1067D00057F90022012149020220FEF751F90EBDAE
:1067E00010B50C21584800F0BBFB04460120000501
:1067F000204000287ED101204005204000283CD0C8
:1068000004202040002818D0012050490870504929
:1068100008705049088000204F4948814F4908803E
:106820004D4842894089401C4B4B5881184640686E
:10683000815C454800F0A3FB49E001204004204072
:10684000002844D0012043490880434840894249F8
:10685000C989884204DB00213B4800F090FB0BE033
:106860003D4842894089401C3B4B5881184640684E
:10687000815C354800F083FB29E00420204000289B
:1068800006D00120334908800020334908811EE0EA
:10689000012000042040002819D001202D49088043
:1068A000294800F068FB2C490A890989491C2A4BB0
:1068B000198119460968885418460089194689893A
:1068C000884203DB00201946088100E000BF012058
:1068D00040022040002804D0012149021A4800F05B
:1068E00025FA052000022040002806D005210902D3
:1068F000154800E018E000F019FA0120C00220401D
:10690000002818D00121C9020F4800F00FFA0E48E4
:106910000068082188430C4908600846006808217F
:1069200008430949086006E00F20000220400146A4
:10693000054800F0FBF902202040002802D000208A
:106940000449088010BD000000800440920400202B
:106950008E04002084040020080B002090040020F6
:1069600000B587B000200190029003900298400883
:106970004000401C0290012301A807C801F0E8F87C
:106980000021684601744174012181745021018302
:1069900004A9074800F0E2F90121054800F0C8F910
:1069A00001220449024800F04BFA07B000BD000084
:1069B000008004400606030010B50C48008800283B
:1069C00000D110BD72B609480088401C07490880F4
:1069D00062B606480088142806DD002003490880B6
:1069E000FFF7E2FEFFF792FE00BFEAE78404002013
:1069F0000EB500200090019002900221019888437A
:106A0000801C019049030198884340180190C900F7
:106A100000988843401800900098884340180090E0
:106A20000123684607C8FEF7E9FC002280211248CE
:106A3000FFF7B6FB0022FF2101310F48FFF7B0FB43
:106A4000072280210120FEF71BF80722FF210131D8
:106A50000120FEF715F800F0F3F80848084908602F
:106A60001020888100200881064848600820C881DD
:106A7000002048810EBD000000200B40380B002094
:106A8000280B0020960400200EB5002000900190F5
:106A90000290022101988843801C019001236846DE
:106AA00007C801F055F8002280210120FDF7E8FF1A
:106AB0000022FF2101310120FDF7E2FF0EBD0000A1
:106AC00010B50C21584800F04BFA0446012000058F
:106AD000204000287ED101204005204000283CD0E5
:106AE00004202040002818D0012050490870504947
:106AF00008705049088000204F4948814F4908805C
:106B00004D4842894089401C4B4B5881184640688B
:106B1000815C454800F033FA49E001204004204000
:106B2000002844D001204349088043484089424915
:106B3000C989884204DB00213B4800F020FA0BE0C1
:106B40003D4842894089401C3B4B5881184640686B
:106B5000815C354800F013FA29E004202040002829
:106B600006D00120334908800020334908811EE007
:106B7000012000042040002819D001202D49088060
:106B8000294800F0F8F92C490A890989491C2A4B3F
:106B90001981194609688854184600891946898957
:106BA000884203DB00201946088100E000BF012075
:106BB00040022040002804D0012149021A4800F078
:106BC000B5F8052000022040002806D00521090262
:106BD000154800E018E000F0A9F80120C0022040AC
:106BE000002818D00121C9020F4800F09FF80E4874
